{
  "contractName": "BridgeBank",
  "abi": [
    {
      "inputs": [
        {
          "internalType": "address",
          "name": "_operatorAddress",
          "type": "address"
        },
        {
          "internalType": "address",
          "name": "_oracleAddress",
          "type": "address"
        },
        {
          "internalType": "address",
          "name": "_cosmosBridgeAddress",
          "type": "address"
        }
      ],
      "payable": false,
      "stateMutability": "nonpayable",
      "type": "constructor"
    },
    {
      "anonymous": false,
      "inputs": [
        {
          "indexed": false,
          "internalType": "address",
          "name": "_token",
          "type": "address"
        },
        {
          "indexed": false,
          "internalType": "string",
          "name": "_symbol",
          "type": "string"
        },
        {
          "indexed": false,
          "internalType": "uint256",
          "name": "_amount",
          "type": "uint256"
        },
        {
          "indexed": false,
          "internalType": "address",
          "name": "_beneficiary",
          "type": "address"
        }
      ],
      "name": "LogBridgeTokenMint",
      "type": "event"
    },
    {
      "anonymous": false,
      "inputs": [
        {
          "indexed": false,
          "internalType": "address",
          "name": "_from",
          "type": "address"
        },
        {
          "indexed": false,
          "internalType": "bytes",
          "name": "_to",
          "type": "bytes"
        },
        {
          "indexed": false,
          "internalType": "address",
          "name": "_token",
          "type": "address"
        },
        {
          "indexed": false,
          "internalType": "string",
          "name": "_symbol",
          "type": "string"
        },
        {
          "indexed": false,
          "internalType": "uint256",
          "name": "_value",
          "type": "uint256"
        },
        {
          "indexed": false,
          "internalType": "uint256",
          "name": "_nonce",
          "type": "uint256"
        }
      ],
      "name": "LogBurn",
      "type": "event"
    },
    {
      "anonymous": false,
      "inputs": [
        {
          "indexed": false,
          "internalType": "address",
          "name": "_from",
          "type": "address"
        },
        {
          "indexed": false,
          "internalType": "bytes",
          "name": "_to",
          "type": "bytes"
        },
        {
          "indexed": false,
          "internalType": "address",
          "name": "_token",
          "type": "address"
        },
        {
          "indexed": false,
          "internalType": "string",
          "name": "_symbol",
          "type": "string"
        },
        {
          "indexed": false,
          "internalType": "uint256",
          "name": "_value",
          "type": "uint256"
        },
        {
          "indexed": false,
          "internalType": "uint256",
          "name": "_nonce",
          "type": "uint256"
        }
      ],
      "name": "LogLock",
      "type": "event"
    },
    {
      "anonymous": false,
      "inputs": [
        {
          "indexed": false,
          "internalType": "address",
          "name": "_token",
          "type": "address"
        },
        {
          "indexed": false,
          "internalType": "string",
          "name": "_symbol",
          "type": "string"
        }
      ],
      "name": "LogNewBridgeToken",
      "type": "event"
    },
    {
      "anonymous": false,
      "inputs": [
        {
          "indexed": false,
          "internalType": "address",
          "name": "_to",
          "type": "address"
        },
        {
          "indexed": false,
          "internalType": "address",
          "name": "_token",
          "type": "address"
        },
        {
          "indexed": false,
          "internalType": "string",
          "name": "_symbol",
          "type": "string"
        },
        {
          "indexed": false,
          "internalType": "uint256",
          "name": "_value",
          "type": "uint256"
        }
      ],
      "name": "LogUnlock",
      "type": "event"
    },
    {
      "payable": true,
      "stateMutability": "payable",
      "type": "fallback"
    },
    {
      "constant": true,
      "inputs": [],
      "name": "bridgeTokenCount",
      "outputs": [
        {
          "internalType": "uint256",
          "name": "",
          "type": "uint256"
        }
      ],
      "payable": false,
      "stateMutability": "view",
      "type": "function"
    },
    {
      "constant": true,
      "inputs": [
        {
          "internalType": "string",
          "name": "",
          "type": "string"
        }
      ],
      "name": "controlledBridgeTokens",
      "outputs": [
        {
          "internalType": "address",
          "name": "",
          "type": "address"
        }
      ],
      "payable": false,
      "stateMutability": "view",
      "type": "function"
    },
    {
      "constant": true,
      "inputs": [],
      "name": "cosmosBridge",
      "outputs": [
        {
          "internalType": "contract CosmosBridge",
          "name": "",
          "type": "address"
        }
      ],
      "payable": false,
      "stateMutability": "view",
      "type": "function"
    },
    {
      "constant": true,
      "inputs": [
        {
          "internalType": "bytes32",
          "name": "",
          "type": "bytes32"
        }
      ],
      "name": "cosmosDeposits",
      "outputs": [
        {
          "internalType": "bytes",
          "name": "cosmosSender",
          "type": "bytes"
        },
        {
          "internalType": "address payable",
          "name": "ethereumRecipient",
          "type": "address"
        },
        {
          "internalType": "address",
          "name": "bridgeTokenAddress",
          "type": "address"
        },
        {
          "internalType": "uint256",
          "name": "amount",
          "type": "uint256"
        },
        {
          "internalType": "bool",
          "name": "locked",
          "type": "bool"
        }
      ],
      "payable": false,
      "stateMutability": "view",
      "type": "function"
    },
    {
      "constant": true,
      "inputs": [
        {
          "internalType": "string",
          "name": "_symbol",
          "type": "string"
        }
      ],
      "name": "getBridgeToken",
      "outputs": [
        {
          "internalType": "address",
          "name": "",
          "type": "address"
        }
      ],
      "payable": false,
      "stateMutability": "view",
      "type": "function"
    },
    {
      "constant": true,
      "inputs": [
        {
          "internalType": "string",
          "name": "_symbol",
          "type": "string"
        }
      ],
      "name": "getLockedFunds",
      "outputs": [
        {
          "internalType": "uint256",
          "name": "",
          "type": "uint256"
        }
      ],
      "payable": false,
      "stateMutability": "view",
      "type": "function"
    },
    {
      "constant": true,
      "inputs": [
        {
          "internalType": "string",
          "name": "_symbol",
          "type": "string"
        }
      ],
      "name": "getLockedTokenAddress",
      "outputs": [
        {
          "internalType": "address",
          "name": "",
          "type": "address"
        }
      ],
      "payable": false,
      "stateMutability": "view",
      "type": "function"
    },
    {
      "constant": true,
      "inputs": [
        {
          "internalType": "address",
          "name": "",
          "type": "address"
        }
      ],
      "name": "isCosmosAsset",
      "outputs": [
        {
          "internalType": "bool",
          "name": "",
          "type": "bool"
        }
      ],
      "payable": false,
      "stateMutability": "view",
      "type": "function"
    },
    {
      "constant": true,
      "inputs": [],
      "name": "lockBurnNonce",
      "outputs": [
        {
          "internalType": "uint256",
          "name": "",
          "type": "uint256"
        }
      ],
      "payable": false,
      "stateMutability": "view",
      "type": "function"
    },
    {
      "constant": true,
      "inputs": [
        {
          "internalType": "address",
          "name": "",
          "type": "address"
        }
      ],
      "name": "lockedFunds",
      "outputs": [
        {
          "internalType": "uint256",
          "name": "",
          "type": "uint256"
        }
      ],
      "payable": false,
      "stateMutability": "view",
      "type": "function"
    },
    {
      "constant": true,
      "inputs": [
        {
          "internalType": "string",
          "name": "",
          "type": "string"
        }
      ],
      "name": "lockedTokenList",
      "outputs": [
        {
          "internalType": "address",
          "name": "",
          "type": "address"
        }
      ],
      "payable": false,
      "stateMutability": "view",
      "type": "function"
    },
    {
      "constant": true,
      "inputs": [],
      "name": "operator",
      "outputs": [
        {
          "internalType": "address",
          "name": "",
          "type": "address"
        }
      ],
      "payable": false,
      "stateMutability": "view",
      "type": "function"
    },
    {
      "constant": true,
      "inputs": [],
      "name": "oracle",
      "outputs": [
        {
          "internalType": "contract Oracle",
          "name": "",
          "type": "address"
        }
      ],
      "payable": false,
      "stateMutability": "view",
      "type": "function"
    },
    {
      "constant": false,
      "inputs": [
        {
          "internalType": "string",
          "name": "_symbol",
          "type": "string"
        }
      ],
      "name": "createNewBridgeToken",
      "outputs": [
        {
          "internalType": "address",
          "name": "",
          "type": "address"
        }
      ],
      "payable": false,
      "stateMutability": "nonpayable",
      "type": "function"
    },
    {
      "constant": false,
      "inputs": [
        {
          "internalType": "bytes",
          "name": "_cosmosSender",
          "type": "bytes"
        },
        {
          "internalType": "address payable",
          "name": "_intendedRecipient",
          "type": "address"
        },
        {
          "internalType": "address",
          "name": "_bridgeTokenAddress",
          "type": "address"
        },
        {
          "internalType": "string",
          "name": "_symbol",
          "type": "string"
        },
        {
          "internalType": "uint256",
          "name": "_amount",
          "type": "uint256"
        }
      ],
      "name": "mintBridgeTokens",
      "outputs": [],
      "payable": false,
      "stateMutability": "nonpayable",
      "type": "function"
    },
    {
      "constant": false,
      "inputs": [
        {
          "internalType": "bytes",
          "name": "_recipient",
          "type": "bytes"
        },
        {
          "internalType": "address",
          "name": "_token",
          "type": "address"
        },
        {
          "internalType": "uint256",
          "name": "_amount",
          "type": "uint256"
        }
      ],
      "name": "burn",
      "outputs": [],
      "payable": false,
      "stateMutability": "nonpayable",
      "type": "function"
    },
    {
      "constant": false,
      "inputs": [
        {
          "internalType": "bytes",
          "name": "_recipient",
          "type": "bytes"
        },
        {
          "internalType": "address",
          "name": "_token",
          "type": "address"
        },
        {
          "internalType": "uint256",
          "name": "_amount",
          "type": "uint256"
        }
      ],
      "name": "lock",
      "outputs": [],
      "payable": true,
      "stateMutability": "payable",
      "type": "function"
    },
    {
      "constant": false,
      "inputs": [
        {
          "internalType": "address payable",
          "name": "_recipient",
          "type": "address"
        },
        {
          "internalType": "string",
          "name": "_symbol",
          "type": "string"
        },
        {
          "internalType": "uint256",
          "name": "_amount",
          "type": "uint256"
        }
      ],
      "name": "unlock",
      "outputs": [],
      "payable": false,
      "stateMutability": "nonpayable",
      "type": "function"
    },
    {
      "constant": true,
      "inputs": [
        {
          "internalType": "bytes32",
          "name": "_id",
          "type": "bytes32"
        }
      ],
      "name": "getCosmosDepositStatus",
      "outputs": [
        {
          "internalType": "bool",
          "name": "",
          "type": "bool"
        }
      ],
      "payable": false,
      "stateMutability": "view",
      "type": "function"
    },
    {
      "constant": true,
      "inputs": [
        {
          "internalType": "bytes32",
          "name": "_id",
          "type": "bytes32"
        }
      ],
      "name": "viewCosmosDeposit",
      "outputs": [
        {
          "internalType": "bytes",
          "name": "",
          "type": "bytes"
        },
        {
          "internalType": "address payable",
          "name": "",
          "type": "address"
        },
        {
          "internalType": "address",
          "name": "",
          "type": "address"
        },
        {
          "internalType": "uint256",
          "name": "",
          "type": "uint256"
        }
      ],
      "payable": false,
      "stateMutability": "view",
      "type": "function"
    },
    {
      "constant": true,
      "inputs": [
        {
          "internalType": "address",
          "name": "_token",
          "type": "address"
        }
      ],
      "name": "checkIsCosmosAsset",
      "outputs": [
        {
          "internalType": "bool",
          "name": "",
          "type": "bool"
        }
      ],
      "payable": false,
      "stateMutability": "view",
      "type": "function"
    }
  ],
  "bytecode": "0x608060405234801561001057600080fd5b5060405162006013380380620060138339818101604052606081101561003557600080fd5b8101908080519060200190929190805190602001909291908051906020019092919050505060008081905550600060038190555082600660006101000a81548173ffffffffffffffffffffffffffffffffffffffff021916908373ffffffffffffffffffffffffffffffffffffffff16021790555081600760006101000a81548173ffffffffffffffffffffffffffffffffffffffff021916908373ffffffffffffffffffffffffffffffffffffffff16021790555080600860006101000a81548173ffffffffffffffffffffffffffffffffffffffff021916908373ffffffffffffffffffffffffffffffffffffffff160217905550505050615ed4806200013f6000396000f3fe608060405260043610620001465760003560e01c806381f59c5611620000bb578063cdf68c411162000079578063cdf68c411462000c0f578063dc9ae17d1462000dc2578063e05988a41462000ebb578063e06064f41462000fb4578063ebb73ca9146200100b578063f24a590a146200111a5762000146565b806381f59c5614620008e5578063884d58d414620009525780639df2a3851462000a61578063b0e9ef711462000b4c578063b86247d71462000ba65762000146565b8063328470ab1162000109578063328470ab146200061157806350b06e4d146200063f578063570ca735146200074e5780635acba65514620007a85780637dc0d1d0146200088b5762000146565b80630a1f9b66146200020c57806312e49390146200031b5780631deed3bb146200044e5780632054c273146200047c5780632852a41414620004e9575b600660009054906101000a900473ffffffffffffffffffffffffffffffffffffffff1673ffffffffffffffffffffffffffffffffffffffff163373ffffffffffffffffffffffffffffffffffffffff16146200020a576040517f08c379a000000000000000000000000000000000000000000000000000000000815260040180806020018281038252601c8152602001807f4d7573742062652042726964676542616e6b206f70657261746f722e0000000081525060200191505060405180910390fd5b005b3480156200021957600080fd5b50620002d9600480360360208110156200023257600080fd5b81019080803590602001906401000000008111156200025057600080fd5b8201836020820111156200026357600080fd5b803590602001918460018302840111640100000000831117156200028657600080fd5b91908080601f016020809104026020016040519081016040528093929190818152602001838380828437600081840152601f19601f82011690508083019250505050505050919291929050505062001229565b604051808273ffffffffffffffffffffffffffffffffffffffff1673ffffffffffffffffffffffffffffffffffffffff16815260200191505060405180910390f35b3480156200032857600080fd5b5062000358600480360360208110156200034157600080fd5b8101908080359060200190929190505050620012be565b60405180806020018673ffffffffffffffffffffffffffffffffffffffff1673ffffffffffffffffffffffffffffffffffffffff1681526020018573ffffffffffffffffffffffffffffffffffffffff1673ffffffffffffffffffffffffffffffffffffffff16815260200184815260200183151515158152602001828103825287818151815260200191508051906020019080838360005b838110156200040e578082015181840152602081019050620003f1565b50505050905090810190601f1680156200043c5780820380516001836020036101000a031916815260200191505b50965050505050505060405180910390f35b3480156200045b57600080fd5b5062000466620013dd565b6040518082815260200191505060405180910390f35b3480156200048957600080fd5b50620004cf60048036036020811015620004a257600080fd5b81019080803573ffffffffffffffffffffffffffffffffffffffff169060200190929190505050620013e3565b604051808215151515815260200191505060405180910390f35b348015620004f657600080fd5b5062000526600480360360208110156200050f57600080fd5b810190808035906020019092919050505062001403565b60405180806020018573ffffffffffffffffffffffffffffffffffffffff1673ffffffffffffffffffffffffffffffffffffffff1681526020018473ffffffffffffffffffffffffffffffffffffffff1673ffffffffffffffffffffffffffffffffffffffff168152602001838152602001828103825286818151815260200191508051906020019080838360005b83811015620005d2578082015181840152602081019050620005b5565b50505050905090810190601f168015620006005780820380516001836020036101000a031916815260200191505b509550505050505060405180910390f35b3480156200061e57600080fd5b506200062962001424565b6040518082815260200191505060405180910390f35b3480156200064c57600080fd5b506200070c600480360360208110156200066557600080fd5b81019080803590602001906401000000008111156200068357600080fd5b8201836020820111156200069657600080fd5b80359060200191846001830284011164010000000083111715620006b957600080fd5b91908080601f016020809104026020016040519081016040528093929190818152602001838380828437600081840152601f19601f8201169050808301925050505050505091929192905050506200142a565b604051808273ffffffffffffffffffffffffffffffffffffffff1673ffffffffffffffffffffffffffffffffffffffff16815260200191505060405180910390f35b3480156200075b57600080fd5b506200076662001544565b604051808273ffffffffffffffffffffffffffffffffffffffff1673ffffffffffffffffffffffffffffffffffffffff16815260200191505060405180910390f35b348015620007b557600080fd5b506200087560048036036020811015620007ce57600080fd5b8101908080359060200190640100000000811115620007ec57600080fd5b820183602082011115620007ff57600080fd5b803590602001918460018302840111640100000000831117156200082257600080fd5b91908080601f016020809104026020016040519081016040528093929190818152602001838380828437600081840152601f19601f8201169050808301925050505050505091929192905050506200156a565b6040518082815260200191505060405180910390f35b3480156200089857600080fd5b50620008a36200163e565b604051808273ffffffffffffffffffffffffffffffffffffffff1673ffffffffffffffffffffffffffffffffffffffff16815260200191505060405180910390f35b348015620008f257600080fd5b5062000938600480360360208110156200090b57600080fd5b81019080803573ffffffffffffffffffffffffffffffffffffffff16906020019092919050505062001664565b604051808215151515815260200191505060405180910390f35b3480156200095f57600080fd5b5062000a1f600480360360208110156200097857600080fd5b81019080803590602001906401000000008111156200099657600080fd5b820183602082011115620009a957600080fd5b80359060200191846001830284011164010000000083111715620009cc57600080fd5b91908080601f016020809104026020016040519081016040528093929190818152602001838380828437600081840152601f19601f820116905080830192505050505050509192919290505050620016cd565b604051808273ffffffffffffffffffffffffffffffffffffffff1673ffffffffffffffffffffffffffffffffffffffff16815260200191505060405180910390f35b62000b4a6004803603606081101562000a7957600080fd5b810190808035906020019064010000000081111562000a9757600080fd5b82018360208201111562000aaa57600080fd5b8035906020019184600183028401116401000000008311171562000acd57600080fd5b91908080601f016020809104026020016040519081016040528093929190818152602001838380828437600081840152601f19601f820116905080830192505050505050509192919290803573ffffffffffffffffffffffffffffffffffffffff1690602001909291908035906020019092919050505062001716565b005b34801562000b5957600080fd5b5062000b6462001d9c565b604051808273ffffffffffffffffffffffffffffffffffffffff1673ffffffffffffffffffffffffffffffffffffffff16815260200191505060405180910390f35b34801562000bb357600080fd5b5062000bf96004803603602081101562000bcc57600080fd5b81019080803573ffffffffffffffffffffffffffffffffffffffff16906020019092919050505062001dc2565b6040518082815260200191505060405180910390f35b34801562000c1c57600080fd5b5062000dc0600480360360a081101562000c3557600080fd5b810190808035906020019064010000000081111562000c5357600080fd5b82018360208201111562000c6657600080fd5b8035906020019184600183028401116401000000008311171562000c8957600080fd5b91908080601f016020809104026020016040519081016040528093929190818152602001838380828437600081840152601f19601f820116905080830192505050505050509192919290803573ffffffffffffffffffffffffffffffffffffffff169060200190929190803573ffffffffffffffffffffffffffffffffffffffff1690602001909291908035906020019064010000000081111562000d2d57600080fd5b82018360208201111562000d4057600080fd5b8035906020019184600183028401116401000000008311171562000d6357600080fd5b91908080601f016020809104026020016040519081016040528093929190818152602001838380828437600081840152601f19601f8201169050808301925050505050505091929192908035906020019092919050505062001dda565b005b34801562000dcf57600080fd5b5062000eb96004803603606081101562000de857600080fd5b810190808035906020019064010000000081111562000e0657600080fd5b82018360208201111562000e1957600080fd5b8035906020019184600183028401116401000000008311171562000e3c57600080fd5b91908080601f016020809104026020016040519081016040528093929190818152602001838380828437600081840152601f19601f820116905080830192505050505050509192919290803573ffffffffffffffffffffffffffffffffffffffff1690602001909291908035906020019092919050505062001e98565b005b34801562000ec857600080fd5b5062000fb26004803603606081101562000ee157600080fd5b81019080803573ffffffffffffffffffffffffffffffffffffffff1690602001909291908035906020019064010000000081111562000f1f57600080fd5b82018360208201111562000f3257600080fd5b8035906020019184600183028401116401000000008311171562000f5557600080fd5b91908080601f016020809104026020016040519081016040528093929190818152602001838380828437600081840152601f19601f8201169050808301925050505050505091929192908035906020019092919050505062002117565b005b34801562000fc157600080fd5b5062000ff16004803603602081101562000fda57600080fd5b810190808035906020019092919050505062002475565b604051808215151515815260200191505060405180910390f35b3480156200101857600080fd5b50620010d8600480360360208110156200103157600080fd5b81019080803590602001906401000000008111156200104f57600080fd5b8201836020820111156200106257600080fd5b803590602001918460018302840111640100000000831117156200108557600080fd5b91908080601f016020809104026020016040519081016040528093929190818152602001838380828437600081840152601f19601f82011690508083019250505050505050919291929050505062002489565b604051808273ffffffffffffffffffffffffffffffffffffffff1673ffffffffffffffffffffffffffffffffffffffff16815260200191505060405180910390f35b3480156200112757600080fd5b50620011e7600480360360208110156200114057600080fd5b81019080803590602001906401000000008111156200115e57600080fd5b8201836020820111156200117157600080fd5b803590602001918460018302840111640100000000831117156200119457600080fd5b91908080601f016020809104026020016040519081016040528093929190818152602001838380828437600081840152601f19601f8201169050808301925050505050505091929192905050506200251e565b604051808273ffffffffffffffffffffffffffffffffffffffff1673ffffffffffffffffffffffffffffffffffffffff16815260200191505060405180910390f35b60006005826040518082805190602001908083835b602083106200126357805182526020820191506020810190506020830392506200123e565b6001836020036101000a038019825116818451168082178552505050505050905001915050908152602001604051809103902060009054906101000a900473ffffffffffffffffffffffffffffffffffffffff169050919050565b6002602052806000526040600020600091509050806000018054600181600116156101000203166002900480601f0160208091040260200160405190810160405280929190818152602001828054600181600116156101000203166002900480156200136e5780601f1062001342576101008083540402835291602001916200136e565b820191906000526020600020905b8154815290600101906020018083116200135057829003601f168201915b5050505050908060010160009054906101000a900473ffffffffffffffffffffffffffffffffffffffff16908060020160009054906101000a900473ffffffffffffffffffffffffffffffffffffffff16908060030154908060040160009054906101000a900460ff16905085565b60035481565b60096020528060005260406000206000915054906101000a900460ff1681565b60606000806000620014158562002567565b93509350935093509193509193565b60005481565b6000600860009054906101000a900473ffffffffffffffffffffffffffffffffffffffff1673ffffffffffffffffffffffffffffffffffffffff163373ffffffffffffffffffffffffffffffffffffffff1614620014d4576040517f08c379a000000000000000000000000000000000000000000000000000000000815260040180806020018281038252602681526020018062005d0a6026913960400191505060405180910390fd5b6000620014e18362002736565b90506001600960008373ffffffffffffffffffffffffffffffffffffffff1673ffffffffffffffffffffffffffffffffffffffff16815260200190815260200160002060006101000a81548160ff02191690831515021790555080915050919050565b600660009054906101000a900473ffffffffffffffffffffffffffffffffffffffff1681565b6000600460006005846040518082805190602001908083835b60208310620015a8578051825260208201915060208101905060208303925062001583565b6001836020036101000a038019825116818451168082178552505050505050905001915050908152602001604051809103902060009054906101000a900473ffffffffffffffffffffffffffffffffffffffff1673ffffffffffffffffffffffffffffffffffffffff1673ffffffffffffffffffffffffffffffffffffffff168152602001908152602001600020549050919050565b600760009054906101000a900473ffffffffffffffffffffffffffffffffffffffff1681565b6000600960008373ffffffffffffffffffffffffffffffffffffffff1673ffffffffffffffffffffffffffffffffffffffff16815260200190815260200160002060009054906101000a900460ff1615620016c35760019050620016c8565b600090505b919050565b6001818051602081018201805184825260208301602085012081835280955050505050506000915054906101000a900473ffffffffffffffffffffffffffffffffffffffff1681565b6003546001600354011162001793576040517f08c379a00000000000000000000000000000000000000000000000000000000081526004018080602001828103825260148152602001807f4e6f20617661696c61626c65206e6f6e6365732e00000000000000000000000081525060200191505060405180910390fd5b60606000341115620018cd57600073ffffffffffffffffffffffffffffffffffffffff168373ffffffffffffffffffffffffffffffffffffffff161462001826576040517f08c379a000000000000000000000000000000000000000000000000000000000815260040180806020018281038252604481526020018062005d9d6044913960600191505060405180910390fd5b81341462001880576040517f08c379a000000000000000000000000000000000000000000000000000000000815260040180806020018281038252604281526020018062005d5b6042913960600191505060405180910390fd5b6040518060400160405280600381526020017f45544800000000000000000000000000000000000000000000000000000000008152509050620018c7338585848662002985565b62001d96565b8273ffffffffffffffffffffffffffffffffffffffff166395d89b416040518163ffffffff1660e01b815260040160006040518083038186803b1580156200191457600080fd5b505afa15801562001929573d6000803e3d6000fd5b505050506040513d6000823e3d601f19601f8201168201806040525060208110156200195457600080fd5b81019080805160405193929190846401000000008211156200197557600080fd5b838201915060208201858111156200198c57600080fd5b8251866001820283011164010000000082111715620019aa57600080fd5b8083526020830192505050908051906020019080838360005b83811015620019e0578082015181840152602081019050620019c3565b50505050905090810190601f16801562001a0e5780820380516001836020036101000a031916815260200191505b506040525050509050600960008473ffffffffffffffffffffffffffffffffffffffff1673ffffffffffffffffffffffffffffffffffffffff16815260200190815260200160002060009054906101000a900460ff161562001c3557818373ffffffffffffffffffffffffffffffffffffffff166370a08231336040518263ffffffff1660e01b8152600401808273ffffffffffffffffffffffffffffffffffffffff1673ffffffffffffffffffffffffffffffffffffffff16815260200191505060206040518083038186803b15801562001ae957600080fd5b505afa15801562001afe573d6000803e3d6000fd5b505050506040513d602081101562001b1557600080fd5b8101908080519060200190929190505050101562001b7f576040517f08c379a000000000000000000000000000000000000000000000000000000000815260040180806020018281038252604481526020018062005e5c6044913960600191505060405180910390fd5b8273ffffffffffffffffffffffffffffffffffffffff166379cc679033846040518363ffffffff1660e01b8152600401808373ffffffffffffffffffffffffffffffffffffffff1673ffffffffffffffffffffffffffffffffffffffff16815260200182815260200192505050600060405180830381600087803b15801562001c0757600080fd5b505af115801562001c1c573d6000803e3d6000fd5b5050505062001c2f338585848662002c74565b62001d95565b8273ffffffffffffffffffffffffffffffffffffffff166323b872dd3330856040518463ffffffff1660e01b8152600401808473ffffffffffffffffffffffffffffffffffffffff1673ffffffffffffffffffffffffffffffffffffffff1681526020018373ffffffffffffffffffffffffffffffffffffffff1673ffffffffffffffffffffffffffffffffffffffff1681526020018281526020019350505050602060405180830381600087803b15801562001cf157600080fd5b505af115801562001d06573d6000803e3d6000fd5b505050506040513d602081101562001d1d57600080fd5b810190808051906020019092919050505062001d85576040517f08c379a000000000000000000000000000000000000000000000000000000000815260040180806020018281038252604481526020018062005e5c6044913960600191505060405180910390fd5b62001d94338585848662002985565b5b5b50505050565b600860009054906101000a900473ffffffffffffffffffffffffffffffffffffffff1681565b60046020528060005260406000206000915090505481565b600860009054906101000a900473ffffffffffffffffffffffffffffffffffffffff1673ffffffffffffffffffffffffffffffffffffffff163373ffffffffffffffffffffffffffffffffffffffff161462001e82576040517f08c379a000000000000000000000000000000000000000000000000000000000815260040180806020018281038252602681526020018062005d0a6026913960400191505060405180910390fd5b62001e91858585858562002e22565b5050505050565b6003546001600354011162001f15576040517f08c379a00000000000000000000000000000000000000000000000000000000081526004018080602001828103825260148152602001807f4e6f20617661696c61626c65206e6f6e6365732e00000000000000000000000081525060200191505060405180910390fd5b8173ffffffffffffffffffffffffffffffffffffffff166379cc679033836040518363ffffffff1660e01b8152600401808373ffffffffffffffffffffffffffffffffffffffff1673ffffffffffffffffffffffffffffffffffffffff16815260200182815260200192505050600060405180830381600087803b15801562001f9d57600080fd5b505af115801562001fb2573d6000803e3d6000fd5b5050505060608273ffffffffffffffffffffffffffffffffffffffff166395d89b416040518163ffffffff1660e01b815260040160006040518083038186803b15801562001fff57600080fd5b505afa15801562002014573d6000803e3d6000fd5b505050506040513d6000823e3d601f19601f8201168201806040525060208110156200203f57600080fd5b81019080805160405193929190846401000000008211156200206057600080fd5b838201915060208201858111156200207757600080fd5b82518660018202830111640100000000821117156200209557600080fd5b8083526020830192505050908051906020019080838360005b83811015620020cb578082015181840152602081019050620020ae565b50505050905090810190601f168015620020f95780820380516001836020036101000a031916815260200191505b50604052505050905062002111338585848662003174565b50505050565b600860009054906101000a900473ffffffffffffffffffffffffffffffffffffffff1673ffffffffffffffffffffffffffffffffffffffff163373ffffffffffffffffffffffffffffffffffffffff1614620021bf576040517f08c379a000000000000000000000000000000000000000000000000000000000815260040180806020018281038252602681526020018062005d0a6026913960400191505060405180910390fd5b80620021cb836200156a565b101562002224576040517f08c379a000000000000000000000000000000000000000000000000000000000815260040180806020018281038252604481526020018062005cc66044913960600191505060405180910390fd5b60006005836040518082805190602001908083835b602083106200225e578051825260208201915060208101905060208303925062002239565b6001836020036101000a038019825116818451168082178552505050505050905001915050908152602001604051809103902060009054906101000a900473ffffffffffffffffffffffffffffffffffffffff169050600073ffffffffffffffffffffffffffffffffffffffff168173ffffffffffffffffffffffffffffffffffffffff1614156200234b578147101562002345576040517f08c379a000000000000000000000000000000000000000000000000000000000815260040180806020018281038252602b81526020018062005d30602b913960400191505060405180910390fd5b62002461565b818173ffffffffffffffffffffffffffffffffffffffff166370a08231306040518263ffffffff1660e01b8152600401808273ffffffffffffffffffffffffffffffffffffffff1673ffffffffffffffffffffffffffffffffffffffff16815260200191505060206040518083038186803b158015620023ca57600080fd5b505afa158015620023df573d6000803e3d6000fd5b505050506040513d6020811015620023f657600080fd5b8101908080519060200190929190505050101562002460576040517f08c379a000000000000000000000000000000000000000000000000000000000815260040180806020018281038252602e81526020018062005e07602e913960400191505060405180910390fd5b5b6200246f8482858562003322565b50505050565b600062002482826200368b565b9050919050565b60006001826040518082805190602001908083835b60208310620024c357805182526020820191506020810190506020830392506200249e565b6001836020036101000a038019825116818451168082178552505050505050905001915050908152602001604051809103902060009054906101000a900473ffffffffffffffffffffffffffffffffffffffff169050919050565b6005818051602081018201805184825260208301602085012081835280955050505050506000915054906101000a900473ffffffffffffffffffffffffffffffffffffffff1681565b606060008060006200257862003a8f565b600260008781526020019081526020016000206040518060a0016040529081600082018054600181600116156101000203166002900480601f016020809104026020016040519081016040528092919081815260200182805460018160011615610100020316600290048015620026335780601f10620026075761010080835404028352916020019162002633565b820191906000526020600020905b8154815290600101906020018083116200261557829003601f168201915b505050505081526020016001820160009054906101000a900473ffffffffffffffffffffffffffffffffffffffff1673ffffffffffffffffffffffffffffffffffffffff1673ffffffffffffffffffffffffffffffffffffffff1681526020016002820160009054906101000a900473ffffffffffffffffffffffffffffffffffffffff1673ffffffffffffffffffffffffffffffffffffffff1673ffffffffffffffffffffffffffffffffffffffff168152602001600382015481526020016004820160009054906101000a900460ff161515151581525050905080600001518160200151826040015183606001518393509450945094509450509193509193565b6000620027506001600054620036b890919063ffffffff16565b600081905550600082604051620027679062003aec565b8080602001828103825283818151815260200191508051906020019080838360005b83811015620027a657808201518184015260208101905062002789565b50505050905090810190601f168015620027d45780820380516001836020036101000a031916815260200191505b5092505050604051809103906000f080158015620027f6573d6000803e3d6000fd5b5090506000819050806001856040518082805190602001908083835b6020831062002837578051825260208201915060208101905060208303925062002812565b6001836020036101000a038019825116818451168082178552505050505050905001915050908152602001604051809103902060006101000a81548173ffffffffffffffffffffffffffffffffffffffff021916908373ffffffffffffffffffffffffffffffffffffffff1602179055507f0ec4ab372af15f8db6003eb14d91402a44b20dff79fbac33b4ee0df68fafe9c08185604051808373ffffffffffffffffffffffffffffffffffffffff1673ffffffffffffffffffffffffffffffffffffffff16815260200180602001828103825283818151815260200191508051906020019080838360005b838110156200293f57808201518184015260208101905062002922565b50505050905090810190601f1680156200296d5780820380516001836020036101000a031916815260200191505b50935050505060405180910390a18092505050919050565b6200299d6001600354620036b890919063ffffffff16565b600381905550826005836040518082805190602001908083835b60208310620029dc5780518252602082019150602081019050602083039250620029b7565b6001836020036101000a038019825116818451168082178552505050505050905001915050908152602001604051809103902060006101000a81548173ffffffffffffffffffffffffffffffffffffffff021916908373ffffffffffffffffffffffffffffffffffffffff16021790555062002aa181600460008673ffffffffffffffffffffffffffffffffffffffff1673ffffffffffffffffffffffffffffffffffffffff16815260200190815260200160002054620036b890919063ffffffff16565b600460008573ffffffffffffffffffffffffffffffffffffffff1673ffffffffffffffffffffffffffffffffffffffff168152602001908152602001600020819055507f374449c83a37309524754bbdfc5b8306d3694b5d14609b8fbb1b50cc5c0319a78585858585600354604051808773ffffffffffffffffffffffffffffffffffffffff1673ffffffffffffffffffffffffffffffffffffffff168152602001806020018673ffffffffffffffffffffffffffffffffffffffff1673ffffffffffffffffffffffffffffffffffffffff16815260200180602001858152602001848152602001838103835288818151815260200191508051906020019080838360005b8381101562002bc357808201518184015260208101905062002ba6565b50505050905090810190601f16801562002bf15780820380516001836020036101000a031916815260200191505b50838103825286818151815260200191508051906020019080838360005b8381101562002c2c57808201518184015260208101905062002c0f565b50505050905090810190601f16801562002c5a5780820380516001836020036101000a031916815260200191505b509850505050505050505060405180910390a15050505050565b62002c8c6001600354620036b890919063ffffffff16565b6003819055507f374449c83a37309524754bbdfc5b8306d3694b5d14609b8fbb1b50cc5c0319a78585858585600354604051808773ffffffffffffffffffffffffffffffffffffffff1673ffffffffffffffffffffffffffffffffffffffff168152602001806020018673ffffffffffffffffffffffffffffffffffffffff1673ffffffffffffffffffffffffffffffffffffffff16815260200180602001858152602001848152602001838103835288818151815260200191508051906020019080838360005b8381101562002d7157808201518184015260208101905062002d54565b50505050905090810190601f16801562002d9f5780820380516001836020036101000a031916815260200191505b50838103825286818151815260200191508051906020019080838360005b8381101562002dda57808201518184015260208101905062002dbd565b50505050905090810190601f16801562002e085780820380516001836020036101000a031916815260200191505b509850505050505050505060405180910390a15050505050565b8273ffffffffffffffffffffffffffffffffffffffff166001836040518082805190602001908083835b6020831062002e71578051825260208201915060208101905060208303925062002e4c565b6001836020036101000a038019825116818451168082178552505050505050905001915050908152602001604051809103902060009054906101000a900473ffffffffffffffffffffffffffffffffffffffff1673ffffffffffffffffffffffffffffffffffffffff161462002f33576040517f08c379a000000000000000000000000000000000000000000000000000000000815260040180806020018281038252602781526020018062005e356027913960400191505060405180910390fd5b8273ffffffffffffffffffffffffffffffffffffffff166340c10f1985836040518363ffffffff1660e01b8152600401808373ffffffffffffffffffffffffffffffffffffffff1673ffffffffffffffffffffffffffffffffffffffff16815260200182815260200192505050602060405180830381600087803b15801562002fbb57600080fd5b505af115801562002fd0573d6000803e3d6000fd5b505050506040513d602081101562002fe757600080fd5b81019080805190602001909291905050506200304f576040517f08c379a000000000000000000000000000000000000000000000000000000000815260040180806020018281038252602681526020018062005de16026913960400191505060405180910390fd5b6200305d8585858462003741565b507f262f97360779b7c2bb05fd24ef49f22d51435f78d3abd1ab35c323b22064cd4d83838387604051808573ffffffffffffffffffffffffffffffffffffffff1673ffffffffffffffffffffffffffffffffffffffff168152602001806020018481526020018373ffffffffffffffffffffffffffffffffffffffff1673ffffffffffffffffffffffffffffffffffffffff168152602001828103825285818151815260200191508051906020019080838360005b838110156200312f57808201518184015260208101905062003112565b50505050905090810190601f1680156200315d5780820380516001836020036101000a031916815260200191505b509550505050505060405180910390a15050505050565b6200318c6001600354620036b890919063ffffffff16565b6003819055507fcff57df3b42f67919a9300d211bb7fe56104ca34949da91116a8f82ff51bb7778585858585600354604051808773ffffffffffffffffffffffffffffffffffffffff1673ffffffffffffffffffffffffffffffffffffffff168152602001806020018673ffffffffffffffffffffffffffffffffffffffff1673ffffffffffffffffffffffffffffffffffffffff16815260200180602001858152602001848152602001838103835288818151815260200191508051906020019080838360005b838110156200327157808201518184015260208101905062003254565b50505050905090810190601f1680156200329f5780820380516001836020036101000a031916815260200191505b50838103825286818151815260200191508051906020019080838360005b83811015620032da578082015181840152602081019050620032bd565b50505050905090810190601f168015620033085780820380516001836020036101000a031916815260200191505b509850505050505050505060405180910390a15050505050565b6200337681600460008673ffffffffffffffffffffffffffffffffffffffff1673ffffffffffffffffffffffffffffffffffffffff168152602001908152602001600020546200397f90919063ffffffff16565b600460008573ffffffffffffffffffffffffffffffffffffffff1673ffffffffffffffffffffffffffffffffffffffff16815260200190815260200160002081905550600073ffffffffffffffffffffffffffffffffffffffff168373ffffffffffffffffffffffffffffffffffffffff1614156200343d578373ffffffffffffffffffffffffffffffffffffffff166108fc829081150290604051600060405180830381858888f1935050505015801562003436573d6000803e3d6000fd5b5062003576565b8273ffffffffffffffffffffffffffffffffffffffff1663a9059cbb85836040518363ffffffff1660e01b8152600401808373ffffffffffffffffffffffffffffffffffffffff1673ffffffffffffffffffffffffffffffffffffffff16815260200182815260200192505050602060405180830381600087803b158015620034c557600080fd5b505af1158015620034da573d6000803e3d6000fd5b505050506040513d6020811015620034f157600080fd5b810190808051906020019092919050505062003575576040517f08c379a00000000000000000000000000000000000000000000000000000000081526004018080602001828103825260158152602001807f546f6b656e207472616e73666572206661696c6564000000000000000000000081525060200191505060405180910390fd5b5b7f802cd873de701272ec903860b690986bd460b5bcd57e30ac1fdfdeece10528ac84848484604051808573ffffffffffffffffffffffffffffffffffffffff1673ffffffffffffffffffffffffffffffffffffffff1681526020018473ffffffffffffffffffffffffffffffffffffffff1673ffffffffffffffffffffffffffffffffffffffff16815260200180602001838152602001828103825284818151815260200191508051906020019080838360005b83811015620036475780820151818401526020810190506200362a565b50505050905090810190601f168015620036755780820380516001836020036101000a031916815260200191505b509550505050505060405180910390a150505050565b60006002600083815260200190815260200160002060040160009054906101000a900460ff169050919050565b60008082840190508381101562003737576040517f08c379a000000000000000000000000000000000000000000000000000000000815260040180806020018281038252601b8152602001807f536166654d6174683a206164646974696f6e206f766572666c6f77000000000081525060200191505060405180910390fd5b8091505092915050565b600080858585856040516020018085805190602001908083835b602083106200378057805182526020820191506020810190506020830392506200375b565b6001836020036101000a0380198251168184511680821785525050505050509050018473ffffffffffffffffffffffffffffffffffffffff1673ffffffffffffffffffffffffffffffffffffffff1660601b81526014018373ffffffffffffffffffffffffffffffffffffffff1673ffffffffffffffffffffffffffffffffffffffff1660601b81526014018281526020019450505050506040516020818303038152906040528051906020012090506040518060a001604052808781526020018673ffffffffffffffffffffffffffffffffffffffff1681526020018573ffffffffffffffffffffffffffffffffffffffff16815260200184815260200160011515815250600260008381526020019081526020016000206000820151816000019080519060200190620038b792919062003afa565b5060208201518160010160006101000a81548173ffffffffffffffffffffffffffffffffffffffff021916908373ffffffffffffffffffffffffffffffffffffffff16021790555060408201518160020160006101000a81548173ffffffffffffffffffffffffffffffffffffffff021916908373ffffffffffffffffffffffffffffffffffffffff1602179055506060820151816003015560808201518160040160006101000a81548160ff02191690831515021790555090505080915050949350505050565b6000620039c383836040518060400160405280601e81526020017f536166654d6174683a207375627472616374696f6e206f766572666c6f770000815250620039cb565b905092915050565b600083831115829062003a7c576040517f08c379a00000000000000000000000000000000000000000000000000000000081526004018080602001828103825283818151815260200191508051906020019080838360005b8381101562003a4057808201518184015260208101905062003a23565b50505050905090810190601f16801562003a6e5780820380516001836020036101000a031916815260200191505b509250505060405180910390fd5b5060008385039050809150509392505050565b6040518060a0016040528060608152602001600073ffffffffffffffffffffffffffffffffffffffff168152602001600073ffffffffffffffffffffffffffffffffffffffff168152602001600081526020016000151581525090565b61211c8062003baa83390190565b828054600181600116156101000203166002900490600052602060002090601f016020900481019282601f1062003b3d57805160ff191683800117855562003b6e565b8280016001018555821562003b6e579182015b8281111562003b6d57825182559160200191906001019062003b50565b5b50905062003b7d919062003b81565b5090565b62003ba691905b8082111562003ba257600081600090555060010162003b88565b5090565b9056fe60806040523480156200001157600080fd5b506040516200211c3803806200211c833981810160405260208110156200003757600080fd5b81019080805160405193929190846401000000008211156200005857600080fd5b838201915060208201858111156200006f57600080fd5b82518660018202830111640100000000821117156200008d57600080fd5b8083526020830192505050908051906020019080838360005b83811015620000c3578082015181840152602081019050620000a6565b50505050905090810190601f168015620000f15780820380516001836020036101000a031916815260200191505b50604052505050808160126200011c620001106200017360201b60201c565b6200017b60201b60201c565b826004908051906020019062000134929190620003a0565b5081600590805190602001906200014d929190620003a0565b5080600660006101000a81548160ff021916908360ff160217905550505050506200044f565b600033905090565b62000196816003620001dc60201b620018f31790919060201c565b8073ffffffffffffffffffffffffffffffffffffffff167f6ae172837ea30b801fbfcdd4108aa1d5bf8ff775444fd70256b44e6bf3dfc3f660405160405180910390a250565b620001ee8282620002c060201b60201c565b1562000262576040517f08c379a000000000000000000000000000000000000000000000000000000000815260040180806020018281038252601f8152602001807f526f6c65733a206163636f756e7420616c72656164792068617320726f6c650081525060200191505060405180910390fd5b60018260000160008373ffffffffffffffffffffffffffffffffffffffff1673ffffffffffffffffffffffffffffffffffffffff16815260200190815260200160002060006101000a81548160ff0219169083151502179055505050565b60008073ffffffffffffffffffffffffffffffffffffffff168273ffffffffffffffffffffffffffffffffffffffff16141562000349576040517f08c379a0000000000000000000000000000000000000000000000000000000008152600401808060200182810382526022815260200180620020fa6022913960400191505060405180910390fd5b8260000160008373ffffffffffffffffffffffffffffffffffffffff1673ffffffffffffffffffffffffffffffffffffffff16815260200190815260200160002060009054906101000a900460ff16905092915050565b828054600181600116156101000203166002900490600052602060002090601f016020900481019282601f10620003e357805160ff191683800117855562000414565b8280016001018555821562000414579182015b8281111562000413578251825591602001919060010190620003f6565b5b50905062000423919062000427565b5090565b6200044c91905b80821115620004485760008160009055506001016200042e565b5090565b90565b611c9b806200045f6000396000f3fe608060405234801561001057600080fd5b506004361061010b5760003560e01c806370a08231116100a257806398650275116100715780639865027514610528578063a457c2d714610532578063a9059cbb14610598578063aa271e1a146105fe578063dd62ed3e1461065a5761010b565b806370a08231146103bb57806379cc67901461041357806395d89b4114610461578063983b2d56146104e45761010b565b8063313ce567116100de578063313ce5671461029d57806339509351146102c157806340c10f191461032757806342966c681461038d5761010b565b806306fdde0314610110578063095ea7b31461019357806318160ddd146101f957806323b872dd14610217575b600080fd5b6101186106d2565b6040518080602001828103825283818151815260200191508051906020019080838360005b8381101561015857808201518184015260208101905061013d565b50505050905090810190601f1680156101855780820380516001836020036101000a031916815260200191505b509250505060405180910390f35b6101df600480360360408110156101a957600080fd5b81019080803573ffffffffffffffffffffffffffffffffffffffff16906020019092919080359060200190929190505050610774565b604051808215151515815260200191505060405180910390f35b610201610792565b6040518082815260200191505060405180910390f35b6102836004803603606081101561022d57600080fd5b81019080803573ffffffffffffffffffffffffffffffffffffffff169060200190929190803573ffffffffffffffffffffffffffffffffffffffff1690602001909291908035906020019092919050505061079c565b604051808215151515815260200191505060405180910390f35b6102a5610875565b604051808260ff1660ff16815260200191505060405180910390f35b61030d600480360360408110156102d757600080fd5b81019080803573ffffffffffffffffffffffffffffffffffffffff1690602001909291908035906020019092919050505061088c565b604051808215151515815260200191505060405180910390f35b6103736004803603604081101561033d57600080fd5b81019080803573ffffffffffffffffffffffffffffffffffffffff1690602001909291908035906020019092919050505061093f565b604051808215151515815260200191505060405180910390f35b6103b9600480360360208110156103a357600080fd5b81019080803590602001909291905050506109ba565b005b6103fd600480360360208110156103d157600080fd5b81019080803573ffffffffffffffffffffffffffffffffffffffff1690602001909291905050506109ce565b6040518082815260200191505060405180910390f35b61045f6004803603604081101561042957600080fd5b81019080803573ffffffffffffffffffffffffffffffffffffffff16906020019092919080359060200190929190505050610a16565b005b610469610a24565b6040518080602001828103825283818151815260200191508051906020019080838360005b838110156104a957808201518184015260208101905061048e565b50505050905090810190601f1680156104d65780820380516001836020036101000a031916815260200191505b509250505060405180910390f35b610526600480360360208110156104fa57600080fd5b81019080803573ffffffffffffffffffffffffffffffffffffffff169060200190929190505050610ac6565b005b610530610b37565b005b61057e6004803603604081101561054857600080fd5b81019080803573ffffffffffffffffffffffffffffffffffffffff16906020019092919080359060200190929190505050610b49565b604051808215151515815260200191505060405180910390f35b6105e4600480360360408110156105ae57600080fd5b81019080803573ffffffffffffffffffffffffffffffffffffffff16906020019092919080359060200190929190505050610c16565b604051808215151515815260200191505060405180910390f35b6106406004803603602081101561061457600080fd5b81019080803573ffffffffffffffffffffffffffffffffffffffff169060200190929190505050610c34565b604051808215151515815260200191505060405180910390f35b6106bc6004803603604081101561067057600080fd5b81019080803573ffffffffffffffffffffffffffffffffffffffff169060200190929190803573ffffffffffffffffffffffffffffffffffffffff169060200190929190505050610c51565b6040518082815260200191505060405180910390f35b606060048054600181600116156101000203166002900480601f01602080910402602001604051908101604052809291908181526020018280546001816001161561010002031660029004801561076a5780601f1061073f5761010080835404028352916020019161076a565b820191906000526020600020905b81548152906001019060200180831161074d57829003601f168201915b5050505050905090565b6000610788610781610cd8565b8484610ce0565b6001905092915050565b6000600254905090565b60006107a9848484610ed7565b61086a846107b5610cd8565b61086585604051806060016040528060288152602001611b6a60289139600160008b73ffffffffffffffffffffffffffffffffffffffff1673ffffffffffffffffffffffffffffffffffffffff168152602001908152602001600020600061081b610cd8565b73ffffffffffffffffffffffffffffffffffffffff1673ffffffffffffffffffffffffffffffffffffffff1681526020019081526020016000205461118d9092919063ffffffff16565b610ce0565b600190509392505050565b6000600660009054906101000a900460ff16905090565b6000610935610899610cd8565b8461093085600160006108aa610cd8565b73ffffffffffffffffffffffffffffffffffffffff1673ffffffffffffffffffffffffffffffffffffffff16815260200190815260200160002060008973ffffffffffffffffffffffffffffffffffffffff1673ffffffffffffffffffffffffffffffffffffffff1681526020019081526020016000205461124d90919063ffffffff16565b610ce0565b6001905092915050565b600061095161094c610cd8565b610c34565b6109a6576040517f08c379a0000000000000000000000000000000000000000000000000000000008152600401808060200182810382526030815260200180611b196030913960400191505060405180910390fd5b6109b083836112d5565b6001905092915050565b6109cb6109c5610cd8565b82611490565b50565b60008060008373ffffffffffffffffffffffffffffffffffffffff1673ffffffffffffffffffffffffffffffffffffffff168152602001908152602001600020549050919050565b610a208282611648565b5050565b606060058054600181600116156101000203166002900480601f016020809104026020016040519081016040528092919081815260200182805460018160011615610100020316600290048015610abc5780601f10610a9157610100808354040283529160200191610abc565b820191906000526020600020905b815481529060010190602001808311610a9f57829003601f168201915b5050505050905090565b610ad6610ad1610cd8565b610c34565b610b2b576040517f08c379a0000000000000000000000000000000000000000000000000000000008152600401808060200182810382526030815260200180611b196030913960400191505060405180910390fd5b610b3481611717565b50565b610b47610b42610cd8565b611771565b565b6000610c0c610b56610cd8565b84610c0785604051806060016040528060258152602001611c426025913960016000610b80610cd8565b73ffffffffffffffffffffffffffffffffffffffff1673ffffffffffffffffffffffffffffffffffffffff16815260200190815260200160002060008a73ffffffffffffffffffffffffffffffffffffffff1673ffffffffffffffffffffffffffffffffffffffff1681526020019081526020016000205461118d9092919063ffffffff16565b610ce0565b6001905092915050565b6000610c2a610c23610cd8565b8484610ed7565b6001905092915050565b6000610c4a8260036117cb90919063ffffffff16565b9050919050565b6000600160008473ffffffffffffffffffffffffffffffffffffffff1673ffffffffffffffffffffffffffffffffffffffff16815260200190815260200160002060008373ffffffffffffffffffffffffffffffffffffffff1673ffffffffffffffffffffffffffffffffffffffff16815260200190815260200160002054905092915050565b600033905090565b600073ffffffffffffffffffffffffffffffffffffffff168373ffffffffffffffffffffffffffffffffffffffff161415610d66576040517f08c379a0000000000000000000000000000000000000000000000000000000008152600401808060200182810382526024815260200180611c1e6024913960400191505060405180910390fd5b600073ffffffffffffffffffffffffffffffffffffffff168273ffffffffffffffffffffffffffffffffffffffff161415610dec576040517f08c379a0000000000000000000000000000000000000000000000000000000008152600401808060200182810382526022815260200180611ad16022913960400191505060405180910390fd5b80600160008573ffffffffffffffffffffffffffffffffffffffff1673ffffffffffffffffffffffffffffffffffffffff16815260200190815260200160002060008473ffffffffffffffffffffffffffffffffffffffff1673ffffffffffffffffffffffffffffffffffffffff168152602001908152602001600020819055508173ffffffffffffffffffffffffffffffffffffffff168373ffffffffffffffffffffffffffffffffffffffff167f8c5be1e5ebec7d5bd14f71427d1e84f3dd0314c0f7b2291e5b200ac8c7c3b925836040518082815260200191505060405180910390a3505050565b600073ffffffffffffffffffffffffffffffffffffffff168373ffffffffffffffffffffffffffffffffffffffff161415610f5d576040517f08c379a0000000000000000000000000000000000000000000000000000000008152600401808060200182810382526025815260200180611bf96025913960400191505060405180910390fd5b600073ffffffffffffffffffffffffffffffffffffffff168273ffffffffffffffffffffffffffffffffffffffff161415610fe3576040517f08c379a0000000000000000000000000000000000000000000000000000000008152600401808060200182810382526023815260200180611a8c6023913960400191505060405180910390fd5b61104e81604051806060016040528060268152602001611af3602691396000808773ffffffffffffffffffffffffffffffffffffffff1673ffffffffffffffffffffffffffffffffffffffff1681526020019081526020016000205461118d9092919063ffffffff16565b6000808573ffffffffffffffffffffffffffffffffffffffff1673ffffffffffffffffffffffffffffffffffffffff168152602001908152602001600020819055506110e1816000808573ffffffffffffffffffffffffffffffffffffffff1673ffffffffffffffffffffffffffffffffffffffff1681526020019081526020016000205461124d90919063ffffffff16565b6000808473ffffffffffffffffffffffffffffffffffffffff1673ffffffffffffffffffffffffffffffffffffffff168152602001908152602001600020819055508173ffffffffffffffffffffffffffffffffffffffff168373ffffffffffffffffffffffffffffffffffffffff167fddf252ad1be2c89b69c2b068fc378daa952ba7f163c4a11628f55a4df523b3ef836040518082815260200191505060405180910390a3505050565b600083831115829061123a576040517f08c379a00000000000000000000000000000000000000000000000000000000081526004018080602001828103825283818151815260200191508051906020019080838360005b838110156111ff5780820151818401526020810190506111e4565b50505050905090810190601f16801561122c5780820380516001836020036101000a031916815260200191505b509250505060405180910390fd5b5060008385039050809150509392505050565b6000808284019050838110156112cb576040517f08c379a000000000000000000000000000000000000000000000000000000000815260040180806020018281038252601b8152602001807f536166654d6174683a206164646974696f6e206f766572666c6f77000000000081525060200191505060405180910390fd5b8091505092915050565b600073ffffffffffffffffffffffffffffffffffffffff168273ffffffffffffffffffffffffffffffffffffffff161415611378576040517f08c379a000000000000000000000000000000000000000000000000000000000815260040180806020018281038252601f8152602001807f45524332303a206d696e7420746f20746865207a65726f20616464726573730081525060200191505060405180910390fd5b61138d8160025461124d90919063ffffffff16565b6002819055506113e4816000808573ffffffffffffffffffffffffffffffffffffffff1673ffffffffffffffffffffffffffffffffffffffff1681526020019081526020016000205461124d90919063ffffffff16565b6000808473ffffffffffffffffffffffffffffffffffffffff1673ffffffffffffffffffffffffffffffffffffffff168152602001908152602001600020819055508173ffffffffffffffffffffffffffffffffffffffff16600073ffffffffffffffffffffffffffffffffffffffff167fddf252ad1be2c89b69c2b068fc378daa952ba7f163c4a11628f55a4df523b3ef836040518082815260200191505060405180910390a35050565b600073ffffffffffffffffffffffffffffffffffffffff168273ffffffffffffffffffffffffffffffffffffffff161415611516576040517f08c379a0000000000000000000000000000000000000000000000000000000008152600401808060200182810382526021815260200180611bd86021913960400191505060405180910390fd5b61158181604051806060016040528060228152602001611aaf602291396000808673ffffffffffffffffffffffffffffffffffffffff1673ffffffffffffffffffffffffffffffffffffffff1681526020019081526020016000205461118d9092919063ffffffff16565b6000808473ffffffffffffffffffffffffffffffffffffffff1673ffffffffffffffffffffffffffffffffffffffff168152602001908152602001600020819055506115d8816002546118a990919063ffffffff16565b600281905550600073ffffffffffffffffffffffffffffffffffffffff168273ffffffffffffffffffffffffffffffffffffffff167fddf252ad1be2c89b69c2b068fc378daa952ba7f163c4a11628f55a4df523b3ef836040518082815260200191505060405180910390a35050565b6116528282611490565b6117138261165e610cd8565b61170e84604051806060016040528060248152602001611bb460249139600160008973ffffffffffffffffffffffffffffffffffffffff1673ffffffffffffffffffffffffffffffffffffffff16815260200190815260200160002060006116c4610cd8565b73ffffffffffffffffffffffffffffffffffffffff1673ffffffffffffffffffffffffffffffffffffffff1681526020019081526020016000205461118d9092919063ffffffff16565b610ce0565b5050565b61172b8160036118f390919063ffffffff16565b8073ffffffffffffffffffffffffffffffffffffffff167f6ae172837ea30b801fbfcdd4108aa1d5bf8ff775444fd70256b44e6bf3dfc3f660405160405180910390a250565b6117858160036119ce90919063ffffffff16565b8073ffffffffffffffffffffffffffffffffffffffff167fe94479a9f7e1952cc78f2d6baab678adc1b772d936c6583def489e524cb6669260405160405180910390a250565b60008073ffffffffffffffffffffffffffffffffffffffff168273ffffffffffffffffffffffffffffffffffffffff161415611852576040517f08c379a0000000000000000000000000000000000000000000000000000000008152600401808060200182810382526022815260200180611b926022913960400191505060405180910390fd5b8260000160008373ffffffffffffffffffffffffffffffffffffffff1673ffffffffffffffffffffffffffffffffffffffff16815260200190815260200160002060009054906101000a900460ff16905092915050565b60006118eb83836040518060400160405280601e81526020017f536166654d6174683a207375627472616374696f6e206f766572666c6f77000081525061118d565b905092915050565b6118fd82826117cb565b15611970576040517f08c379a000000000000000000000000000000000000000000000000000000000815260040180806020018281038252601f8152602001807f526f6c65733a206163636f756e7420616c72656164792068617320726f6c650081525060200191505060405180910390fd5b60018260000160008373ffffffffffffffffffffffffffffffffffffffff1673ffffffffffffffffffffffffffffffffffffffff16815260200190815260200160002060006101000a81548160ff0219169083151502179055505050565b6119d882826117cb565b611a2d576040517f08c379a0000000000000000000000000000000000000000000000000000000008152600401808060200182810382526021815260200180611b496021913960400191505060405180910390fd5b60008260000160008373ffffffffffffffffffffffffffffffffffffffff1673ffffffffffffffffffffffffffffffffffffffff16815260200190815260200160002060006101000a81548160ff021916908315150217905550505056fe45524332303a207472616e7366657220746f20746865207a65726f206164647265737345524332303a206275726e20616d6f756e7420657863656564732062616c616e636545524332303a20617070726f766520746f20746865207a65726f206164647265737345524332303a207472616e7366657220616d6f756e7420657863656564732062616c616e63654d696e746572526f6c653a2063616c6c657220646f6573206e6f74206861766520746865204d696e74657220726f6c65526f6c65733a206163636f756e7420646f6573206e6f74206861766520726f6c6545524332303a207472616e7366657220616d6f756e74206578636565647320616c6c6f77616e6365526f6c65733a206163636f756e7420697320746865207a65726f206164647265737345524332303a206275726e20616d6f756e74206578636565647320616c6c6f77616e636545524332303a206275726e2066726f6d20746865207a65726f206164647265737345524332303a207472616e736665722066726f6d20746865207a65726f206164647265737345524332303a20617070726f76652066726f6d20746865207a65726f206164647265737345524332303a2064656372656173656420616c6c6f77616e63652062656c6f77207a65726fa265627a7a723158205a381057d9cb9473e02c23337f144bac19ba1a48d30b8e778b11e922e1d7376664736f6c63430005100032526f6c65733a206163636f756e7420697320746865207a65726f20616464726573735468652042616e6b20646f6573206e6f7420686f6c6420656e6f756768206c6f636b656420746f6b656e7320746f2066756c66696c6c207468697320726571756573742e416363657373207265737472696374656420746f2074686520636f736d6f7320627269646765496e73756666696369656e7420657468657265756d2062616c616e636520666f722064656c69766572792e546865207472616e73616374696f6e732076616c7565206d75737420626520657175616c207468652073706563696669656420616d6f756e742028696e2077656929457468657265756d206465706f736974732072657175697265207468652027746f6b656e27206164647265737320746f20626520746865206e756c6c2061646472657373417474656d70746564206d696e74206f662062726964676520746f6b656e73206661696c6564496e73756666696369656e7420455243323020746f6b656e2062616c616e636520666f722064656c69766572792e546f6b656e206d757374206265206120636f6e74726f6c6c65642062726964676520746f6b656e436f6e747261637420746f6b656e20616c6c6f77616e63657320696e73756666696369656e7420746f20636f6d706c6574652074686973206c6f636b2072657175657374a265627a7a7231582075e70f948303aa4f186e5a1cdb2ce5b6be915fac8c8e764efec42a10d4a1676564736f6c63430005100032",
  "source": "pragma solidity ^0.5.0;\n\nimport \"./CosmosBank.sol\";\nimport \"./EthereumBank.sol\";\nimport \"../Oracle.sol\";\nimport \"../CosmosBridge.sol\";\nimport \"../../../node_modules/openzeppelin-solidity/contracts/math/SafeMath.sol\";\n\n\n/**\n * @title BridgeBank\n * @dev Bank contract which coordinates asset-related functionality.\n *      CosmosBank manages the minting and burning of tokens which\n *      represent Cosmos based assets, while EthereumBank manages\n *      the locking and unlocking of Ethereum and ERC20 token assets\n *      based on Ethereum.\n **/\n\ncontract BridgeBank is CosmosBank, EthereumBank {\n    using SafeMath for uint256;\n\n    address public operator;\n    Oracle public oracle;\n    CosmosBridge public cosmosBridge;\n    mapping(address => bool) public isCosmosAsset;\n\n    /*\n     * @dev: Constructor, sets operator\n     */\n    constructor(\n        address _operatorAddress,\n        address _oracleAddress,\n        address _cosmosBridgeAddress\n    ) public {\n        operator = _operatorAddress;\n        oracle = Oracle(_oracleAddress);\n        cosmosBridge = CosmosBridge(_cosmosBridgeAddress);\n    }\n\n    /*\n     * @dev: Modifier to restrict access to operator\n     */\n    modifier onlyOperator() {\n        require(msg.sender == operator, \"Must be BridgeBank operator.\");\n        _;\n    }\n\n    /*\n     * @dev: Modifier to restrict access to the oracle\n     */\n    modifier onlyOracle() {\n        require(\n            msg.sender == address(oracle),\n            \"Access restricted to the oracle\"\n        );\n        _;\n    }\n\n    /*\n     * @dev: Modifier to restrict access to the cosmos bridge\n     */\n    modifier onlyCosmosBridge() {\n        require(\n            msg.sender == address(cosmosBridge),\n            \"Access restricted to the cosmos bridge\"\n        );\n        _;\n    }\n\n    /*\n     * @dev: Fallback function allows operator to send funds to the bank directly\n     *       This feature is used for testing and is available at the operator's own risk.\n     */\n    function() external payable onlyOperator {}\n\n    /*\n     * @dev: Creates a new BridgeToken\n     *\n     * @param _symbol: The new BridgeToken's symbol\n     * @return: The new BridgeToken contract's address\n     */\n    function createNewBridgeToken(string memory _symbol)\n        public\n        onlyCosmosBridge\n        returns (address)\n    {\n        address tokenAddress = deployNewBridgeToken(_symbol);\n        isCosmosAsset[tokenAddress] = true;\n        return tokenAddress;\n    }\n\n    /*\n     * @dev: Mints new BankTokens\n     *\n     * @param _cosmosSender: The sender's Cosmos address in bytes.\n     * @param _ethereumRecipient: The intended recipient's Ethereum address.\n     * @param _cosmosTokenAddress: The currency type\n     * @param _symbol: comsos token symbol\n     * @param _amount: number of comsos tokens to be minted\n     */\n    function mintBridgeTokens(\n        bytes memory _cosmosSender,\n        address payable _intendedRecipient,\n        address _bridgeTokenAddress,\n        string memory _symbol,\n        uint256 _amount\n    ) public onlyCosmosBridge {\n        return\n            mintNewBridgeTokens(\n                _cosmosSender,\n                _intendedRecipient,\n                _bridgeTokenAddress,\n                _symbol,\n                _amount\n            );\n    }\n\n    /*\n     * @dev: Burns BridgeTokens representing native Cosmos assets.\n     *\n     * @param _recipient: bytes representation of destination address.\n     * @param _token: token address in origin chain (0x0 if ethereum)\n     * @param _amount: value of deposit\n     */\n    function burn(bytes memory _recipient, address _token, uint256 _amount)\n        public\n        availableNonce()\n    {\n        BridgeToken(_token).burnFrom(msg.sender, _amount);\n        string memory symbol = BridgeToken(_token).symbol();\n        burnFunds(msg.sender, _recipient, _token, symbol, _amount);\n    }\n\n    /*\n     * @dev: Locks received Ethereum/ERC20 funds.\n     *\n     * @param _recipient: bytes representation of destination address.\n     * @param _token: token address in origin chain (0x0 if ethereum)\n     * @param _amount: value of deposit\n     */\n    function lock(bytes memory _recipient, address _token, uint256 _amount)\n        public\n        payable\n        availableNonce()\n    {\n        string memory symbol;\n\n        // Ethereum deposit\n        if (msg.value > 0) {\n            require(\n                _token == address(0),\n                \"Ethereum deposits require the 'token' address to be the null address\"\n            );\n            require(\n                msg.value == _amount,\n                \"The transactions value must be equal the specified amount (in wei)\"\n            );\n            symbol = \"ETH\";\n            lockEthereumAssetFunds(msg.sender, _recipient, _token, symbol, _amount);\n        // ERC20 deposit\n        } else {\n            // Set symbol to the ERC20 token's symbol\n            symbol = BridgeToken(_token).symbol();\n\n            if(isCosmosAsset[_token]) {\n                require(BridgeToken(_token).balanceOf(msg.sender) >= _amount,  \"Contract token allowances insufficient to complete this lock request\");\n                BridgeToken(_token).burnFrom(\n                    msg.sender,\n                    _amount\n                );\n                lockCosmosAssetFunds(msg.sender, _recipient, _token, symbol, _amount);\n            } else {\n                require(\n                    BridgeToken(_token).transferFrom(\n                        msg.sender,\n                        address(this),\n                        _amount\n                    ),\n                    \"Contract token allowances insufficient to complete this lock request\"\n                );\n                lockEthereumAssetFunds(msg.sender, _recipient, _token, symbol, _amount);\n            }\n        }\n    }\n\n    /*\n     * @dev: Unlocks Ethereum and ERC20 tokens held on the contract.\n     *\n     * @param _recipient: recipient's Ethereum address\n     * @param _token: token contract address\n     * @param _symbol: token symbol\n     * @param _amount: wei amount or ERC20 token count\n     */\n    function unlock(\n        address payable _recipient,\n        string memory _symbol,\n        uint256 _amount\n    ) public onlyCosmosBridge {\n        // Confirm that the bank has sufficient locked balances of this token type\n        require(\n            getLockedFunds(_symbol) >= _amount,\n            \"The Bank does not hold enough locked tokens to fulfill this request.\"\n        );\n\n        // Confirm that the bank holds sufficient balances to complete the unlock\n        address tokenAddress = lockedTokenList[_symbol];\n        if (tokenAddress == address(0)) {\n            require(\n                address(this).balance >= _amount,\n                \"Insufficient ethereum balance for delivery.\"\n            );\n        } else {\n            require(\n                BridgeToken(tokenAddress).balanceOf(address(this)) >= _amount,\n                \"Insufficient ERC20 token balance for delivery.\"\n            );\n        }\n        unlockFunds(_recipient, tokenAddress, _symbol, _amount);\n    }\n\n    /*\n     * @dev: Exposes an item's current status.\n     *\n     * @param _id: The item in question.\n     * @return: Boolean indicating the lock status.\n     */\n    function getCosmosDepositStatus(bytes32 _id) public view returns (bool) {\n        return isLockedCosmosDeposit(_id);\n    }\n\n    /*\n     * @dev: Allows access to a Cosmos deposit's information via its unique identifier.\n     *\n     * @param _id: The deposit to be viewed.\n     * @return: Original sender's Ethereum address.\n     * @return: Intended Cosmos recipient's address in bytes.\n     * @return: The lock deposit's currency, denoted by a token address.\n     * @return: The amount locked in the deposit.\n     * @return: The deposit's unique nonce.\n     */\n    function viewCosmosDeposit(bytes32 _id)\n        public\n        view\n        returns (bytes memory, address payable, address, uint256)\n    {\n        return getCosmosDeposit(_id);\n    }\n\n    function checkIsCosmosAsset(address _token) public view returns (bool) {\n        if(isCosmosAsset[_token]){\n            return true;\n        }\n        return false;\n    }\n\n}\n",
  "sourcePath": "/Users/chientm/go/src/github.com/cosmos/peggy/testnet-contracts/contracts/BridgeBank/BridgeBank.sol",
  "compiler": {
    "name": "solc",
    "version": "0.5.16+commit.9c3226ce.Emscripten.clang"
  },
  "schemaVersion": "3.1.0",
  "updatedAt": "2020-10-22T08:10:08.405Z",
  "networkType": "ethereum",
  "devdoc": {
    "details": "Bank contract which coordinates asset-related functionality.     CosmosBank manages the minting and burning of tokens which     represent Cosmos based assets, while EthereumBank manages     the locking and unlocking of Ethereum and ERC20 token assets     based on Ethereum.*",
    "methods": {},
    "title": "BridgeBank"
  },
  "userdoc": {
    "methods": {}
  }
}