{
  "contractName": "CosmosBridge",
  "abi": [
    {
      "inputs": [
        {
          "internalType": "address",
          "name": "_operator",
          "type": "address"
        },
        {
          "internalType": "address",
          "name": "_valset",
          "type": "address"
        }
      ],
      "payable": false,
      "stateMutability": "nonpayable",
      "type": "constructor"
    },
    {
      "anonymous": false,
      "inputs": [
        {
          "indexed": false,
          "internalType": "address",
          "name": "_bridgeBank",
          "type": "address"
        }
      ],
      "name": "LogBridgeBankSet",
      "type": "event"
    },
    {
      "anonymous": false,
      "inputs": [
        {
          "indexed": false,
          "internalType": "uint256",
          "name": "_prophecyID",
          "type": "uint256"
        },
        {
          "indexed": false,
          "internalType": "enum CosmosBridge.ClaimType",
          "name": "_claimType",
          "type": "uint8"
        },
        {
          "indexed": false,
          "internalType": "bytes",
          "name": "_cosmosSender",
          "type": "bytes"
        },
        {
          "indexed": false,
          "internalType": "address payable",
          "name": "_ethereumReceiver",
          "type": "address"
        },
        {
          "indexed": false,
          "internalType": "address",
          "name": "_validatorAddress",
          "type": "address"
        },
        {
          "indexed": false,
          "internalType": "address",
          "name": "_tokenAddress",
          "type": "address"
        },
        {
          "indexed": false,
          "internalType": "string",
          "name": "_symbol",
          "type": "string"
        },
        {
          "indexed": false,
          "internalType": "uint256",
          "name": "_amount",
          "type": "uint256"
        }
      ],
      "name": "LogNewProphecyClaim",
      "type": "event"
    },
    {
      "anonymous": false,
      "inputs": [
        {
          "indexed": false,
          "internalType": "address",
          "name": "_oracle",
          "type": "address"
        }
      ],
      "name": "LogOracleSet",
      "type": "event"
    },
    {
      "anonymous": false,
      "inputs": [
        {
          "indexed": false,
          "internalType": "uint256",
          "name": "_prophecyID",
          "type": "uint256"
        },
        {
          "indexed": false,
          "internalType": "enum CosmosBridge.ClaimType",
          "name": "_claimType",
          "type": "uint8"
        }
      ],
      "name": "LogProphecyCompleted",
      "type": "event"
    },
    {
      "constant": true,
      "inputs": [],
      "name": "bridgeBank",
      "outputs": [
        {
          "internalType": "contract BridgeBank",
          "name": "",
          "type": "address"
        }
      ],
      "payable": false,
      "stateMutability": "view",
      "type": "function"
    },
    {
      "constant": true,
      "inputs": [],
      "name": "hasBridgeBank",
      "outputs": [
        {
          "internalType": "bool",
          "name": "",
          "type": "bool"
        }
      ],
      "payable": false,
      "stateMutability": "view",
      "type": "function"
    },
    {
      "constant": true,
      "inputs": [],
      "name": "hasOracle",
      "outputs": [
        {
          "internalType": "bool",
          "name": "",
          "type": "bool"
        }
      ],
      "payable": false,
      "stateMutability": "view",
      "type": "function"
    },
    {
      "constant": true,
      "inputs": [],
      "name": "operator",
      "outputs": [
        {
          "internalType": "address",
          "name": "",
          "type": "address"
        }
      ],
      "payable": false,
      "stateMutability": "view",
      "type": "function"
    },
    {
      "constant": true,
      "inputs": [],
      "name": "oracle",
      "outputs": [
        {
          "internalType": "address",
          "name": "",
          "type": "address"
        }
      ],
      "payable": false,
      "stateMutability": "view",
      "type": "function"
    },
    {
      "constant": true,
      "inputs": [],
      "name": "prophecyClaimCount",
      "outputs": [
        {
          "internalType": "uint256",
          "name": "",
          "type": "uint256"
        }
      ],
      "payable": false,
      "stateMutability": "view",
      "type": "function"
    },
    {
      "constant": true,
      "inputs": [
        {
          "internalType": "uint256",
          "name": "",
          "type": "uint256"
        }
      ],
      "name": "prophecyClaims",
      "outputs": [
        {
          "internalType": "enum CosmosBridge.ClaimType",
          "name": "claimType",
          "type": "uint8"
        },
        {
          "internalType": "bytes",
          "name": "cosmosSender",
          "type": "bytes"
        },
        {
          "internalType": "address payable",
          "name": "ethereumReceiver",
          "type": "address"
        },
        {
          "internalType": "address",
          "name": "originalValidator",
          "type": "address"
        },
        {
          "internalType": "address",
          "name": "tokenAddress",
          "type": "address"
        },
        {
          "internalType": "string",
          "name": "symbol",
          "type": "string"
        },
        {
          "internalType": "uint256",
          "name": "amount",
          "type": "uint256"
        },
        {
          "internalType": "enum CosmosBridge.Status",
          "name": "status",
          "type": "uint8"
        }
      ],
      "payable": false,
      "stateMutability": "view",
      "type": "function"
    },
    {
      "constant": true,
      "inputs": [],
      "name": "valset",
      "outputs": [
        {
          "internalType": "contract Valset",
          "name": "",
          "type": "address"
        }
      ],
      "payable": false,
      "stateMutability": "view",
      "type": "function"
    },
    {
      "constant": false,
      "inputs": [
        {
          "internalType": "address",
          "name": "_oracle",
          "type": "address"
        }
      ],
      "name": "setOracle",
      "outputs": [],
      "payable": false,
      "stateMutability": "nonpayable",
      "type": "function"
    },
    {
      "constant": false,
      "inputs": [
        {
          "internalType": "address payable",
          "name": "_bridgeBank",
          "type": "address"
        }
      ],
      "name": "setBridgeBank",
      "outputs": [],
      "payable": false,
      "stateMutability": "nonpayable",
      "type": "function"
    },
    {
      "constant": false,
      "inputs": [
        {
          "internalType": "enum CosmosBridge.ClaimType",
          "name": "_claimType",
          "type": "uint8"
        },
        {
          "internalType": "bytes",
          "name": "_cosmosSender",
          "type": "bytes"
        },
        {
          "internalType": "address payable",
          "name": "_ethereumReceiver",
          "type": "address"
        },
        {
          "internalType": "string",
          "name": "_symbol",
          "type": "string"
        },
        {
          "internalType": "uint256",
          "name": "_amount",
          "type": "uint256"
        }
      ],
      "name": "newProphecyClaim",
      "outputs": [],
      "payable": false,
      "stateMutability": "nonpayable",
      "type": "function"
    },
    {
      "constant": false,
      "inputs": [
        {
          "internalType": "uint256",
          "name": "_prophecyID",
          "type": "uint256"
        }
      ],
      "name": "completeProphecyClaim",
      "outputs": [],
      "payable": false,
      "stateMutability": "nonpayable",
      "type": "function"
    },
    {
      "constant": true,
      "inputs": [
        {
          "internalType": "uint256",
          "name": "_prophecyID",
          "type": "uint256"
        }
      ],
      "name": "isProphecyClaimActive",
      "outputs": [
        {
          "internalType": "bool",
          "name": "",
          "type": "bool"
        }
      ],
      "payable": false,
      "stateMutability": "view",
      "type": "function"
    },
    {
      "constant": true,
      "inputs": [
        {
          "internalType": "uint256",
          "name": "_prophecyID",
          "type": "uint256"
        }
      ],
      "name": "isProphecyClaimValidatorActive",
      "outputs": [
        {
          "internalType": "bool",
          "name": "",
          "type": "bool"
        }
      ],
      "payable": false,
      "stateMutability": "view",
      "type": "function"
    }
  ],
  "bytecode": "0x60806040526040518060400160405280600581526020017f5045474759000000000000000000000000000000000000000000000000000000815250600090805190602001906200005192919062000168565b503480156200005f57600080fd5b506040516200300d3803806200300d833981810160405260408110156200008557600080fd5b810190808051906020019092919080519060200190929190505050600060058190555081600160006101000a81548173ffffffffffffffffffffffffffffffffffffffff021916908373ffffffffffffffffffffffffffffffffffffffff16021790555080600260006101000a81548173ffffffffffffffffffffffffffffffffffffffff021916908373ffffffffffffffffffffffffffffffffffffffff1602179055506000600360146101000a81548160ff0219169083151502179055506000600460146101000a81548160ff021916908315150217905550505062000217565b828054600181600116156101000203166002900490600052602060002090601f016020900481019282601f10620001ab57805160ff1916838001178555620001dc565b82800160010185558215620001dc579182015b82811115620001db578251825591602001919060010190620001be565b5b509050620001eb9190620001ef565b5090565b6200021491905b8082111562000210576000816000905550600101620001f6565b5090565b90565b612de680620002276000396000f3fe608060405234801561001057600080fd5b50600436106100ea5760003560e01c80637f54af0c1161008c5780639d396d03116100665780639d396d0314610353578063d8da69ea146104dc578063db4237af14610522578063fb7831f2146106ff576100ea565b80637f54af0c146102a7578063814c92c3146102f15780638ea5352d14610335576100ea565b806369294a4e116100c857806369294a4e146101c95780636b3ce98c146101eb5780637adbf973146102195780637dc0d1d01461025d576100ea565b80630e41f373146100ef578063529f3dd214610139578063570ca7351461017f575b600080fd5b6100f7610721565b604051808273ffffffffffffffffffffffffffffffffffffffff1673ffffffffffffffffffffffffffffffffffffffff16815260200191505060405180910390f35b6101656004803603602081101561014f57600080fd5b8101908080359060200190929190505050610747565b604051808215151515815260200191505060405180910390f35b610187610860565b604051808273ffffffffffffffffffffffffffffffffffffffff1673ffffffffffffffffffffffffffffffffffffffff16815260200191505060405180910390f35b6101d1610886565b604051808215151515815260200191505060405180910390f35b6102176004803603602081101561020157600080fd5b8101908080359060200190929190505050610899565b005b61025b6004803603602081101561022f57600080fd5b81019080803573ffffffffffffffffffffffffffffffffffffffff169060200190929190505050610bc7565b005b610265610dd4565b604051808273ffffffffffffffffffffffffffffffffffffffff1673ffffffffffffffffffffffffffffffffffffffff16815260200191505060405180910390f35b6102af610dfa565b604051808273ffffffffffffffffffffffffffffffffffffffff1673ffffffffffffffffffffffffffffffffffffffff16815260200191505060405180910390f35b6103336004803603602081101561030757600080fd5b81019080803573ffffffffffffffffffffffffffffffffffffffff169060200190929190505050610e20565b005b61033d61102d565b6040518082815260200191505060405180910390f35b6104da600480360360a081101561036957600080fd5b81019080803560ff1690602001909291908035906020019064010000000081111561039357600080fd5b8201836020820111156103a557600080fd5b803590602001918460018302840111640100000000831117156103c757600080fd5b91908080601f016020809104026020016040519081016040528093929190818152602001838380828437600081840152601f19601f820116905080830192505050505050509192919290803573ffffffffffffffffffffffffffffffffffffffff1690602001909291908035906020019064010000000081111561044a57600080fd5b82018360208201111561045c57600080fd5b8035906020019184600183028401116401000000008311171561047e57600080fd5b91908080601f016020809104026020016040519081016040528093929190818152602001838380828437600081840152601f19601f82011690508083019250505050505050919291929080359060200190929190505050611033565b005b610508600480360360208110156104f257600080fd5b8101908080359060200190929190505050611f0e565b604051808215151515815260200191505060405180910390f35b61054e6004803603602081101561053857600080fd5b8101908080359060200190929190505050611f54565b6040518089600281111561055e57fe5b60ff168152602001806020018873ffffffffffffffffffffffffffffffffffffffff1673ffffffffffffffffffffffffffffffffffffffff1681526020018773ffffffffffffffffffffffffffffffffffffffff1673ffffffffffffffffffffffffffffffffffffffff1681526020018673ffffffffffffffffffffffffffffffffffffffff1673ffffffffffffffffffffffffffffffffffffffff1681526020018060200185815260200184600381111561061657fe5b60ff16815260200183810383528a818151815260200191508051906020019080838360005b8381101561065657808201518184015260208101905061063b565b50505050905090810190601f1680156106835780820380516001836020036101000a031916815260200191505b50838103825286818151815260200191508051906020019080838360005b838110156106bc5780820151818401526020810190506106a1565b50505050905090810190601f1680156106e95780820380516001836020036101000a031916815260200191505b509a505050505050505050505060405180910390f35b610707612146565b604051808215151515815260200191505060405180910390f35b600460009054906101000a900473ffffffffffffffffffffffffffffffffffffffff1681565b6000600260009054906101000a900473ffffffffffffffffffffffffffffffffffffffff1673ffffffffffffffffffffffffffffffffffffffff166340550a1c6006600085815260200190815260200160002060030160009054906101000a900473ffffffffffffffffffffffffffffffffffffffff166040518263ffffffff1660e01b8152600401808273ffffffffffffffffffffffffffffffffffffffff1673ffffffffffffffffffffffffffffffffffffffff16815260200191505060206040518083038186803b15801561081e57600080fd5b505afa158015610832573d6000803e3d6000fd5b505050506040513d602081101561084857600080fd5b81019080805190602001909291905050509050919050565b600160009054906101000a900473ffffffffffffffffffffffffffffffffffffffff1681565b600460149054906101000a900460ff1681565b806108a381611f0e565b610915576040517f08c379a000000000000000000000000000000000000000000000000000000000815260040180806020018281038252601c8152602001807f50726f706865637920636c61696d206973206e6f74206163746976650000000081525060200191505060405180910390fd5b600360009054906101000a900473ffffffffffffffffffffffffffffffffffffffff1673ffffffffffffffffffffffffffffffffffffffff163373ffffffffffffffffffffffffffffffffffffffff16146109bb576040517f08c379a0000000000000000000000000000000000000000000000000000000008152600401808060200182810382526027815260200180612d8b6027913960400191505060405180910390fd5b60026006600084815260200190815260200160002060070160006101000a81548160ff021916908360038111156109ee57fe5b021790555060006006600084815260200190815260200160002060000160009054906101000a900460ff16905060016002811115610a2857fe5b816002811115610a3457fe5b1415610b6b57600460009054906101000a900473ffffffffffffffffffffffffffffffffffffffff1673ffffffffffffffffffffffffffffffffffffffff166381f59c566006600086815260200190815260200160002060040160009054906101000a900473ffffffffffffffffffffffffffffffffffffffff166040518263ffffffff1660e01b8152600401808273ffffffffffffffffffffffffffffffffffffffff1673ffffffffffffffffffffffffffffffffffffffff16815260200191505060206040518083038186803b158015610b0f57600080fd5b505afa158015610b23573d6000803e3d6000fd5b505050506040513d6020811015610b3957600080fd5b8101908080519060200190929190505050610b5c57610b5783612159565b610b66565b610b658361256a565b5b610b75565b610b748361256a565b5b7f79e7c1c0bd54f11809c3bf6023c242783602d61ceff272c6bba6f8559c24ad0d838260405180838152602001826002811115610bae57fe5b60ff1681526020019250505060405180910390a1505050565b600160009054906101000a900473ffffffffffffffffffffffffffffffffffffffff1673ffffffffffffffffffffffffffffffffffffffff163373ffffffffffffffffffffffffffffffffffffffff1614610c8a576040517f08c379a00000000000000000000000000000000000000000000000000000000081526004018080602001828103825260158152602001807f4d75737420626520746865206f70657261746f722e000000000000000000000081525060200191505060405180910390fd5b600360149054906101000a900460ff1615610cf0576040517f08c379a0000000000000000000000000000000000000000000000000000000008152600401808060200182810382526031815260200180612ceb6031913960400191505060405180910390fd5b6001600360146101000a81548160ff02191690831515021790555080600360006101000a81548173ffffffffffffffffffffffffffffffffffffffff021916908373ffffffffffffffffffffffffffffffffffffffff1602179055507f6efb0434342713e2e9b1501dbebf76b4ed18406ea77ab5d56535cc26dec3adc0600360009054906101000a900473ffffffffffffffffffffffffffffffffffffffff16604051808273ffffffffffffffffffffffffffffffffffffffff1673ffffffffffffffffffffffffffffffffffffffff16815260200191505060405180910390a150565b600360009054906101000a900473ffffffffffffffffffffffffffffffffffffffff1681565b600260009054906101000a900473ffffffffffffffffffffffffffffffffffffffff1681565b600160009054906101000a900473ffffffffffffffffffffffffffffffffffffffff1673ffffffffffffffffffffffffffffffffffffffff163373ffffffffffffffffffffffffffffffffffffffff1614610ee3576040517f08c379a00000000000000000000000000000000000000000000000000000000081526004018080602001828103825260158152602001807f4d75737420626520746865206f70657261746f722e000000000000000000000081525060200191505060405180910390fd5b600460149054906101000a900460ff1615610f49576040517f08c379a0000000000000000000000000000000000000000000000000000000008152600401808060200182810382526036815260200180612cb56036913960400191505060405180910390fd5b6001600460146101000a81548160ff02191690831515021790555080600460006101000a81548173ffffffffffffffffffffffffffffffffffffffff021916908373ffffffffffffffffffffffffffffffffffffffff1602179055507fc8b65043fb196ac032b79a435397d1d14a96b4e9d12e366c3b1f550cb01d2dfa600460009054906101000a900473ffffffffffffffffffffffffffffffffffffffff16604051808273ffffffffffffffffffffffffffffffffffffffff1673ffffffffffffffffffffffffffffffffffffffff16815260200191505060405180910390a150565b60055481565b60011515600360149054906101000a900460ff161515148015611069575060011515600460149054906101000a900460ff161515145b6110be576040517f08c379a0000000000000000000000000000000000000000000000000000000008152600401808060200182810382526046815260200180612c6f6046913960600191505060405180910390fd5b600260009054906101000a900473ffffffffffffffffffffffffffffffffffffffff1673ffffffffffffffffffffffffffffffffffffffff166340550a1c336040518263ffffffff1660e01b8152600401808273ffffffffffffffffffffffffffffffffffffffff1673ffffffffffffffffffffffffffffffffffffffff16815260200191505060206040518083038186803b15801561115d57600080fd5b505afa158015611171573d6000803e3d6000fd5b505050506040513d602081101561118757600080fd5b810190808051906020019092919050505061120a576040517f08c379a000000000000000000000000000000000000000000000000000000000815260040180806020018281038252601b8152602001807f4d75737420626520616e206163746976652076616c696461746f72000000000081525060200191505060405180910390fd5b600060606001600281111561121b57fe5b87600281111561122757fe5b141561181557839050600460009054906101000a900473ffffffffffffffffffffffffffffffffffffffff1673ffffffffffffffffffffffffffffffffffffffff16630a1f9b66826040518263ffffffff1660e01b81526004018080602001828103825283818151815260200191508051906020019080838360005b838110156112be5780820151818401526020810190506112a3565b50505050905090810190601f1680156112eb5780820380516001836020036101000a031916815260200191505b509250505060206040518083038186803b15801561130857600080fd5b505afa15801561131c573d6000803e3d6000fd5b505050506040513d602081101561133257600080fd5b81019080805190602001909291905050509150600073ffffffffffffffffffffffffffffffffffffffff168273ffffffffffffffffffffffffffffffffffffffff16148015611438575060405160200180807f4554480000000000000000000000000000000000000000000000000000000000815250600301905060405160208183030381529060405280519060200120816040516020018082805190602001908083835b602083106113fa57805182526020820191506020810190506020830392506113d7565b6001836020036101000a0380198251168184511680821785525050505050509050019150506040516020818303038152906040528051906020012014155b156116a457600460009054906101000a900473ffffffffffffffffffffffffffffffffffffffff1673ffffffffffffffffffffffffffffffffffffffff1663ebb73ca9826040518263ffffffff1660e01b81526004018080602001828103825283818151815260200191508051906020019080838360005b838110156114cb5780820151818401526020810190506114b0565b50505050905090810190601f1680156114f85780820380516001836020036101000a031916815260200191505b509250505060206040518083038186803b15801561151557600080fd5b505afa158015611529573d6000803e3d6000fd5b505050506040513d602081101561153f57600080fd5b81019080805190602001909291905050509150600073ffffffffffffffffffffffffffffffffffffffff168273ffffffffffffffffffffffffffffffffffffffff16141561169f57600460009054906101000a900473ffffffffffffffffffffffffffffffffffffffff1673ffffffffffffffffffffffffffffffffffffffff166350b06e4d826040518263ffffffff1660e01b81526004018080602001828103825283818151815260200191508051906020019080838360005b838110156116155780820151818401526020810190506115fa565b50505050905090810190601f1680156116425780820380516001836020036101000a031916815260200191505b5092505050602060405180830381600087803b15801561166157600080fd5b505af1158015611675573d6000803e3d6000fd5b505050506040513d602081101561168b57600080fd5b810190808051906020019092919050505091505b611810565b82600460009054906101000a900473ffffffffffffffffffffffffffffffffffffffff1673ffffffffffffffffffffffffffffffffffffffff16635acba655866040518263ffffffff1660e01b81526004018080602001828103825283818151815260200191508051906020019080838360005b83811015611733578082015181840152602081019050611718565b50505050905090810190601f1680156117605780820380516001836020036101000a031916815260200191505b509250505060206040518083038186803b15801561177d57600080fd5b505afa158015611791573d6000803e3d6000fd5b505050506040513d60208110156117a757600080fd5b8101908080519060200190929190505050101561180f576040517f08c379a000000000000000000000000000000000000000000000000000000000815260040180806020018281038252603a815260200180612d51603a913960400191505060405180910390fd5b5b611afa565b60028081111561182157fe5b87600281111561182d57fe5b1415611aa8578390506000600460009054906101000a900473ffffffffffffffffffffffffffffffffffffffff1673ffffffffffffffffffffffffffffffffffffffff1663ebb73ca9836040518263ffffffff1660e01b81526004018080602001828103825283818151815260200191508051906020019080838360005b838110156118c65780820151818401526020810190506118ab565b50505050905090810190601f1680156118f35780820380516001836020036101000a031916815260200191505b509250505060206040518083038186803b15801561191057600080fd5b505afa158015611924573d6000803e3d6000fd5b505050506040513d602081101561193a57600080fd5b81019080805190602001909291905050509050600073ffffffffffffffffffffffffffffffffffffffff168173ffffffffffffffffffffffffffffffffffffffff161415611a9e57600460009054906101000a900473ffffffffffffffffffffffffffffffffffffffff1673ffffffffffffffffffffffffffffffffffffffff166350b06e4d836040518263ffffffff1660e01b81526004018080602001828103825283818151815260200191508051906020019080838360005b83811015611a105780820151818401526020810190506119f5565b50505050905090810190601f168015611a3d5780820380516001836020036101000a031916815260200191505b5092505050602060405180830381600087803b158015611a5c57600080fd5b505af1158015611a70573d6000803e3d6000fd5b505050506040513d6020811015611a8657600080fd5b81019080805190602001909291905050509250611aa2565b8092505b50611af9565b6040517f08c379a0000000000000000000000000000000000000000000000000000000008152600401808060200182810382526035815260200180612d1c6035913960400191505060405180910390fd5b5b611b02612aac565b604051806101000160405280896002811115611b1a57fe5b81526020018881526020018773ffffffffffffffffffffffffffffffffffffffff1681526020013373ffffffffffffffffffffffffffffffffffffffff1681526020018473ffffffffffffffffffffffffffffffffffffffff16815260200183815260200185815260200160016003811115611b9257fe5b8152509050611bad6001600554612a2490919063ffffffff16565b6005819055508060066000600554815260200190815260200160002060008201518160000160006101000a81548160ff02191690836002811115611bed57fe5b02179055506020820151816001019080519060200190611c0e929190612b49565b5060408201518160020160006101000a81548173ffffffffffffffffffffffffffffffffffffffff021916908373ffffffffffffffffffffffffffffffffffffffff16021790555060608201518160030160006101000a81548173ffffffffffffffffffffffffffffffffffffffff021916908373ffffffffffffffffffffffffffffffffffffffff16021790555060808201518160040160006101000a81548173ffffffffffffffffffffffffffffffffffffffff021916908373ffffffffffffffffffffffffffffffffffffffff16021790555060a0820151816005019080519060200190611d00929190612bc9565b5060c0820151816006015560e08201518160070160006101000a81548160ff02191690836003811115611d2f57fe5b02179055509050507f4c4b04a2b190e6bb01b6243f150fc76174861acd19cf98841801baaff5262dd86005548989893388888b60405180898152602001886002811115611d7857fe5b60ff168152602001806020018773ffffffffffffffffffffffffffffffffffffffff1673ffffffffffffffffffffffffffffffffffffffff1681526020018673ffffffffffffffffffffffffffffffffffffffff1673ffffffffffffffffffffffffffffffffffffffff1681526020018573ffffffffffffffffffffffffffffffffffffffff1673ffffffffffffffffffffffffffffffffffffffff16815260200180602001848152602001838103835289818151815260200191508051906020019080838360005b83811015611e5c578082015181840152602081019050611e41565b50505050905090810190601f168015611e895780820380516001836020036101000a031916815260200191505b50838103825285818151815260200191508051906020019080838360005b83811015611ec2578082015181840152602081019050611ea7565b50505050905090810190601f168015611eef5780820380516001836020036101000a031916815260200191505b509a505050505050505050505060405180910390a15050505050505050565b600060016003811115611f1d57fe5b6006600084815260200190815260200160002060070160009054906101000a900460ff166003811115611f4c57fe5b149050919050565b60066020528060005260406000206000915090508060000160009054906101000a900460ff1690806001018054600181600116156101000203166002900480601f0160208091040260200160405190810160405280929190818152602001828054600181600116156101000203166002900480156120135780601f10611fe857610100808354040283529160200191612013565b820191906000526020600020905b815481529060010190602001808311611ff657829003601f168201915b5050505050908060020160009054906101000a900473ffffffffffffffffffffffffffffffffffffffff16908060030160009054906101000a900473ffffffffffffffffffffffffffffffffffffffff16908060040160009054906101000a900473ffffffffffffffffffffffffffffffffffffffff1690806005018054600181600116156101000203166002900480601f0160208091040260200160405190810160405280929190818152602001828054600181600116156101000203166002900480156121235780601f106120f857610100808354040283529160200191612123565b820191906000526020600020905b81548152906001019060200180831161210657829003601f168201915b5050505050908060060154908060070160009054906101000a900460ff16905088565b600360149054906101000a900460ff1681565b612161612aac565b60066000838152602001908152602001600020604051806101000160405290816000820160009054906101000a900460ff16600281111561219e57fe5b60028111156121a957fe5b8152602001600182018054600181600116156101000203166002900480601f0160208091040260200160405190810160405280929190818152602001828054600181600116156101000203166002900480156122465780601f1061221b57610100808354040283529160200191612246565b820191906000526020600020905b81548152906001019060200180831161222957829003601f168201915b505050505081526020016002820160009054906101000a900473ffffffffffffffffffffffffffffffffffffffff1673ffffffffffffffffffffffffffffffffffffffff1673ffffffffffffffffffffffffffffffffffffffff1681526020016003820160009054906101000a900473ffffffffffffffffffffffffffffffffffffffff1673ffffffffffffffffffffffffffffffffffffffff1673ffffffffffffffffffffffffffffffffffffffff1681526020016004820160009054906101000a900473ffffffffffffffffffffffffffffffffffffffff1673ffffffffffffffffffffffffffffffffffffffff1673ffffffffffffffffffffffffffffffffffffffff168152602001600582018054600181600116156101000203166002900480601f0160208091040260200160405190810160405280929190818152602001828054600181600116156101000203166002900480156123ea5780601f106123bf576101008083540402835291602001916123ea565b820191906000526020600020905b8154815290600101906020018083116123cd57829003601f168201915b50505050508152602001600682015481526020016007820160009054906101000a900460ff16600381111561241b57fe5b600381111561242657fe5b815250509050600460009054906101000a900473ffffffffffffffffffffffffffffffffffffffff1673ffffffffffffffffffffffffffffffffffffffff1663e05988a482604001518360a001518460c001516040518463ffffffff1660e01b8152600401808473ffffffffffffffffffffffffffffffffffffffff1673ffffffffffffffffffffffffffffffffffffffff16815260200180602001838152602001828103825284818151815260200191508051906020019080838360005b838110156125005780820151818401526020810190506124e5565b50505050905090810190601f16801561252d5780820380516001836020036101000a031916815260200191505b50945050505050600060405180830381600087803b15801561254e57600080fd5b505af1158015612562573d6000803e3d6000fd5b505050505050565b612572612aac565b60066000838152602001908152602001600020604051806101000160405290816000820160009054906101000a900460ff1660028111156125af57fe5b60028111156125ba57fe5b8152602001600182018054600181600116156101000203166002900480601f0160208091040260200160405190810160405280929190818152602001828054600181600116156101000203166002900480156126575780601f1061262c57610100808354040283529160200191612657565b820191906000526020600020905b81548152906001019060200180831161263a57829003601f168201915b505050505081526020016002820160009054906101000a900473ffffffffffffffffffffffffffffffffffffffff1673ffffffffffffffffffffffffffffffffffffffff1673ffffffffffffffffffffffffffffffffffffffff1681526020016003820160009054906101000a900473ffffffffffffffffffffffffffffffffffffffff1673ffffffffffffffffffffffffffffffffffffffff1673ffffffffffffffffffffffffffffffffffffffff1681526020016004820160009054906101000a900473ffffffffffffffffffffffffffffffffffffffff1673ffffffffffffffffffffffffffffffffffffffff1673ffffffffffffffffffffffffffffffffffffffff168152602001600582018054600181600116156101000203166002900480601f0160208091040260200160405190810160405280929190818152602001828054600181600116156101000203166002900480156127fb5780601f106127d0576101008083540402835291602001916127fb565b820191906000526020600020905b8154815290600101906020018083116127de57829003601f168201915b50505050508152602001600682015481526020016007820160009054906101000a900460ff16600381111561282c57fe5b600381111561283757fe5b815250509050600460009054906101000a900473ffffffffffffffffffffffffffffffffffffffff1673ffffffffffffffffffffffffffffffffffffffff1663cdf68c418260200151836040015184608001518560a001518660c001516040518663ffffffff1660e01b815260040180806020018673ffffffffffffffffffffffffffffffffffffffff1673ffffffffffffffffffffffffffffffffffffffff1681526020018573ffffffffffffffffffffffffffffffffffffffff1673ffffffffffffffffffffffffffffffffffffffff16815260200180602001848152602001838103835288818151815260200191508051906020019080838360005b83811015612951578082015181840152602081019050612936565b50505050905090810190601f16801561297e5780820380516001836020036101000a031916815260200191505b50838103825285818151815260200191508051906020019080838360005b838110156129b757808201518184015260208101905061299c565b50505050905090810190601f1680156129e45780820380516001836020036101000a031916815260200191505b50975050505050505050600060405180830381600087803b158015612a0857600080fd5b505af1158015612a1c573d6000803e3d6000fd5b505050505050565b600080828401905083811015612aa2576040517f08c379a000000000000000000000000000000000000000000000000000000000815260040180806020018281038252601b8152602001807f536166654d6174683a206164646974696f6e206f766572666c6f77000000000081525060200191505060405180910390fd5b8091505092915050565b60405180610100016040528060006002811115612ac557fe5b815260200160608152602001600073ffffffffffffffffffffffffffffffffffffffff168152602001600073ffffffffffffffffffffffffffffffffffffffff168152602001600073ffffffffffffffffffffffffffffffffffffffff168152602001606081526020016000815260200160006003811115612b4357fe5b81525090565b828054600181600116156101000203166002900490600052602060002090601f016020900481019282601f10612b8a57805160ff1916838001178555612bb8565b82800160010185558215612bb8579182015b82811115612bb7578251825591602001919060010190612b9c565b5b509050612bc59190612c49565b5090565b828054600181600116156101000203166002900490600052602060002090601f016020900481019282601f10612c0a57805160ff1916838001178555612c38565b82800160010185558215612c38579182015b82811115612c37578251825591602001919060010190612c1c565b5b509050612c459190612c49565b5090565b612c6b91905b80821115612c67576000816000905550600101612c4f565b5090565b9056fe546865204f70657261746f72206d7573742073657420746865206f7261636c6520616e64206272696467652062616e6b20666f72206272696467652061637469766174696f6e546865204272696467652042616e6b2063616e6e6f742062652075706461746564206f6e636520697420686173206265656e20736574546865204f7261636c652063616e6e6f742062652075706461746564206f6e636520697420686173206265656e20736574496e76616c696420636c61696d20747970652c206f6e6c79206275726e20616e64206c6f636b2061726520737570706f727465642e4e6f7420656e6f756768206c6f636b65642061737365747320746f20636f6d706c657465207468652070726f706f7365642070726f70686563794f6e6c7920746865204f7261636c65206d617920636f6d706c6574652070726f70686563696573a265627a7a72315820e549adbe3b0d9ccd3f5c7a278395a44abeca993e3724b826eac6c0ad889b502c64736f6c63430005100032",
  "source": "pragma solidity ^0.5.0;\n\nimport \"../../node_modules/openzeppelin-solidity/contracts/math/SafeMath.sol\";\nimport \"./Valset.sol\";\nimport \"./BridgeBank/BridgeBank.sol\";\n\n\ncontract CosmosBridge {\n    using SafeMath for uint256;\n\n    string COSMOS_NATIVE_ASSET_PREFIX = \"PEGGY\";\n\n    /*\n     * @dev: Public variable declarations\n     */\n    address public operator;\n    Valset public valset;\n    address public oracle;\n    bool public hasOracle;\n    BridgeBank public bridgeBank;\n    bool public hasBridgeBank;\n\n    uint256 public prophecyClaimCount;\n    mapping(uint256 => ProphecyClaim) public prophecyClaims;\n\n    enum Status {Null, Pending, Success, Failed}\n\n    enum ClaimType {Unsupported, Burn, Lock}\n\n    struct ProphecyClaim {\n        ClaimType claimType;\n        bytes cosmosSender;\n        address payable ethereumReceiver;\n        address originalValidator;\n        address tokenAddress;\n        string symbol;\n        uint256 amount;\n        Status status;\n    }\n\n    /*\n     * @dev: Event declarations\n     */\n\n    event LogOracleSet(address _oracle);\n\n    event LogBridgeBankSet(address _bridgeBank);\n\n    event LogNewProphecyClaim(\n        uint256 _prophecyID,\n        ClaimType _claimType,\n        bytes _cosmosSender,\n        address payable _ethereumReceiver,\n        address _validatorAddress,\n        address _tokenAddress,\n        string _symbol,\n        uint256 _amount\n    );\n\n    event LogProphecyCompleted(uint256 _prophecyID, ClaimType _claimType);\n\n    /*\n     * @dev: Modifier which only allows access to currently pending prophecies\n     */\n    modifier isPending(uint256 _prophecyID) {\n        require(\n            isProphecyClaimActive(_prophecyID),\n            \"Prophecy claim is not active\"\n        );\n        _;\n    }\n\n    /*\n     * @dev: Modifier to restrict access to the operator.\n     */\n    modifier onlyOperator() {\n        require(msg.sender == operator, \"Must be the operator.\");\n        _;\n    }\n\n    /*\n     * @dev: The bridge is not active until oracle and bridge bank are set\n     */\n    modifier isActive() {\n        require(\n            hasOracle == true && hasBridgeBank == true,\n            \"The Operator must set the oracle and bridge bank for bridge activation\"\n        );\n        _;\n    }\n\n    /*\n     * @dev: Constructor\n     */\n    constructor(address _operator, address _valset) public {\n        prophecyClaimCount = 0;\n        operator = _operator;\n        valset = Valset(_valset);\n        hasOracle = false;\n        hasBridgeBank = false;\n    }\n\n    /*\n     * @dev: setOracle\n     */\n    function setOracle(address _oracle) public onlyOperator {\n        require(\n            !hasOracle,\n            \"The Oracle cannot be updated once it has been set\"\n        );\n\n        hasOracle = true;\n        oracle = _oracle;\n\n        emit LogOracleSet(oracle);\n    }\n\n    /*\n     * @dev: setBridgeBank\n     */\n    function setBridgeBank(address payable _bridgeBank) public onlyOperator {\n        require(\n            !hasBridgeBank,\n            \"The Bridge Bank cannot be updated once it has been set\"\n        );\n\n        hasBridgeBank = true;\n        bridgeBank = BridgeBank(_bridgeBank);\n\n        emit LogBridgeBankSet(address(bridgeBank));\n    }\n\n    /*\n     * @dev: newProphecyClaim\n     *       Creates a new burn or lock prophecy claim, adding it to the prophecyClaims mapping.\n     *       Burn claims require that there are enough locked Ethereum assets to complete the prophecy.\n     *       Lock claims have a new token contract deployed or use an existing contract based on symbol.\n     */\n    function newProphecyClaim(\n        ClaimType _claimType,\n        bytes memory _cosmosSender,\n        address payable _ethereumReceiver,\n        string memory _symbol,\n        uint256 _amount\n    ) public isActive {\n        require(\n            valset.isActiveValidator(msg.sender),\n            \"Must be an active validator\"\n        );\n\n        address tokenAddress;\n        string memory symbol;\n        if (_claimType == ClaimType.Burn) {\n            symbol = _symbol;\n            tokenAddress = bridgeBank.getLockedTokenAddress(symbol);\n            if(tokenAddress == address(0) && keccak256(abi.encodePacked((symbol))) != keccak256(abi.encodePacked((\"ETH\")))){\n                tokenAddress = bridgeBank.getBridgeToken(symbol);\n                if(tokenAddress == address(0)){\n                    tokenAddress = bridgeBank.createNewBridgeToken(symbol);\n                }\n            } else {\n                require(\n                    bridgeBank.getLockedFunds(_symbol) >= _amount,\n                    \"Not enough locked assets to complete the proposed prophecy\"\n                );\n            }\n        } else if (_claimType == ClaimType.Lock) {\n            // symbol = concat(COSMOS_NATIVE_ASSET_PREFIX, _symbol); // Add 'PEGGY' symbol prefix\n            symbol = _symbol;\n            address bridgeTokenAddress = bridgeBank.getBridgeToken(symbol);\n            if (bridgeTokenAddress == address(0)) {\n                // First lock of this asset, deploy new contract and get new symbol/token address\n                tokenAddress = bridgeBank.createNewBridgeToken(symbol);\n            } else {\n                // Not the first lock of this asset, get existing symbol/token address\n                tokenAddress = bridgeTokenAddress;\n            }\n        } else {\n            revert(\"Invalid claim type, only burn and lock are supported.\");\n        }\n\n        // Create the new ProphecyClaim\n        ProphecyClaim memory prophecyClaim = ProphecyClaim(\n            _claimType,\n            _cosmosSender,\n            _ethereumReceiver,\n            msg.sender,\n            tokenAddress,\n            symbol,\n            _amount,\n            Status.Pending\n        );\n\n        // Increment count and add the new ProphecyClaim to the mapping\n        prophecyClaimCount = prophecyClaimCount.add(1);\n        prophecyClaims[prophecyClaimCount] = prophecyClaim;\n\n        emit LogNewProphecyClaim(\n            prophecyClaimCount,\n            _claimType,\n            _cosmosSender,\n            _ethereumReceiver,\n            msg.sender,\n            tokenAddress,\n            symbol,\n            _amount\n        );\n    }\n\n    /*\n     * @dev: completeProphecyClaim\n     *       Allows for the completion of ProphecyClaims once processed by the Oracle.\n     *       Burn claims unlock tokens stored by BridgeBank.\n     *       Lock claims mint BridgeTokens on BridgeBank's token whitelist.\n     */\n    function completeProphecyClaim(uint256 _prophecyID)\n        public\n        isPending(_prophecyID)\n    {\n        require(\n            msg.sender == oracle,\n            \"Only the Oracle may complete prophecies\"\n        );\n\n        prophecyClaims[_prophecyID].status = Status.Success;\n\n        ClaimType claimType = prophecyClaims[_prophecyID].claimType;\n\n        if (claimType == ClaimType.Burn) {\n            if (!bridgeBank.checkIsCosmosAsset(prophecyClaims[_prophecyID].tokenAddress)){\n                unlockTokens(_prophecyID);\n            }else {\n                issueBridgeTokens(_prophecyID);\n            }\n        } else {\n            issueBridgeTokens(_prophecyID);\n        }\n\n        emit LogProphecyCompleted(_prophecyID, claimType);\n    }\n\n    /*\n     * @dev: issueBridgeTokens\n     *       Issues a request for the BridgeBank to mint new BridgeTokens\n     */\n    function issueBridgeTokens(uint256 _prophecyID) internal {\n        ProphecyClaim memory prophecyClaim = prophecyClaims[_prophecyID];\n\n        bridgeBank.mintBridgeTokens(\n            prophecyClaim.cosmosSender,\n            prophecyClaim.ethereumReceiver,\n            prophecyClaim.tokenAddress,\n            prophecyClaim.symbol,\n            prophecyClaim.amount\n        );\n    }\n\n    /*\n     * @dev: unlockTokens\n     *       Issues a request for the BridgeBank to unlock funds held on contract\n     */\n    function unlockTokens(uint256 _prophecyID) internal {\n        ProphecyClaim memory prophecyClaim = prophecyClaims[_prophecyID];\n\n        bridgeBank.unlock(\n            prophecyClaim.ethereumReceiver,\n            prophecyClaim.symbol,\n            prophecyClaim.amount\n        );\n    }\n\n    /*\n     * @dev: isProphecyClaimActive\n     *       Returns boolean indicating if the ProphecyClaim is active\n     */\n    function isProphecyClaimActive(uint256 _prophecyID)\n        public\n        view\n        returns (bool)\n    {\n        return prophecyClaims[_prophecyID].status == Status.Pending;\n    }\n\n    /*\n     * @dev: isProphecyValidatorActive\n     *       Returns boolean indicating if the validator that originally\n     *       submitted the ProphecyClaim is still an active validator\n     */\n    function isProphecyClaimValidatorActive(uint256 _prophecyID)\n        public\n        view\n        returns (bool)\n    {\n        return\n            valset.isActiveValidator(\n                prophecyClaims[_prophecyID].originalValidator\n            );\n    }\n\n    /*\n     * @dev: Performs low gas-comsuption string concatenation\n     *\n     * @param _prefix: start of the string\n     * @param _suffix: end of the string\n     */\n    function concat(string memory _prefix, string memory _suffix)\n        internal\n        pure\n        returns (string memory)\n    {\n        return string(abi.encodePacked(_prefix, _suffix));\n    }\n}\n",
  "sourcePath": "/Users/chientm/go/src/github.com/cosmos/peggy/testnet-contracts/contracts/CosmosBridge.sol",
  "compiler": {
    "name": "solc",
    "version": "0.5.16+commit.9c3226ce.Emscripten.clang"
  },
  "schemaVersion": "3.1.0",
  "updatedAt": "2020-10-22T08:10:08.391Z",
  "networkType": "ethereum",
  "devdoc": {
    "methods": {}
  },
  "userdoc": {
    "methods": {}
  }
}