{
  "contractName": "CosmosBank",
  "abi": [
    {
      "inputs": [],
      "payable": false,
      "stateMutability": "nonpayable",
      "type": "constructor"
    },
    {
      "anonymous": false,
      "inputs": [
        {
          "indexed": false,
          "internalType": "address",
          "name": "_token",
          "type": "address"
        },
        {
          "indexed": false,
          "internalType": "string",
          "name": "_symbol",
          "type": "string"
        },
        {
          "indexed": false,
          "internalType": "uint256",
          "name": "_amount",
          "type": "uint256"
        },
        {
          "indexed": false,
          "internalType": "address",
          "name": "_beneficiary",
          "type": "address"
        }
      ],
      "name": "LogBridgeTokenMint",
      "type": "event"
    },
    {
      "anonymous": false,
      "inputs": [
        {
          "indexed": false,
          "internalType": "address",
          "name": "_token",
          "type": "address"
        },
        {
          "indexed": false,
          "internalType": "string",
          "name": "_symbol",
          "type": "string"
        }
      ],
      "name": "LogNewBridgeToken",
      "type": "event"
    },
    {
      "constant": true,
      "inputs": [],
      "name": "bridgeTokenCount",
      "outputs": [
        {
          "internalType": "uint256",
          "name": "",
          "type": "uint256"
        }
      ],
      "payable": false,
      "stateMutability": "view",
      "type": "function"
    },
    {
      "constant": true,
      "inputs": [
        {
          "internalType": "string",
          "name": "",
          "type": "string"
        }
      ],
      "name": "controlledBridgeTokens",
      "outputs": [
        {
          "internalType": "address",
          "name": "",
          "type": "address"
        }
      ],
      "payable": false,
      "stateMutability": "view",
      "type": "function"
    },
    {
      "constant": true,
      "inputs": [
        {
          "internalType": "bytes32",
          "name": "",
          "type": "bytes32"
        }
      ],
      "name": "cosmosDeposits",
      "outputs": [
        {
          "internalType": "bytes",
          "name": "cosmosSender",
          "type": "bytes"
        },
        {
          "internalType": "address payable",
          "name": "ethereumRecipient",
          "type": "address"
        },
        {
          "internalType": "address",
          "name": "bridgeTokenAddress",
          "type": "address"
        },
        {
          "internalType": "uint256",
          "name": "amount",
          "type": "uint256"
        },
        {
          "internalType": "bool",
          "name": "locked",
          "type": "bool"
        }
      ],
      "payable": false,
      "stateMutability": "view",
      "type": "function"
    },
    {
      "constant": true,
      "inputs": [
        {
          "internalType": "string",
          "name": "_symbol",
          "type": "string"
        }
      ],
      "name": "getBridgeToken",
      "outputs": [
        {
          "internalType": "address",
          "name": "",
          "type": "address"
        }
      ],
      "payable": false,
      "stateMutability": "view",
      "type": "function"
    }
  ],
  "bytecode": "0x608060405234801561001057600080fd5b50600080819055506105b6806100276000396000f3fe608060405234801561001057600080fd5b506004361061004c5760003560e01c806312e4939014610051578063328470ab14610170578063884d58d41461018e578063ebb73ca914610289575b600080fd5b61007d6004803603602081101561006757600080fd5b8101908080359060200190929190505050610384565b60405180806020018673ffffffffffffffffffffffffffffffffffffffff1673ffffffffffffffffffffffffffffffffffffffff1681526020018573ffffffffffffffffffffffffffffffffffffffff1673ffffffffffffffffffffffffffffffffffffffff16815260200184815260200183151515158152602001828103825287818151815260200191508051906020019080838360005b83811015610131578082015181840152602081019050610116565b50505050905090810190601f16801561015e5780820380516001836020036101000a031916815260200191505b50965050505050505060405180910390f35b61017861049f565b6040518082815260200191505060405180910390f35b610247600480360360208110156101a457600080fd5b81019080803590602001906401000000008111156101c157600080fd5b8201836020820111156101d357600080fd5b803590602001918460018302840111640100000000831117156101f557600080fd5b91908080601f016020809104026020016040519081016040528093929190818152602001838380828437600081840152601f19601f8201169050808301925050505050505091929192905050506104a5565b604051808273ffffffffffffffffffffffffffffffffffffffff1673ffffffffffffffffffffffffffffffffffffffff16815260200191505060405180910390f35b6103426004803603602081101561029f57600080fd5b81019080803590602001906401000000008111156102bc57600080fd5b8201836020820111156102ce57600080fd5b803590602001918460018302840111640100000000831117156102f057600080fd5b91908080601f016020809104026020016040519081016040528093929190818152602001838380828437600081840152601f19601f8201169050808301925050505050505091929192905050506104ee565b604051808273ffffffffffffffffffffffffffffffffffffffff1673ffffffffffffffffffffffffffffffffffffffff16815260200191505060405180910390f35b6002602052806000526040600020600091509050806000018054600181600116156101000203166002900480601f0160208091040260200160405190810160405280929190818152602001828054600181600116156101000203166002900480156104305780601f1061040557610100808354040283529160200191610430565b820191906000526020600020905b81548152906001019060200180831161041357829003601f168201915b5050505050908060010160009054906101000a900473ffffffffffffffffffffffffffffffffffffffff16908060020160009054906101000a900473ffffffffffffffffffffffffffffffffffffffff16908060030154908060040160009054906101000a900460ff16905085565b60005481565b6001818051602081018201805184825260208301602085012081835280955050505050506000915054906101000a900473ffffffffffffffffffffffffffffffffffffffff1681565b60006001826040518082805190602001908083835b602083106105265780518252602082019150602081019050602083039250610503565b6001836020036101000a038019825116818451168082178552505050505050905001915050908152602001604051809103902060009054906101000a900473ffffffffffffffffffffffffffffffffffffffff16905091905056fea265627a7a7231582095bbe4b171cb9ed305b336d7e740fe9461df668d43dca9f9cdd11207559c03be64736f6c63430005100032",
  "source": "pragma solidity ^0.5.0;\n\nimport \"../../../node_modules/openzeppelin-solidity/contracts/math/SafeMath.sol\";\nimport \"./BridgeToken.sol\";\n\n/**\n * @title CosmosBank\n * @dev Manages the deployment and minting of ERC20 compatible BridgeTokens\n *      which represent assets based on the Cosmos blockchain.\n **/\n\ncontract CosmosBank {\n    using SafeMath for uint256;\n\n    uint256 public bridgeTokenCount;\n    mapping(string => address) public controlledBridgeTokens;\n    mapping(bytes32 => CosmosDeposit) public cosmosDeposits;\n\n    struct CosmosDeposit {\n        bytes cosmosSender;\n        address payable ethereumRecipient;\n        address bridgeTokenAddress;\n        uint256 amount;\n        bool locked;\n    }\n\n    /*\n     * @dev: Event declarations\n     */\n    event LogNewBridgeToken(address _token, string _symbol);\n\n    event LogBridgeTokenMint(\n        address _token,\n        string _symbol,\n        uint256 _amount,\n        address _beneficiary\n    );\n\n    /*\n     * @dev: Constructor, sets bridgeTokenCount\n     */\n    constructor() public {\n        bridgeTokenCount = 0;\n    }\n\n    /*\n     * @dev: Get a token symbol's corresponding bridge token address.\n     *\n     * @param _symbol: The token's symbol/denom without 'PEGGY' prefix.\n     * @return: Address associated with the given symbol. Returns address(0) if none is found.\n     */\n    function getBridgeToken(string memory _symbol)\n        public\n        view\n        returns (address)\n    {\n        return (controlledBridgeTokens[_symbol]);\n    }\n\n    /*\n     * @dev: Creates a new CosmosDeposit with a unique ID\n     *\n     * @param _cosmosSender: The sender's Cosmos address in bytes.\n     * @param _ethereumRecipient: The intended recipient's Ethereum address.\n     * @param _token: The currency type\n     * @param _amount: The amount in the deposit.\n     * @return: The newly created CosmosDeposit's unique id.\n     */\n    function newCosmosDeposit(\n        bytes memory _cosmosSender,\n        address payable _ethereumRecipient,\n        address _token,\n        uint256 _amount\n    ) internal returns (bytes32) {\n        bytes32 depositID = keccak256(\n            abi.encodePacked(_cosmosSender, _ethereumRecipient, _token, _amount)\n        );\n\n        cosmosDeposits[depositID] = CosmosDeposit(\n            _cosmosSender,\n            _ethereumRecipient,\n            _token,\n            _amount,\n            true\n        );\n\n        return depositID;\n    }\n\n    /*\n     * @dev: Deploys a new BridgeToken contract\n     *\n     * @param _symbol: The BridgeToken's symbol\n     */\n    function deployNewBridgeToken(string memory _symbol)\n        internal\n        returns (address)\n    {\n        bridgeTokenCount = bridgeTokenCount.add(1);\n\n        // Deploy new bridge token contract\n        BridgeToken newBridgeToken = (new BridgeToken)(_symbol);\n\n        // Set address in tokens mapping\n        address newBridgeTokenAddress = address(newBridgeToken);\n        controlledBridgeTokens[_symbol] = newBridgeTokenAddress;\n\n        emit LogNewBridgeToken(newBridgeTokenAddress, _symbol);\n        return newBridgeTokenAddress;\n    }\n\n    /*\n     * @dev: Mints new cosmos tokens\n     *\n     * @param _cosmosSender: The sender's Cosmos address in bytes.\n     * @param _ethereumRecipient: The intended recipient's Ethereum address.\n     * @param _cosmosTokenAddress: The currency type\n     * @param _symbol: comsos token symbol\n     * @param _amount: number of comsos tokens to be minted\n     */\n    function mintNewBridgeTokens(\n        bytes memory _cosmosSender,\n        address payable _intendedRecipient,\n        address _bridgeTokenAddress,\n        string memory _symbol,\n        uint256 _amount\n    ) internal {\n        require(\n            controlledBridgeTokens[_symbol] == _bridgeTokenAddress,\n            \"Token must be a controlled bridge token\"\n        );\n\n        // Mint bridge tokens\n        require(\n            BridgeToken(_bridgeTokenAddress).mint(\n                _intendedRecipient,\n                _amount\n            ),\n            \"Attempted mint of bridge tokens failed\"\n        );\n\n        newCosmosDeposit(\n            _cosmosSender,\n            _intendedRecipient,\n            _bridgeTokenAddress,\n            _amount\n        );\n\n        emit LogBridgeTokenMint(\n            _bridgeTokenAddress,\n            _symbol,\n            _amount,\n            _intendedRecipient\n        );\n    }\n\n    /*\n     * @dev: Checks if an individual CosmosDeposit exists.\n     *\n     * @param _id: The unique CosmosDeposit's id.\n     * @return: Boolean indicating if the CosmosDeposit exists in memory.\n     */\n    function isLockedCosmosDeposit(bytes32 _id) internal view returns (bool) {\n        return (cosmosDeposits[_id].locked);\n    }\n\n    /*\n     * @dev: Gets an item's information\n     *\n     * @param _Id: The item containing the desired information.\n     * @return: Sender's address.\n     * @return: Recipient's address in bytes.\n     * @return: Token address.\n     * @return: Amount of ethereum/erc20 in the item.\n     * @return: Unique nonce of the item.\n     */\n    function getCosmosDeposit(bytes32 _id)\n        internal\n        view\n        returns (\n            bytes memory,\n            address payable,\n            address,\n            uint256\n        )\n    {\n        CosmosDeposit memory deposit = cosmosDeposits[_id];\n\n        return (\n            deposit.cosmosSender,\n            deposit.ethereumRecipient,\n            deposit.bridgeTokenAddress,\n            deposit.amount\n        );\n    }\n}\n",
  "sourcePath": "/home/trinh.van.tan/peggy/testnet-contracts/contracts/BridgeBank/CosmosBank.sol",
  "compiler": {
    "name": "solc",
    "version": "0.5.16+commit.9c3226ce.Emscripten.clang"
  },
  "schemaVersion": "3.1.0",
  "updatedAt": "2020-10-20T08:28:16.837Z",
  "devdoc": {
    "details": "Manages the deployment and minting of ERC20 compatible BridgeTokens     which represent assets based on the Cosmos blockchain.*",
    "methods": {},
    "title": "CosmosBank"
  },
  "userdoc": {
    "methods": {}
  }
}