{
  "contractName": "CosmosBridge",
  "abi": [
    {
      "inputs": [
        {
          "internalType": "address",
          "name": "_operator",
          "type": "address"
        },
        {
          "internalType": "address",
          "name": "_valset",
          "type": "address"
        }
      ],
      "payable": false,
      "stateMutability": "nonpayable",
      "type": "constructor"
    },
    {
      "anonymous": false,
      "inputs": [
        {
          "indexed": false,
          "internalType": "address",
          "name": "_bridgeBank",
          "type": "address"
        }
      ],
      "name": "LogBridgeBankSet",
      "type": "event"
    },
    {
      "anonymous": false,
      "inputs": [
        {
          "indexed": false,
          "internalType": "uint256",
          "name": "_prophecyID",
          "type": "uint256"
        },
        {
          "indexed": false,
          "internalType": "enum CosmosBridge.ClaimType",
          "name": "_claimType",
          "type": "uint8"
        },
        {
          "indexed": false,
          "internalType": "bytes",
          "name": "_cosmosSender",
          "type": "bytes"
        },
        {
          "indexed": false,
          "internalType": "address payable",
          "name": "_ethereumReceiver",
          "type": "address"
        },
        {
          "indexed": false,
          "internalType": "address",
          "name": "_validatorAddress",
          "type": "address"
        },
        {
          "indexed": false,
          "internalType": "address",
          "name": "_tokenAddress",
          "type": "address"
        },
        {
          "indexed": false,
          "internalType": "string",
          "name": "_symbol",
          "type": "string"
        },
        {
          "indexed": false,
          "internalType": "uint256",
          "name": "_amount",
          "type": "uint256"
        }
      ],
      "name": "LogNewProphecyClaim",
      "type": "event"
    },
    {
      "anonymous": false,
      "inputs": [
        {
          "indexed": false,
          "internalType": "address",
          "name": "_oracle",
          "type": "address"
        }
      ],
      "name": "LogOracleSet",
      "type": "event"
    },
    {
      "anonymous": false,
      "inputs": [
        {
          "indexed": false,
          "internalType": "uint256",
          "name": "_prophecyID",
          "type": "uint256"
        },
        {
          "indexed": false,
          "internalType": "enum CosmosBridge.ClaimType",
          "name": "_claimType",
          "type": "uint8"
        }
      ],
      "name": "LogProphecyCompleted",
      "type": "event"
    },
    {
      "constant": true,
      "inputs": [],
      "name": "bridgeBank",
      "outputs": [
        {
          "internalType": "contract BridgeBank",
          "name": "",
          "type": "address"
        }
      ],
      "payable": false,
      "stateMutability": "view",
      "type": "function"
    },
    {
      "constant": true,
      "inputs": [],
      "name": "hasBridgeBank",
      "outputs": [
        {
          "internalType": "bool",
          "name": "",
          "type": "bool"
        }
      ],
      "payable": false,
      "stateMutability": "view",
      "type": "function"
    },
    {
      "constant": true,
      "inputs": [],
      "name": "hasOracle",
      "outputs": [
        {
          "internalType": "bool",
          "name": "",
          "type": "bool"
        }
      ],
      "payable": false,
      "stateMutability": "view",
      "type": "function"
    },
    {
      "constant": true,
      "inputs": [],
      "name": "operator",
      "outputs": [
        {
          "internalType": "address",
          "name": "",
          "type": "address"
        }
      ],
      "payable": false,
      "stateMutability": "view",
      "type": "function"
    },
    {
      "constant": true,
      "inputs": [],
      "name": "oracle",
      "outputs": [
        {
          "internalType": "address",
          "name": "",
          "type": "address"
        }
      ],
      "payable": false,
      "stateMutability": "view",
      "type": "function"
    },
    {
      "constant": true,
      "inputs": [],
      "name": "prophecyClaimCount",
      "outputs": [
        {
          "internalType": "uint256",
          "name": "",
          "type": "uint256"
        }
      ],
      "payable": false,
      "stateMutability": "view",
      "type": "function"
    },
    {
      "constant": true,
      "inputs": [
        {
          "internalType": "uint256",
          "name": "",
          "type": "uint256"
        }
      ],
      "name": "prophecyClaims",
      "outputs": [
        {
          "internalType": "enum CosmosBridge.ClaimType",
          "name": "claimType",
          "type": "uint8"
        },
        {
          "internalType": "bytes",
          "name": "cosmosSender",
          "type": "bytes"
        },
        {
          "internalType": "address payable",
          "name": "ethereumReceiver",
          "type": "address"
        },
        {
          "internalType": "address",
          "name": "originalValidator",
          "type": "address"
        },
        {
          "internalType": "address",
          "name": "tokenAddress",
          "type": "address"
        },
        {
          "internalType": "string",
          "name": "symbol",
          "type": "string"
        },
        {
          "internalType": "uint256",
          "name": "amount",
          "type": "uint256"
        },
        {
          "internalType": "enum CosmosBridge.Status",
          "name": "status",
          "type": "uint8"
        }
      ],
      "payable": false,
      "stateMutability": "view",
      "type": "function"
    },
    {
      "constant": true,
      "inputs": [],
      "name": "valset",
      "outputs": [
        {
          "internalType": "contract Valset",
          "name": "",
          "type": "address"
        }
      ],
      "payable": false,
      "stateMutability": "view",
      "type": "function"
    },
    {
      "constant": false,
      "inputs": [
        {
          "internalType": "address",
          "name": "_oracle",
          "type": "address"
        }
      ],
      "name": "setOracle",
      "outputs": [],
      "payable": false,
      "stateMutability": "nonpayable",
      "type": "function"
    },
    {
      "constant": false,
      "inputs": [
        {
          "internalType": "address payable",
          "name": "_bridgeBank",
          "type": "address"
        }
      ],
      "name": "setBridgeBank",
      "outputs": [],
      "payable": false,
      "stateMutability": "nonpayable",
      "type": "function"
    },
    {
      "constant": false,
      "inputs": [
        {
          "internalType": "enum CosmosBridge.ClaimType",
          "name": "_claimType",
          "type": "uint8"
        },
        {
          "internalType": "bytes",
          "name": "_cosmosSender",
          "type": "bytes"
        },
        {
          "internalType": "address payable",
          "name": "_ethereumReceiver",
          "type": "address"
        },
        {
          "internalType": "string",
          "name": "_symbol",
          "type": "string"
        },
        {
          "internalType": "uint256",
          "name": "_amount",
          "type": "uint256"
        }
      ],
      "name": "newProphecyClaim",
      "outputs": [],
      "payable": false,
      "stateMutability": "nonpayable",
      "type": "function"
    },
    {
      "constant": false,
      "inputs": [
        {
          "internalType": "uint256",
          "name": "_prophecyID",
          "type": "uint256"
        }
      ],
      "name": "completeProphecyClaim",
      "outputs": [],
      "payable": false,
      "stateMutability": "nonpayable",
      "type": "function"
    },
    {
      "constant": true,
      "inputs": [
        {
          "internalType": "uint256",
          "name": "_prophecyID",
          "type": "uint256"
        }
      ],
      "name": "isProphecyClaimActive",
      "outputs": [
        {
          "internalType": "bool",
          "name": "",
          "type": "bool"
        }
      ],
      "payable": false,
      "stateMutability": "view",
      "type": "function"
    },
    {
      "constant": true,
      "inputs": [
        {
          "internalType": "uint256",
          "name": "_prophecyID",
          "type": "uint256"
        }
      ],
      "name": "isProphecyClaimValidatorActive",
      "outputs": [
        {
          "internalType": "bool",
          "name": "",
          "type": "bool"
        }
      ],
      "payable": false,
      "stateMutability": "view",
      "type": "function"
    }
  ],
  "bytecode": "0x60806040526040518060400160405280600581526020017f5045474759000000000000000000000000000000000000000000000000000000815250600090805190602001906200005192919062000168565b503480156200005f57600080fd5b5060405162002b8a38038062002b8a833981810160405260408110156200008557600080fd5b810190808051906020019092919080519060200190929190505050600060058190555081600160006101000a81548173ffffffffffffffffffffffffffffffffffffffff021916908373ffffffffffffffffffffffffffffffffffffffff16021790555080600260006101000a81548173ffffffffffffffffffffffffffffffffffffffff021916908373ffffffffffffffffffffffffffffffffffffffff1602179055506000600360146101000a81548160ff0219169083151502179055506000600460146101000a81548160ff021916908315150217905550505062000217565b828054600181600116156101000203166002900490600052602060002090601f016020900481019282601f10620001ab57805160ff1916838001178555620001dc565b82800160010185558215620001dc579182015b82811115620001db578251825591602001919060010190620001be565b5b509050620001eb9190620001ef565b5090565b6200021491905b8082111562000210576000816000905550600101620001f6565b5090565b90565b61296380620002276000396000f3fe608060405234801561001057600080fd5b50600436106100ea5760003560e01c80637f54af0c1161008c5780639d396d03116100665780639d396d0314610353578063d8da69ea146104dc578063db4237af14610522578063fb7831f2146106ff576100ea565b80637f54af0c146102a7578063814c92c3146102f15780638ea5352d14610335576100ea565b806369294a4e116100c857806369294a4e146101c95780636b3ce98c146101eb5780637adbf973146102195780637dc0d1d01461025d576100ea565b80630e41f373146100ef578063529f3dd214610139578063570ca7351461017f575b600080fd5b6100f7610721565b604051808273ffffffffffffffffffffffffffffffffffffffff1673ffffffffffffffffffffffffffffffffffffffff16815260200191505060405180910390f35b6101656004803603602081101561014f57600080fd5b8101908080359060200190929190505050610747565b604051808215151515815260200191505060405180910390f35b610187610860565b604051808273ffffffffffffffffffffffffffffffffffffffff1673ffffffffffffffffffffffffffffffffffffffff16815260200191505060405180910390f35b6101d1610886565b604051808215151515815260200191505060405180910390f35b6102176004803603602081101561020157600080fd5b8101908080359060200190929190505050610899565b005b61025b6004803603602081101561022f57600080fd5b81019080803573ffffffffffffffffffffffffffffffffffffffff169060200190929190505050610aa4565b005b610265610cb1565b604051808273ffffffffffffffffffffffffffffffffffffffff1673ffffffffffffffffffffffffffffffffffffffff16815260200191505060405180910390f35b6102af610cd7565b604051808273ffffffffffffffffffffffffffffffffffffffff1673ffffffffffffffffffffffffffffffffffffffff16815260200191505060405180910390f35b6103336004803603602081101561030757600080fd5b81019080803573ffffffffffffffffffffffffffffffffffffffff169060200190929190505050610cfd565b005b61033d610f0a565b6040518082815260200191505060405180910390f35b6104da600480360360a081101561036957600080fd5b81019080803560ff1690602001909291908035906020019064010000000081111561039357600080fd5b8201836020820111156103a557600080fd5b803590602001918460018302840111640100000000831117156103c757600080fd5b91908080601f016020809104026020016040519081016040528093929190818152602001838380828437600081840152601f19601f820116905080830192505050505050509192919290803573ffffffffffffffffffffffffffffffffffffffff1690602001909291908035906020019064010000000081111561044a57600080fd5b82018360208201111561045c57600080fd5b8035906020019184600183028401116401000000008311171561047e57600080fd5b91908080601f016020809104026020016040519081016040528093929190818152602001838380828437600081840152601f19601f82011690508083019250505050505050919291929080359060200190929190505050610f10565b005b610508600480360360208110156104f257600080fd5b8101908080359060200190929190505050611a8b565b604051808215151515815260200191505060405180910390f35b61054e6004803603602081101561053857600080fd5b8101908080359060200190929190505050611ad1565b6040518089600281111561055e57fe5b60ff168152602001806020018873ffffffffffffffffffffffffffffffffffffffff1673ffffffffffffffffffffffffffffffffffffffff1681526020018773ffffffffffffffffffffffffffffffffffffffff1673ffffffffffffffffffffffffffffffffffffffff1681526020018673ffffffffffffffffffffffffffffffffffffffff1673ffffffffffffffffffffffffffffffffffffffff1681526020018060200185815260200184600381111561061657fe5b60ff16815260200183810383528a818151815260200191508051906020019080838360005b8381101561065657808201518184015260208101905061063b565b50505050905090810190601f1680156106835780820380516001836020036101000a031916815260200191505b50838103825286818151815260200191508051906020019080838360005b838110156106bc5780820151818401526020810190506106a1565b50505050905090810190601f1680156106e95780820380516001836020036101000a031916815260200191505b509a505050505050505050505060405180910390f35b610707611cc3565b604051808215151515815260200191505060405180910390f35b600460009054906101000a900473ffffffffffffffffffffffffffffffffffffffff1681565b6000600260009054906101000a900473ffffffffffffffffffffffffffffffffffffffff1673ffffffffffffffffffffffffffffffffffffffff166340550a1c6006600085815260200190815260200160002060030160009054906101000a900473ffffffffffffffffffffffffffffffffffffffff166040518263ffffffff1660e01b8152600401808273ffffffffffffffffffffffffffffffffffffffff1673ffffffffffffffffffffffffffffffffffffffff16815260200191505060206040518083038186803b15801561081e57600080fd5b505afa158015610832573d6000803e3d6000fd5b505050506040513d602081101561084857600080fd5b81019080805190602001909291905050509050919050565b600160009054906101000a900473ffffffffffffffffffffffffffffffffffffffff1681565b600460149054906101000a900460ff1681565b806108a381611a8b565b610915576040517f08c379a000000000000000000000000000000000000000000000000000000000815260040180806020018281038252601c8152602001807f50726f706865637920636c61696d206973206e6f74206163746976650000000081525060200191505060405180910390fd5b600360009054906101000a900473ffffffffffffffffffffffffffffffffffffffff1673ffffffffffffffffffffffffffffffffffffffff163373ffffffffffffffffffffffffffffffffffffffff16146109bb576040517f08c379a00000000000000000000000000000000000000000000000000000000081526004018080602001828103825260278152602001806129086027913960400191505060405180910390fd5b60026006600084815260200190815260200160002060070160006101000a81548160ff021916908360038111156109ee57fe5b021790555060006006600084815260200190815260200160002060000160009054906101000a900460ff16905060016002811115610a2857fe5b816002811115610a3457fe5b1415610a4857610a4383611cd6565b610a52565b610a51836120e7565b5b7f79e7c1c0bd54f11809c3bf6023c242783602d61ceff272c6bba6f8559c24ad0d838260405180838152602001826002811115610a8b57fe5b60ff1681526020019250505060405180910390a1505050565b600160009054906101000a900473ffffffffffffffffffffffffffffffffffffffff1673ffffffffffffffffffffffffffffffffffffffff163373ffffffffffffffffffffffffffffffffffffffff1614610b67576040517f08c379a00000000000000000000000000000000000000000000000000000000081526004018080602001828103825260158152602001807f4d75737420626520746865206f70657261746f722e000000000000000000000081525060200191505060405180910390fd5b600360149054906101000a900460ff1615610bcd576040517f08c379a00000000000000000000000000000000000000000000000000000000081526004018080602001828103825260318152602001806128686031913960400191505060405180910390fd5b6001600360146101000a81548160ff02191690831515021790555080600360006101000a81548173ffffffffffffffffffffffffffffffffffffffff021916908373ffffffffffffffffffffffffffffffffffffffff1602179055507f6efb0434342713e2e9b1501dbebf76b4ed18406ea77ab5d56535cc26dec3adc0600360009054906101000a900473ffffffffffffffffffffffffffffffffffffffff16604051808273ffffffffffffffffffffffffffffffffffffffff1673ffffffffffffffffffffffffffffffffffffffff16815260200191505060405180910390a150565b600360009054906101000a900473ffffffffffffffffffffffffffffffffffffffff1681565b600260009054906101000a900473ffffffffffffffffffffffffffffffffffffffff1681565b600160009054906101000a900473ffffffffffffffffffffffffffffffffffffffff1673ffffffffffffffffffffffffffffffffffffffff163373ffffffffffffffffffffffffffffffffffffffff1614610dc0576040517f08c379a00000000000000000000000000000000000000000000000000000000081526004018080602001828103825260158152602001807f4d75737420626520746865206f70657261746f722e000000000000000000000081525060200191505060405180910390fd5b600460149054906101000a900460ff1615610e26576040517f08c379a00000000000000000000000000000000000000000000000000000000081526004018080602001828103825260368152602001806128326036913960400191505060405180910390fd5b6001600460146101000a81548160ff02191690831515021790555080600460006101000a81548173ffffffffffffffffffffffffffffffffffffffff021916908373ffffffffffffffffffffffffffffffffffffffff1602179055507fc8b65043fb196ac032b79a435397d1d14a96b4e9d12e366c3b1f550cb01d2dfa600460009054906101000a900473ffffffffffffffffffffffffffffffffffffffff16604051808273ffffffffffffffffffffffffffffffffffffffff1673ffffffffffffffffffffffffffffffffffffffff16815260200191505060405180910390a150565b60055481565b60011515600360149054906101000a900460ff161515148015610f46575060011515600460149054906101000a900460ff161515145b610f9b576040517f08c379a00000000000000000000000000000000000000000000000000000000081526004018080602001828103825260468152602001806127ec6046913960600191505060405180910390fd5b600260009054906101000a900473ffffffffffffffffffffffffffffffffffffffff1673ffffffffffffffffffffffffffffffffffffffff166340550a1c336040518263ffffffff1660e01b8152600401808273ffffffffffffffffffffffffffffffffffffffff1673ffffffffffffffffffffffffffffffffffffffff16815260200191505060206040518083038186803b15801561103a57600080fd5b505afa15801561104e573d6000803e3d6000fd5b505050506040513d602081101561106457600080fd5b81019080805190602001909291905050506110e7576040517f08c379a000000000000000000000000000000000000000000000000000000000815260040180806020018281038252601b8152602001807f4d75737420626520616e206163746976652076616c696461746f72000000000081525060200191505060405180910390fd5b60006060600160028111156110f857fe5b87600281111561110457fe5b14156113925782600460009054906101000a900473ffffffffffffffffffffffffffffffffffffffff1673ffffffffffffffffffffffffffffffffffffffff16635acba655866040518263ffffffff1660e01b81526004018080602001828103825283818151815260200191508051906020019080838360005b8381101561119957808201518184015260208101905061117e565b50505050905090810190601f1680156111c65780820380516001836020036101000a031916815260200191505b509250505060206040518083038186803b1580156111e357600080fd5b505afa1580156111f7573d6000803e3d6000fd5b505050506040513d602081101561120d57600080fd5b81019080805190602001909291905050501015611275576040517f08c379a000000000000000000000000000000000000000000000000000000000815260040180806020018281038252603a8152602001806128ce603a913960400191505060405180910390fd5b839050600460009054906101000a900473ffffffffffffffffffffffffffffffffffffffff1673ffffffffffffffffffffffffffffffffffffffff16630a1f9b66856040518263ffffffff1660e01b81526004018080602001828103825283818151815260200191508051906020019080838360005b838110156113065780820151818401526020810190506112eb565b50505050905090810190601f1680156113335780820380516001836020036101000a031916815260200191505b509250505060206040518083038186803b15801561135057600080fd5b505afa158015611364573d6000803e3d6000fd5b505050506040513d602081101561137a57600080fd5b81019080805190602001909291905050509150611677565b60028081111561139e57fe5b8760028111156113aa57fe5b1415611625578390506000600460009054906101000a900473ffffffffffffffffffffffffffffffffffffffff1673ffffffffffffffffffffffffffffffffffffffff1663ebb73ca9836040518263ffffffff1660e01b81526004018080602001828103825283818151815260200191508051906020019080838360005b83811015611443578082015181840152602081019050611428565b50505050905090810190601f1680156114705780820380516001836020036101000a031916815260200191505b509250505060206040518083038186803b15801561148d57600080fd5b505afa1580156114a1573d6000803e3d6000fd5b505050506040513d60208110156114b757600080fd5b81019080805190602001909291905050509050600073ffffffffffffffffffffffffffffffffffffffff168173ffffffffffffffffffffffffffffffffffffffff16141561161b57600460009054906101000a900473ffffffffffffffffffffffffffffffffffffffff1673ffffffffffffffffffffffffffffffffffffffff166350b06e4d836040518263ffffffff1660e01b81526004018080602001828103825283818151815260200191508051906020019080838360005b8381101561158d578082015181840152602081019050611572565b50505050905090810190601f1680156115ba5780820380516001836020036101000a031916815260200191505b5092505050602060405180830381600087803b1580156115d957600080fd5b505af11580156115ed573d6000803e3d6000fd5b505050506040513d602081101561160357600080fd5b8101908080519060200190929190505050925061161f565b8092505b50611676565b6040517f08c379a00000000000000000000000000000000000000000000000000000000081526004018080602001828103825260358152602001806128996035913960400191505060405180910390fd5b5b61167f612629565b60405180610100016040528089600281111561169757fe5b81526020018881526020018773ffffffffffffffffffffffffffffffffffffffff1681526020013373ffffffffffffffffffffffffffffffffffffffff1681526020018473ffffffffffffffffffffffffffffffffffffffff1681526020018381526020018581526020016001600381111561170f57fe5b815250905061172a60016005546125a190919063ffffffff16565b6005819055508060066000600554815260200190815260200160002060008201518160000160006101000a81548160ff0219169083600281111561176a57fe5b0217905550602082015181600101908051906020019061178b9291906126c6565b5060408201518160020160006101000a81548173ffffffffffffffffffffffffffffffffffffffff021916908373ffffffffffffffffffffffffffffffffffffffff16021790555060608201518160030160006101000a81548173ffffffffffffffffffffffffffffffffffffffff021916908373ffffffffffffffffffffffffffffffffffffffff16021790555060808201518160040160006101000a81548173ffffffffffffffffffffffffffffffffffffffff021916908373ffffffffffffffffffffffffffffffffffffffff16021790555060a082015181600501908051906020019061187d929190612746565b5060c0820151816006015560e08201518160070160006101000a81548160ff021916908360038111156118ac57fe5b02179055509050507f4c4b04a2b190e6bb01b6243f150fc76174861acd19cf98841801baaff5262dd86005548989893388888b604051808981526020018860028111156118f557fe5b60ff168152602001806020018773ffffffffffffffffffffffffffffffffffffffff1673ffffffffffffffffffffffffffffffffffffffff1681526020018673ffffffffffffffffffffffffffffffffffffffff1673ffffffffffffffffffffffffffffffffffffffff1681526020018573ffffffffffffffffffffffffffffffffffffffff1673ffffffffffffffffffffffffffffffffffffffff16815260200180602001848152602001838103835289818151815260200191508051906020019080838360005b838110156119d95780820151818401526020810190506119be565b50505050905090810190601f168015611a065780820380516001836020036101000a031916815260200191505b50838103825285818151815260200191508051906020019080838360005b83811015611a3f578082015181840152602081019050611a24565b50505050905090810190601f168015611a6c5780820380516001836020036101000a031916815260200191505b509a505050505050505050505060405180910390a15050505050505050565b600060016003811115611a9a57fe5b6006600084815260200190815260200160002060070160009054906101000a900460ff166003811115611ac957fe5b149050919050565b60066020528060005260406000206000915090508060000160009054906101000a900460ff1690806001018054600181600116156101000203166002900480601f016020809104026020016040519081016040528092919081815260200182805460018160011615610100020316600290048015611b905780601f10611b6557610100808354040283529160200191611b90565b820191906000526020600020905b815481529060010190602001808311611b7357829003601f168201915b5050505050908060020160009054906101000a900473ffffffffffffffffffffffffffffffffffffffff16908060030160009054906101000a900473ffffffffffffffffffffffffffffffffffffffff16908060040160009054906101000a900473ffffffffffffffffffffffffffffffffffffffff1690806005018054600181600116156101000203166002900480601f016020809104026020016040519081016040528092919081815260200182805460018160011615610100020316600290048015611ca05780601f10611c7557610100808354040283529160200191611ca0565b820191906000526020600020905b815481529060010190602001808311611c8357829003601f168201915b5050505050908060060154908060070160009054906101000a900460ff16905088565b600360149054906101000a900460ff1681565b611cde612629565b60066000838152602001908152602001600020604051806101000160405290816000820160009054906101000a900460ff166002811115611d1b57fe5b6002811115611d2657fe5b8152602001600182018054600181600116156101000203166002900480601f016020809104026020016040519081016040528092919081815260200182805460018160011615610100020316600290048015611dc35780601f10611d9857610100808354040283529160200191611dc3565b820191906000526020600020905b815481529060010190602001808311611da657829003601f168201915b505050505081526020016002820160009054906101000a900473ffffffffffffffffffffffffffffffffffffffff1673ffffffffffffffffffffffffffffffffffffffff1673ffffffffffffffffffffffffffffffffffffffff1681526020016003820160009054906101000a900473ffffffffffffffffffffffffffffffffffffffff1673ffffffffffffffffffffffffffffffffffffffff1673ffffffffffffffffffffffffffffffffffffffff1681526020016004820160009054906101000a900473ffffffffffffffffffffffffffffffffffffffff1673ffffffffffffffffffffffffffffffffffffffff1673ffffffffffffffffffffffffffffffffffffffff168152602001600582018054600181600116156101000203166002900480601f016020809104026020016040519081016040528092919081815260200182805460018160011615610100020316600290048015611f675780601f10611f3c57610100808354040283529160200191611f67565b820191906000526020600020905b815481529060010190602001808311611f4a57829003601f168201915b50505050508152602001600682015481526020016007820160009054906101000a900460ff166003811115611f9857fe5b6003811115611fa357fe5b815250509050600460009054906101000a900473ffffffffffffffffffffffffffffffffffffffff1673ffffffffffffffffffffffffffffffffffffffff1663e05988a482604001518360a001518460c001516040518463ffffffff1660e01b8152600401808473ffffffffffffffffffffffffffffffffffffffff1673ffffffffffffffffffffffffffffffffffffffff16815260200180602001838152602001828103825284818151815260200191508051906020019080838360005b8381101561207d578082015181840152602081019050612062565b50505050905090810190601f1680156120aa5780820380516001836020036101000a031916815260200191505b50945050505050600060405180830381600087803b1580156120cb57600080fd5b505af11580156120df573d6000803e3d6000fd5b505050505050565b6120ef612629565b60066000838152602001908152602001600020604051806101000160405290816000820160009054906101000a900460ff16600281111561212c57fe5b600281111561213757fe5b8152602001600182018054600181600116156101000203166002900480601f0160208091040260200160405190810160405280929190818152602001828054600181600116156101000203166002900480156121d45780601f106121a9576101008083540402835291602001916121d4565b820191906000526020600020905b8154815290600101906020018083116121b757829003601f168201915b505050505081526020016002820160009054906101000a900473ffffffffffffffffffffffffffffffffffffffff1673ffffffffffffffffffffffffffffffffffffffff1673ffffffffffffffffffffffffffffffffffffffff1681526020016003820160009054906101000a900473ffffffffffffffffffffffffffffffffffffffff1673ffffffffffffffffffffffffffffffffffffffff1673ffffffffffffffffffffffffffffffffffffffff1681526020016004820160009054906101000a900473ffffffffffffffffffffffffffffffffffffffff1673ffffffffffffffffffffffffffffffffffffffff1673ffffffffffffffffffffffffffffffffffffffff168152602001600582018054600181600116156101000203166002900480601f0160208091040260200160405190810160405280929190818152602001828054600181600116156101000203166002900480156123785780601f1061234d57610100808354040283529160200191612378565b820191906000526020600020905b81548152906001019060200180831161235b57829003601f168201915b50505050508152602001600682015481526020016007820160009054906101000a900460ff1660038111156123a957fe5b60038111156123b457fe5b815250509050600460009054906101000a900473ffffffffffffffffffffffffffffffffffffffff1673ffffffffffffffffffffffffffffffffffffffff1663cdf68c418260200151836040015184608001518560a001518660c001516040518663ffffffff1660e01b815260040180806020018673ffffffffffffffffffffffffffffffffffffffff1673ffffffffffffffffffffffffffffffffffffffff1681526020018573ffffffffffffffffffffffffffffffffffffffff1673ffffffffffffffffffffffffffffffffffffffff16815260200180602001848152602001838103835288818151815260200191508051906020019080838360005b838110156124ce5780820151818401526020810190506124b3565b50505050905090810190601f1680156124fb5780820380516001836020036101000a031916815260200191505b50838103825285818151815260200191508051906020019080838360005b83811015612534578082015181840152602081019050612519565b50505050905090810190601f1680156125615780820380516001836020036101000a031916815260200191505b50975050505050505050600060405180830381600087803b15801561258557600080fd5b505af1158015612599573d6000803e3d6000fd5b505050505050565b60008082840190508381101561261f576040517f08c379a000000000000000000000000000000000000000000000000000000000815260040180806020018281038252601b8152602001807f536166654d6174683a206164646974696f6e206f766572666c6f77000000000081525060200191505060405180910390fd5b8091505092915050565b6040518061010001604052806000600281111561264257fe5b815260200160608152602001600073ffffffffffffffffffffffffffffffffffffffff168152602001600073ffffffffffffffffffffffffffffffffffffffff168152602001600073ffffffffffffffffffffffffffffffffffffffff1681526020016060815260200160008152602001600060038111156126c057fe5b81525090565b828054600181600116156101000203166002900490600052602060002090601f016020900481019282601f1061270757805160ff1916838001178555612735565b82800160010185558215612735579182015b82811115612734578251825591602001919060010190612719565b5b50905061274291906127c6565b5090565b828054600181600116156101000203166002900490600052602060002090601f016020900481019282601f1061278757805160ff19168380011785556127b5565b828001600101855582156127b5579182015b828111156127b4578251825591602001919060010190612799565b5b5090506127c291906127c6565b5090565b6127e891905b808211156127e45760008160009055506001016127cc565b5090565b9056fe546865204f70657261746f72206d7573742073657420746865206f7261636c6520616e64206272696467652062616e6b20666f72206272696467652061637469766174696f6e546865204272696467652042616e6b2063616e6e6f742062652075706461746564206f6e636520697420686173206265656e20736574546865204f7261636c652063616e6e6f742062652075706461746564206f6e636520697420686173206265656e20736574496e76616c696420636c61696d20747970652c206f6e6c79206275726e20616e64206c6f636b2061726520737570706f727465642e4e6f7420656e6f756768206c6f636b65642061737365747320746f20636f6d706c657465207468652070726f706f7365642070726f70686563794f6e6c7920746865204f7261636c65206d617920636f6d706c6574652070726f70686563696573a265627a7a72315820032b8ec5d6c036235fe19f8f5bf00b092fac55038a197c4561936ab651c3933464736f6c63430005100032",
  "source": "pragma solidity ^0.5.0;\n\nimport \"../../node_modules/openzeppelin-solidity/contracts/math/SafeMath.sol\";\nimport \"./Valset.sol\";\nimport \"./BridgeBank/BridgeBank.sol\";\n\n\ncontract CosmosBridge {\n    using SafeMath for uint256;\n\n    string COSMOS_NATIVE_ASSET_PREFIX = \"PEGGY\";\n\n    /*\n     * @dev: Public variable declarations\n     */\n    address public operator;\n    Valset public valset;\n    address public oracle;\n    bool public hasOracle;\n    BridgeBank public bridgeBank;\n    bool public hasBridgeBank;\n\n    uint256 public prophecyClaimCount;\n    mapping(uint256 => ProphecyClaim) public prophecyClaims;\n\n    enum Status {Null, Pending, Success, Failed}\n\n    enum ClaimType {Unsupported, Burn, Lock}\n\n    struct ProphecyClaim {\n        ClaimType claimType;\n        bytes cosmosSender;\n        address payable ethereumReceiver;\n        address originalValidator;\n        address tokenAddress;\n        string symbol;\n        uint256 amount;\n        Status status;\n    }\n\n    /*\n     * @dev: Event declarations\n     */\n\n    event LogOracleSet(address _oracle);\n\n    event LogBridgeBankSet(address _bridgeBank);\n\n    event LogNewProphecyClaim(\n        uint256 _prophecyID,\n        ClaimType _claimType,\n        bytes _cosmosSender,\n        address payable _ethereumReceiver,\n        address _validatorAddress,\n        address _tokenAddress,\n        string _symbol,\n        uint256 _amount\n    );\n\n    event LogProphecyCompleted(uint256 _prophecyID, ClaimType _claimType);\n\n    /*\n     * @dev: Modifier which only allows access to currently pending prophecies\n     */\n    modifier isPending(uint256 _prophecyID) {\n        require(\n            isProphecyClaimActive(_prophecyID),\n            \"Prophecy claim is not active\"\n        );\n        _;\n    }\n\n    /*\n     * @dev: Modifier to restrict access to the operator.\n     */\n    modifier onlyOperator() {\n        require(msg.sender == operator, \"Must be the operator.\");\n        _;\n    }\n\n    /*\n     * @dev: The bridge is not active until oracle and bridge bank are set\n     */\n    modifier isActive() {\n        require(\n            hasOracle == true && hasBridgeBank == true,\n            \"The Operator must set the oracle and bridge bank for bridge activation\"\n        );\n        _;\n    }\n\n    /*\n     * @dev: Constructor\n     */\n    constructor(address _operator, address _valset) public {\n        prophecyClaimCount = 0;\n        operator = _operator;\n        valset = Valset(_valset);\n        hasOracle = false;\n        hasBridgeBank = false;\n    }\n\n    /*\n     * @dev: setOracle\n     */\n    function setOracle(address _oracle) public onlyOperator {\n        require(\n            !hasOracle,\n            \"The Oracle cannot be updated once it has been set\"\n        );\n\n        hasOracle = true;\n        oracle = _oracle;\n\n        emit LogOracleSet(oracle);\n    }\n\n    /*\n     * @dev: setBridgeBank\n     */\n    function setBridgeBank(address payable _bridgeBank) public onlyOperator {\n        require(\n            !hasBridgeBank,\n            \"The Bridge Bank cannot be updated once it has been set\"\n        );\n\n        hasBridgeBank = true;\n        bridgeBank = BridgeBank(_bridgeBank);\n\n        emit LogBridgeBankSet(address(bridgeBank));\n    }\n\n    /*\n     * @dev: newProphecyClaim\n     *       Creates a new burn or lock prophecy claim, adding it to the prophecyClaims mapping.\n     *       Burn claims require that there are enough locked Ethereum assets to complete the prophecy.\n     *       Lock claims have a new token contract deployed or use an existing contract based on symbol.\n     */\n    function newProphecyClaim(\n        ClaimType _claimType,\n        bytes memory _cosmosSender,\n        address payable _ethereumReceiver,\n        string memory _symbol,\n        uint256 _amount\n    ) public isActive {\n        require(\n            valset.isActiveValidator(msg.sender),\n            \"Must be an active validator\"\n        );\n\n        address tokenAddress;\n        string memory symbol;\n        if (_claimType == ClaimType.Burn) {\n            require(\n                bridgeBank.getLockedFunds(_symbol) >= _amount,\n                \"Not enough locked assets to complete the proposed prophecy\"\n            );\n            symbol = _symbol;\n            tokenAddress = bridgeBank.getLockedTokenAddress(_symbol);\n        } else if (_claimType == ClaimType.Lock) {\n            // symbol = concat(COSMOS_NATIVE_ASSET_PREFIX, _symbol); // Add 'PEGGY' symbol prefix\n            symbol = _symbol;\n            address bridgeTokenAddress = bridgeBank.getBridgeToken(symbol);\n            if (bridgeTokenAddress == address(0)) {\n                // First lock of this asset, deploy new contract and get new symbol/token address\n                tokenAddress = bridgeBank.createNewBridgeToken(symbol);\n            } else {\n                // Not the first lock of this asset, get existing symbol/token address\n                tokenAddress = bridgeTokenAddress;\n            }\n        } else {\n            revert(\"Invalid claim type, only burn and lock are supported.\");\n        }\n\n        // Create the new ProphecyClaim\n        ProphecyClaim memory prophecyClaim = ProphecyClaim(\n            _claimType,\n            _cosmosSender,\n            _ethereumReceiver,\n            msg.sender,\n            tokenAddress,\n            symbol,\n            _amount,\n            Status.Pending\n        );\n\n        // Increment count and add the new ProphecyClaim to the mapping\n        prophecyClaimCount = prophecyClaimCount.add(1);\n        prophecyClaims[prophecyClaimCount] = prophecyClaim;\n\n        emit LogNewProphecyClaim(\n            prophecyClaimCount,\n            _claimType,\n            _cosmosSender,\n            _ethereumReceiver,\n            msg.sender,\n            tokenAddress,\n            symbol,\n            _amount\n        );\n    }\n\n    /*\n     * @dev: completeProphecyClaim\n     *       Allows for the completion of ProphecyClaims once processed by the Oracle.\n     *       Burn claims unlock tokens stored by BridgeBank.\n     *       Lock claims mint BridgeTokens on BridgeBank's token whitelist.\n     */\n    function completeProphecyClaim(uint256 _prophecyID)\n        public\n        isPending(_prophecyID)\n    {\n        require(\n            msg.sender == oracle,\n            \"Only the Oracle may complete prophecies\"\n        );\n\n        prophecyClaims[_prophecyID].status = Status.Success;\n\n        ClaimType claimType = prophecyClaims[_prophecyID].claimType;\n        if (claimType == ClaimType.Burn) {\n            unlockTokens(_prophecyID);\n        } else {\n            issueBridgeTokens(_prophecyID);\n        }\n\n        emit LogProphecyCompleted(_prophecyID, claimType);\n    }\n\n    /*\n     * @dev: issueBridgeTokens\n     *       Issues a request for the BridgeBank to mint new BridgeTokens\n     */\n    function issueBridgeTokens(uint256 _prophecyID) internal {\n        ProphecyClaim memory prophecyClaim = prophecyClaims[_prophecyID];\n\n        bridgeBank.mintBridgeTokens(\n            prophecyClaim.cosmosSender,\n            prophecyClaim.ethereumReceiver,\n            prophecyClaim.tokenAddress,\n            prophecyClaim.symbol,\n            prophecyClaim.amount\n        );\n    }\n\n    /*\n     * @dev: unlockTokens\n     *       Issues a request for the BridgeBank to unlock funds held on contract\n     */\n    function unlockTokens(uint256 _prophecyID) internal {\n        ProphecyClaim memory prophecyClaim = prophecyClaims[_prophecyID];\n\n        bridgeBank.unlock(\n            prophecyClaim.ethereumReceiver,\n            prophecyClaim.symbol,\n            prophecyClaim.amount\n        );\n    }\n\n    /*\n     * @dev: isProphecyClaimActive\n     *       Returns boolean indicating if the ProphecyClaim is active\n     */\n    function isProphecyClaimActive(uint256 _prophecyID)\n        public\n        view\n        returns (bool)\n    {\n        return prophecyClaims[_prophecyID].status == Status.Pending;\n    }\n\n    /*\n     * @dev: isProphecyValidatorActive\n     *       Returns boolean indicating if the validator that originally\n     *       submitted the ProphecyClaim is still an active validator\n     */\n    function isProphecyClaimValidatorActive(uint256 _prophecyID)\n        public\n        view\n        returns (bool)\n    {\n        return\n            valset.isActiveValidator(\n                prophecyClaims[_prophecyID].originalValidator\n            );\n    }\n\n    /*\n     * @dev: Performs low gas-comsuption string concatenation\n     *\n     * @param _prefix: start of the string\n     * @param _suffix: end of the string\n     */\n    function concat(string memory _prefix, string memory _suffix)\n        internal\n        pure\n        returns (string memory)\n    {\n        return string(abi.encodePacked(_prefix, _suffix));\n    }\n}\n",
  "sourcePath": "/home/trinh.van.tan/peggy/testnet-contracts/contracts/CosmosBridge.sol",
  "compiler": {
    "name": "solc",
    "version": "0.5.16+commit.9c3226ce.Emscripten.clang"
  },
  "schemaVersion": "3.1.0",
  "updatedAt": "2020-10-30T06:22:37.291Z",
  "networkType": "ethereum",
  "devdoc": {
    "methods": {}
  },
  "userdoc": {
    "methods": {}
  }
}