{
  "contractName": "EthereumBank",
  "abi": [
    {
      "inputs": [],
      "payable": false,
      "stateMutability": "nonpayable",
      "type": "constructor"
    },
    {
      "anonymous": false,
      "inputs": [
        {
          "indexed": false,
          "internalType": "address",
          "name": "_from",
          "type": "address"
        },
        {
          "indexed": false,
          "internalType": "bytes",
          "name": "_to",
          "type": "bytes"
        },
        {
          "indexed": false,
          "internalType": "address",
          "name": "_token",
          "type": "address"
        },
        {
          "indexed": false,
          "internalType": "string",
          "name": "_symbol",
          "type": "string"
        },
        {
          "indexed": false,
          "internalType": "uint256",
          "name": "_value",
          "type": "uint256"
        },
        {
          "indexed": false,
          "internalType": "uint256",
          "name": "_nonce",
          "type": "uint256"
        }
      ],
      "name": "LogBurn",
      "type": "event"
    },
    {
      "anonymous": false,
      "inputs": [
        {
          "indexed": false,
          "internalType": "address",
          "name": "_from",
          "type": "address"
        },
        {
          "indexed": false,
          "internalType": "bytes",
          "name": "_to",
          "type": "bytes"
        },
        {
          "indexed": false,
          "internalType": "address",
          "name": "_token",
          "type": "address"
        },
        {
          "indexed": false,
          "internalType": "string",
          "name": "_symbol",
          "type": "string"
        },
        {
          "indexed": false,
          "internalType": "uint256",
          "name": "_value",
          "type": "uint256"
        },
        {
          "indexed": false,
          "internalType": "uint256",
          "name": "_nonce",
          "type": "uint256"
        }
      ],
      "name": "LogLock",
      "type": "event"
    },
    {
      "anonymous": false,
      "inputs": [
        {
          "indexed": false,
          "internalType": "address",
          "name": "_to",
          "type": "address"
        },
        {
          "indexed": false,
          "internalType": "address",
          "name": "_token",
          "type": "address"
        },
        {
          "indexed": false,
          "internalType": "string",
          "name": "_symbol",
          "type": "string"
        },
        {
          "indexed": false,
          "internalType": "uint256",
          "name": "_value",
          "type": "uint256"
        }
      ],
      "name": "LogUnlock",
      "type": "event"
    },
    {
      "constant": true,
      "inputs": [],
      "name": "lockBurnNonce",
      "outputs": [
        {
          "internalType": "uint256",
          "name": "",
          "type": "uint256"
        }
      ],
      "payable": false,
      "stateMutability": "view",
      "type": "function"
    },
    {
      "constant": true,
      "inputs": [
        {
          "internalType": "address",
          "name": "",
          "type": "address"
        }
      ],
      "name": "lockedFunds",
      "outputs": [
        {
          "internalType": "uint256",
          "name": "",
          "type": "uint256"
        }
      ],
      "payable": false,
      "stateMutability": "view",
      "type": "function"
    },
    {
      "constant": true,
      "inputs": [
        {
          "internalType": "string",
          "name": "",
          "type": "string"
        }
      ],
      "name": "lockedTokenList",
      "outputs": [
        {
          "internalType": "address",
          "name": "",
          "type": "address"
        }
      ],
      "payable": false,
      "stateMutability": "view",
      "type": "function"
    },
    {
      "constant": true,
      "inputs": [
        {
          "internalType": "string",
          "name": "_symbol",
          "type": "string"
        }
      ],
      "name": "getLockedTokenAddress",
      "outputs": [
        {
          "internalType": "address",
          "name": "",
          "type": "address"
        }
      ],
      "payable": false,
      "stateMutability": "view",
      "type": "function"
    },
    {
      "constant": true,
      "inputs": [
        {
          "internalType": "string",
          "name": "_symbol",
          "type": "string"
        }
      ],
      "name": "getLockedFunds",
      "outputs": [
        {
          "internalType": "uint256",
          "name": "",
          "type": "uint256"
        }
      ],
      "payable": false,
      "stateMutability": "view",
      "type": "function"
    }
  ],
  "bytecode": "0x608060405234801561001057600080fd5b5060008081905550610598806100276000396000f3fe608060405234801561001057600080fd5b50600436106100575760003560e01c80630a1f9b661461005c5780631deed3bb146101575780635acba65514610175578063b86247d714610244578063f24a590a1461029c575b600080fd5b6101156004803603602081101561007257600080fd5b810190808035906020019064010000000081111561008f57600080fd5b8201836020820111156100a157600080fd5b803590602001918460018302840111640100000000831117156100c357600080fd5b91908080601f016020809104026020016040519081016040528093929190818152602001838380828437600081840152601f19601f820116905080830192505050505050509192919290505050610397565b604051808273ffffffffffffffffffffffffffffffffffffffff1673ffffffffffffffffffffffffffffffffffffffff16815260200191505060405180910390f35b61015f61042a565b6040518082815260200191505060405180910390f35b61022e6004803603602081101561018b57600080fd5b81019080803590602001906401000000008111156101a857600080fd5b8201836020820111156101ba57600080fd5b803590602001918460018302840111640100000000831117156101dc57600080fd5b91908080601f016020809104026020016040519081016040528093929190818152602001838380828437600081840152601f19601f820116905080830192505050505050509192919290505050610430565b6040518082815260200191505060405180910390f35b6102866004803603602081101561025a57600080fd5b81019080803573ffffffffffffffffffffffffffffffffffffffff169060200190929190505050610502565b6040518082815260200191505060405180910390f35b610355600480360360208110156102b257600080fd5b81019080803590602001906401000000008111156102cf57600080fd5b8201836020820111156102e157600080fd5b8035906020019184600183028401116401000000008311171561030357600080fd5b91908080601f016020809104026020016040519081016040528093929190818152602001838380828437600081840152601f19601f82011690508083019250505050505050919291929050505061051a565b604051808273ffffffffffffffffffffffffffffffffffffffff1673ffffffffffffffffffffffffffffffffffffffff16815260200191505060405180910390f35b60006002826040518082805190602001908083835b602083106103cf57805182526020820191506020810190506020830392506103ac565b6001836020036101000a038019825116818451168082178552505050505050905001915050908152602001604051809103902060009054906101000a900473ffffffffffffffffffffffffffffffffffffffff169050919050565b60005481565b6000600160006002846040518082805190602001908083835b6020831061046c5780518252602082019150602081019050602083039250610449565b6001836020036101000a038019825116818451168082178552505050505050905001915050908152602001604051809103902060009054906101000a900473ffffffffffffffffffffffffffffffffffffffff1673ffffffffffffffffffffffffffffffffffffffff1673ffffffffffffffffffffffffffffffffffffffff168152602001908152602001600020549050919050565b60016020528060005260406000206000915090505481565b6002818051602081018201805184825260208301602085012081835280955050505050506000915054906101000a900473ffffffffffffffffffffffffffffffffffffffff168156fea265627a7a7231582054ad26a509d50cd859d4232f2067b06f5dd71fe0282a9f979222b2c72f3258b464736f6c63430005100032",
  "source": "pragma solidity ^0.5.0;\n\nimport \"../../../node_modules/openzeppelin-solidity/contracts/math/SafeMath.sol\";\nimport \"./BridgeToken.sol\";\n\n\n/*\n *  @title: EthereumBank\n *  @dev: Ethereum bank which locks Ethereum/ERC20 token deposits, and unlocks\n *        Ethereum/ERC20 tokens once the prophecy has been successfully processed.\n */\ncontract EthereumBank {\n    using SafeMath for uint256;\n\n    uint256 public lockBurnNonce;\n    mapping(address => uint256) public lockedFunds;\n    mapping(string => address) public lockedTokenList;\n\n    /*\n     * @dev: Event declarations\n     */\n    event LogBurn(\n        address _from,\n        bytes _to,\n        address _token,\n        string _symbol,\n        uint256 _value,\n        uint256 _nonce\n    );\n\n    event LogLock(\n        address _from,\n        bytes _to,\n        address _token,\n        string _symbol,\n        uint256 _value,\n        uint256 _nonce\n    );\n\n    event LogUnlock(\n        address _to,\n        address _token,\n        string _symbol,\n        uint256 _value\n    );\n\n    /*\n     * @dev: Modifier declarations\n     */\n\n    modifier availableNonce() {\n        require(lockBurnNonce + 1 > lockBurnNonce, \"No available nonces.\");\n        _;\n    }\n\n    /*\n     * @dev: Constructor which sets the lock nonce\n     */\n    constructor() public {\n        lockBurnNonce = 0;\n    }\n\n    /*\n     * @dev: Gets the contract address of locked tokens by symbol.\n     *\n     * @param _symbol: The asset's symbol.\n     */\n    function getLockedTokenAddress(string memory _symbol)\n        public\n        view\n        returns (address)\n    {\n        return lockedTokenList[_symbol];\n    }\n\n    /*\n     * @dev: Gets the amount of locked tokens by symbol.\n     *\n     * @param _symbol: The asset's symbol.\n     */\n    function getLockedFunds(string memory _symbol)\n        public\n        view\n        returns (uint256)\n    {\n        return lockedFunds[lockedTokenList[_symbol]];\n    }\n\n    /*\n     * @dev: Creates a new Ethereum deposit with a unique id.\n     *\n     * @param _sender: The sender's ethereum address.\n     * @param _recipient: The intended recipient's cosmos address.\n     * @param _token: The currency type, either erc20 or ethereum.\n     * @param _amount: The amount of erc20 tokens/ ethereum (in wei) to be itemized.\n     */\n    function burnFunds(\n        address payable _sender,\n        bytes memory _recipient,\n        address _token,\n        string memory _symbol,\n        uint256 _amount\n    ) internal {\n        lockBurnNonce = lockBurnNonce.add(1);\n        emit LogBurn(_sender, _recipient, _token, _symbol, _amount, lockBurnNonce);\n    }\n\n    /*\n     * @dev: Creates a new Ethereum deposit with a unique id.\n     *\n     * @param _sender: The sender's ethereum address.\n     * @param _recipient: The intended recipient's cosmos address.\n     * @param _token: The currency type, either erc20 or ethereum.\n     * @param _amount: The amount of erc20 tokens/ ethereum (in wei) to be itemized.\n     */\n    function lockFunds(\n        address payable _sender,\n        bytes memory _recipient,\n        address _token,\n        string memory _symbol,\n        uint256 _amount\n    ) internal {\n        lockBurnNonce = lockBurnNonce.add(1);\n\n        // Increment locked funds by the amount of tokens to be locked\n        lockedTokenList[_symbol] = _token;\n        lockedFunds[_token] = lockedFunds[_token].add(_amount);\n\n        emit LogLock(_sender, _recipient, _token, _symbol, _amount, lockBurnNonce);\n    }\n\n    /*\n     * @dev: Unlocks funds held on contract and sends them to the\n     *       intended recipient\n     *\n     * @param _recipient: recipient's Ethereum address\n     * @param _token: token contract address\n     * @param _symbol: token symbol\n     * @param _amount: wei amount or ERC20 token count\n     */\n    function unlockFunds(\n        address payable _recipient,\n        address _token,\n        string memory _symbol,\n        uint256 _amount\n    ) internal {\n        // Decrement locked funds mapping by the amount of tokens to be unlocked\n        lockedFunds[_token] = lockedFunds[_token].sub(_amount);\n\n        // Transfer funds to intended recipient\n        if (_token == address(0)) {\n            _recipient.transfer(_amount);\n        } else {\n            require(\n                BridgeToken(_token).transfer(_recipient, _amount),\n                \"Token transfer failed\"\n            );\n        }\n\n        emit LogUnlock(_recipient, _token, _symbol, _amount);\n    }\n}\n",
  "sourcePath": "/home/trinh.van.tan/peggy/testnet-contracts/contracts/BridgeBank/EthereumBank.sol",
  "compiler": {
    "name": "solc",
    "version": "0.5.16+commit.9c3226ce.Emscripten.clang"
  },
  "schemaVersion": "3.1.0",
  "updatedAt": "2020-09-21T08:15:44.038Z",
  "devdoc": {
    "methods": {}
  },
  "userdoc": {
    "methods": {}
  }
}