{
  "contractName": "Oracle",
  "abi": [
    {
      "inputs": [
        {
          "internalType": "address",
          "name": "_operator",
          "type": "address"
        },
        {
          "internalType": "address",
          "name": "_valset",
          "type": "address"
        },
        {
          "internalType": "address",
          "name": "_cosmosBridge",
          "type": "address"
        },
        {
          "internalType": "uint256",
          "name": "_consensusThreshold",
          "type": "uint256"
        }
      ],
      "payable": false,
      "stateMutability": "nonpayable",
      "type": "constructor"
    },
    {
      "anonymous": false,
      "inputs": [
        {
          "indexed": false,
          "internalType": "uint256",
          "name": "_prophecyID",
          "type": "uint256"
        },
        {
          "indexed": false,
          "internalType": "bytes32",
          "name": "_message",
          "type": "bytes32"
        },
        {
          "indexed": false,
          "internalType": "address",
          "name": "_validatorAddress",
          "type": "address"
        },
        {
          "indexed": false,
          "internalType": "bytes",
          "name": "_signature",
          "type": "bytes"
        }
      ],
      "name": "LogNewOracleClaim",
      "type": "event"
    },
    {
      "anonymous": false,
      "inputs": [
        {
          "indexed": false,
          "internalType": "uint256",
          "name": "_prophecyID",
          "type": "uint256"
        },
        {
          "indexed": false,
          "internalType": "uint256",
          "name": "_prophecyPowerCurrent",
          "type": "uint256"
        },
        {
          "indexed": false,
          "internalType": "uint256",
          "name": "_prophecyPowerThreshold",
          "type": "uint256"
        },
        {
          "indexed": false,
          "internalType": "address",
          "name": "_submitter",
          "type": "address"
        }
      ],
      "name": "LogProphecyProcessed",
      "type": "event"
    },
    {
      "constant": true,
      "inputs": [],
      "name": "consensusThreshold",
      "outputs": [
        {
          "internalType": "uint256",
          "name": "",
          "type": "uint256"
        }
      ],
      "payable": false,
      "stateMutability": "view",
      "type": "function"
    },
    {
      "constant": true,
      "inputs": [],
      "name": "cosmosBridge",
      "outputs": [
        {
          "internalType": "contract CosmosBridge",
          "name": "",
          "type": "address"
        }
      ],
      "payable": false,
      "stateMutability": "view",
      "type": "function"
    },
    {
      "constant": true,
      "inputs": [
        {
          "internalType": "uint256",
          "name": "",
          "type": "uint256"
        },
        {
          "internalType": "address",
          "name": "",
          "type": "address"
        }
      ],
      "name": "hasMadeClaim",
      "outputs": [
        {
          "internalType": "bool",
          "name": "",
          "type": "bool"
        }
      ],
      "payable": false,
      "stateMutability": "view",
      "type": "function"
    },
    {
      "constant": true,
      "inputs": [],
      "name": "operator",
      "outputs": [
        {
          "internalType": "address",
          "name": "",
          "type": "address"
        }
      ],
      "payable": false,
      "stateMutability": "view",
      "type": "function"
    },
    {
      "constant": true,
      "inputs": [
        {
          "internalType": "uint256",
          "name": "",
          "type": "uint256"
        },
        {
          "internalType": "uint256",
          "name": "",
          "type": "uint256"
        }
      ],
      "name": "oracleClaimValidators",
      "outputs": [
        {
          "internalType": "address",
          "name": "",
          "type": "address"
        }
      ],
      "payable": false,
      "stateMutability": "view",
      "type": "function"
    },
    {
      "constant": true,
      "inputs": [],
      "name": "valset",
      "outputs": [
        {
          "internalType": "contract Valset",
          "name": "",
          "type": "address"
        }
      ],
      "payable": false,
      "stateMutability": "view",
      "type": "function"
    },
    {
      "constant": false,
      "inputs": [
        {
          "internalType": "uint256",
          "name": "_prophecyID",
          "type": "uint256"
        },
        {
          "internalType": "bytes32",
          "name": "_message",
          "type": "bytes32"
        },
        {
          "internalType": "bytes",
          "name": "_signature",
          "type": "bytes"
        }
      ],
      "name": "newOracleClaim",
      "outputs": [],
      "payable": false,
      "stateMutability": "nonpayable",
      "type": "function"
    },
    {
      "constant": false,
      "inputs": [
        {
          "internalType": "uint256",
          "name": "_prophecyID",
          "type": "uint256"
        }
      ],
      "name": "processBridgeProphecy",
      "outputs": [],
      "payable": false,
      "stateMutability": "nonpayable",
      "type": "function"
    },
    {
      "constant": true,
      "inputs": [
        {
          "internalType": "uint256",
          "name": "_prophecyID",
          "type": "uint256"
        }
      ],
      "name": "checkBridgeProphecy",
      "outputs": [
        {
          "internalType": "bool",
          "name": "",
          "type": "bool"
        },
        {
          "internalType": "uint256",
          "name": "",
          "type": "uint256"
        },
        {
          "internalType": "uint256",
          "name": "",
          "type": "uint256"
        }
      ],
      "payable": false,
      "stateMutability": "view",
      "type": "function"
    }
  ],
  "bytecode": "0x608060405234801561001057600080fd5b5060405161180b38038061180b8339818101604052608081101561003357600080fd5b8101908080519060200190929190805190602001909291908051906020019092919080519060200190929190505050600081116100bb576040517f08c379a00000000000000000000000000000000000000000000000000000000081526004018080602001828103825260258152602001806117e66025913960400191505060405180910390fd5b83600260006101000a81548173ffffffffffffffffffffffffffffffffffffffff021916908373ffffffffffffffffffffffffffffffffffffffff160217905550816000806101000a81548173ffffffffffffffffffffffffffffffffffffffff021916908373ffffffffffffffffffffffffffffffffffffffff16021790555082600160006101000a81548173ffffffffffffffffffffffffffffffffffffffff021916908373ffffffffffffffffffffffffffffffffffffffff160217905550806003819055505050505061164f806101976000396000f3fe608060405234801561001057600080fd5b50600436106100935760003560e01c806389ed70b71161006657806389ed70b714610273578063a219763e146102a1578063b0e9ef7114610307578063e33a8b2a14610351578063f9b0b5b9146103a557610093565b806336e4134114610098578063568b3c4f14610110578063570ca735146101df5780637f54af0c14610229575b600080fd5b6100ce600480360360408110156100ae57600080fd5b8101908080359060200190929190803590602001909291905050506103c3565b604051808273ffffffffffffffffffffffffffffffffffffffff1673ffffffffffffffffffffffffffffffffffffffff16815260200191505060405180910390f35b6101dd6004803603606081101561012657600080fd5b8101908080359060200190929190803590602001909291908035906020019064010000000081111561015757600080fd5b82018360208201111561016957600080fd5b8035906020019184600183028401116401000000008311171561018b57600080fd5b91908080601f016020809104026020016040519081016040528093929190818152602001838380828437600081840152601f19601f82011690508083019250505050505050919291929050505061040e565b005b6101e7610b3a565b604051808273ffffffffffffffffffffffffffffffffffffffff1673ffffffffffffffffffffffffffffffffffffffff16815260200191505060405180910390f35b610231610b60565b604051808273ffffffffffffffffffffffffffffffffffffffff1673ffffffffffffffffffffffffffffffffffffffff16815260200191505060405180910390f35b61029f6004803603602081101561028957600080fd5b8101908080359060200190929190505050610b86565b005b6102ed600480360360408110156102b757600080fd5b8101908080359060200190929190803573ffffffffffffffffffffffffffffffffffffffff169060200190929190505050610d2f565b604051808215151515815260200191505060405180910390f35b61030f610d5e565b604051808273ffffffffffffffffffffffffffffffffffffffff1673ffffffffffffffffffffffffffffffffffffffff16815260200191505060405180910390f35b61037d6004803603602081101561036757600080fd5b8101908080359060200190929190505050610d83565b6040518084151515158152602001838152602001828152602001935050505060405180910390f35b6103ad611092565b6040518082815260200191505060405180910390f35b600460205281600052604060002081815481106103dc57fe5b906000526020600020016000915091509054906101000a900473ffffffffffffffffffffffffffffffffffffffff1681565b600160009054906101000a900473ffffffffffffffffffffffffffffffffffffffff1673ffffffffffffffffffffffffffffffffffffffff166340550a1c336040518263ffffffff1660e01b8152600401808273ffffffffffffffffffffffffffffffffffffffff1673ffffffffffffffffffffffffffffffffffffffff16815260200191505060206040518083038186803b1580156104ad57600080fd5b505afa1580156104c1573d6000803e3d6000fd5b505050506040513d60208110156104d757600080fd5b810190808051906020019092919050505061055a576040517f08c379a000000000000000000000000000000000000000000000000000000000815260040180806020018281038252601b8152602001807f4d75737420626520616e206163746976652076616c696461746f72000000000081525060200191505060405180910390fd5b82600115156000809054906101000a900473ffffffffffffffffffffffffffffffffffffffff1673ffffffffffffffffffffffffffffffffffffffff1663d8da69ea836040518263ffffffff1660e01b81526004018082815260200191505060206040518083038186803b1580156105d157600080fd5b505afa1580156105e5573d6000803e3d6000fd5b505050506040513d60208110156105fb57600080fd5b8101908080519060200190929190505050151514610664576040517f08c379a000000000000000000000000000000000000000000000000000000000815260040180806020018281038252602f815260200180611591602f913960400191505060405180910390fd5b6000339050600160009054906101000a900473ffffffffffffffffffffffffffffffffffffffff1673ffffffffffffffffffffffffffffffffffffffff166319045a2585856040518363ffffffff1660e01b81526004018083815260200180602001828103825283818151815260200191508051906020019080838360005b838110156106fe5780820151818401526020810190506106e3565b50505050905090810190601f16801561072b5780820380516001836020036101000a031916815260200191505b50935050505060206040518083038186803b15801561074957600080fd5b505afa15801561075d573d6000803e3d6000fd5b505050506040513d602081101561077357600080fd5b810190808051906020019092919050505073ffffffffffffffffffffffffffffffffffffffff168173ffffffffffffffffffffffffffffffffffffffff1614610824576040517f08c379a000000000000000000000000000000000000000000000000000000000815260040180806020018281038252601a8152602001807f496e76616c6964206d657373616765207369676e61747572652e00000000000081525060200191505060405180910390fd5b6005600086815260200190815260200160002060008273ffffffffffffffffffffffffffffffffffffffff1673ffffffffffffffffffffffffffffffffffffffff16815260200190815260200160002060009054906101000a900460ff16156108d8576040517f08c379a000000000000000000000000000000000000000000000000000000000815260040180806020018281038252603a8152602001806115c0603a913960400191505060405180910390fd5b60016005600087815260200190815260200160002060008373ffffffffffffffffffffffffffffffffffffffff1673ffffffffffffffffffffffffffffffffffffffff16815260200190815260200160002060006101000a81548160ff021916908315150217905550600460008681526020019081526020016000208190806001815401808255809150509060018203906000526020600020016000909192909190916101000a81548173ffffffffffffffffffffffffffffffffffffffff021916908373ffffffffffffffffffffffffffffffffffffffff160217905550507f50e466de4726c2437aa7498d554322f5599f31f0f69f9ce036ad96db7759049185858386604051808581526020018481526020018373ffffffffffffffffffffffffffffffffffffffff1673ffffffffffffffffffffffffffffffffffffffff16815260200180602001828103825283818151815260200191508051906020019080838360005b83811015610a5b578082015181840152602081019050610a40565b50505050905090810190601f168015610a885780820380516001836020036101000a031916815260200191505b509550505050505060405180910390a16000806000610aa688611098565b925092509250610ab5886113f3565b7f1d8e3fbd601d9d92db7022fb97f75e132841b94db732dcecb0c93cb31852fcbc88838333604051808581526020018481526020018381526020018273ffffffffffffffffffffffffffffffffffffffff1673ffffffffffffffffffffffffffffffffffffffff16815260200194505050505060405180910390a15050505050505050565b600260009054906101000a900473ffffffffffffffffffffffffffffffffffffffff1681565b600160009054906101000a900473ffffffffffffffffffffffffffffffffffffffff1681565b80600115156000809054906101000a900473ffffffffffffffffffffffffffffffffffffffff1673ffffffffffffffffffffffffffffffffffffffff1663d8da69ea836040518263ffffffff1660e01b81526004018082815260200191505060206040518083038186803b158015610bfd57600080fd5b505afa158015610c11573d6000803e3d6000fd5b505050506040513d6020811015610c2757600080fd5b8101908080519060200190929190505050151514610c90576040517f08c379a000000000000000000000000000000000000000000000000000000000815260040180806020018281038252602f815260200180611591602f913960400191505060405180910390fd5b6000806000610c9e85611098565b925092509250610cad856113f3565b7f1d8e3fbd601d9d92db7022fb97f75e132841b94db732dcecb0c93cb31852fcbc85838333604051808581526020018481526020018381526020018273ffffffffffffffffffffffffffffffffffffffff1673ffffffffffffffffffffffffffffffffffffffff16815260200194505050505060405180910390a15050505050565b60056020528160005260406000206020528060005260406000206000915091509054906101000a900460ff1681565b6000809054906101000a900473ffffffffffffffffffffffffffffffffffffffff1681565b6000806000600260009054906101000a900473ffffffffffffffffffffffffffffffffffffffff1673ffffffffffffffffffffffffffffffffffffffff163373ffffffffffffffffffffffffffffffffffffffff1614610e4b576040517f08c379a00000000000000000000000000000000000000000000000000000000081526004018080602001828103825260158152602001807f4d75737420626520746865206f70657261746f722e000000000000000000000081525060200191505060405180910390fd5b83600115156000809054906101000a900473ffffffffffffffffffffffffffffffffffffffff1673ffffffffffffffffffffffffffffffffffffffff1663d8da69ea836040518263ffffffff1660e01b81526004018082815260200191505060206040518083038186803b158015610ec257600080fd5b505afa158015610ed6573d6000803e3d6000fd5b505050506040513d6020811015610eec57600080fd5b8101908080519060200190929190505050151514610f55576040517f08c379a000000000000000000000000000000000000000000000000000000000815260040180806020018281038252602f815260200180611591602f913960400191505060405180910390fd5b600115156000809054906101000a900473ffffffffffffffffffffffffffffffffffffffff1673ffffffffffffffffffffffffffffffffffffffff1663d8da69ea876040518263ffffffff1660e01b81526004018082815260200191505060206040518083038186803b158015610fcb57600080fd5b505afa158015610fdf573d6000803e3d6000fd5b505050506040513d6020811015610ff557600080fd5b810190808051906020019092919050505015151461107b576040517f08c379a00000000000000000000000000000000000000000000000000000000081526004018080602001828103825260208152602001807f43616e206f6e6c7920636865636b206163746976652070726f7068656369657381525060200191505060405180910390fd5b61108485611098565b935093509350509193909250565b60035481565b600080600080600090506000600160009054906101000a900473ffffffffffffffffffffffffffffffffffffffff1673ffffffffffffffffffffffffffffffffffffffff1663db3ad22c6040518163ffffffff1660e01b815260040160206040518083038186803b15801561110c57600080fd5b505afa158015611120573d6000803e3d6000fd5b505050506040513d602081101561113657600080fd5b8101908080519060200190929190505050905060008090505b60046000888152602001908152602001600020805490508110156113a457600060046000898152602001908152602001600020828154811061118d57fe5b9060005260206000200160009054906101000a900473ffffffffffffffffffffffffffffffffffffffff169050600160009054906101000a900473ffffffffffffffffffffffffffffffffffffffff1673ffffffffffffffffffffffffffffffffffffffff166340550a1c826040518263ffffffff1660e01b8152600401808273ffffffffffffffffffffffffffffffffffffffff1673ffffffffffffffffffffffffffffffffffffffff16815260200191505060206040518083038186803b15801561125957600080fd5b505afa15801561126d573d6000803e3d6000fd5b505050506040513d602081101561128357600080fd5b81019080805190602001909291905050501561138857611385600160009054906101000a900473ffffffffffffffffffffffffffffffffffffffff1673ffffffffffffffffffffffffffffffffffffffff1663473691a4836040518263ffffffff1660e01b8152600401808273ffffffffffffffffffffffffffffffffffffffff1673ffffffffffffffffffffffffffffffffffffffff16815260200191505060206040518083038186803b15801561133b57600080fd5b505afa15801561134f573d6000803e3d6000fd5b505050506040513d602081101561136557600080fd5b81019080805190602001909291905050508561148290919063ffffffff16565b93505b5061139d60018261148290919063ffffffff16565b905061114f565b5060006113bc6003548361150a90919063ffffffff16565b905060006113d460648561150a90919063ffffffff16565b9050600082821015905080828497509750975050505050509193909250565b6000809054906101000a900473ffffffffffffffffffffffffffffffffffffffff1673ffffffffffffffffffffffffffffffffffffffff16636b3ce98c826040518263ffffffff1660e01b815260040180828152602001915050600060405180830381600087803b15801561146757600080fd5b505af115801561147b573d6000803e3d6000fd5b5050505050565b600080828401905083811015611500576040517f08c379a000000000000000000000000000000000000000000000000000000000815260040180806020018281038252601b8152602001807f536166654d6174683a206164646974696f6e206f766572666c6f77000000000081525060200191505060405180910390fd5b8091505092915050565b60008083141561151d576000905061158a565b600082840290508284828161152e57fe5b0414611585576040517f08c379a00000000000000000000000000000000000000000000000000000000081526004018080602001828103825260218152602001806115fa6021913960400191505060405180910390fd5b809150505b9291505056fe5468652070726f7068656379206d7573742062652070656e64696e6720666f722074686973206f7065726174696f6e43616e6e6f74206d616b65206475706c6963617465206f7261636c6520636c61696d732066726f6d207468652073616d6520616464726573732e536166654d6174683a206d756c7469706c69636174696f6e206f766572666c6f77a265627a7a723158201e9c27466a53ea331a079427b0fce6596c568a4eb78d36b9c4bc02be46289d2d64736f6c63430005100032436f6e73656e737573207468726573686f6c64206d75737420626520706f7369746976652e",
  "source": "pragma solidity ^0.5.0;\n\nimport \"../../node_modules/openzeppelin-solidity/contracts/math/SafeMath.sol\";\nimport \"./Valset.sol\";\nimport \"./CosmosBridge.sol\";\n\ncontract Oracle {\n    using SafeMath for uint256;\n\n    /*\n     * @dev: Public variable declarations\n     */\n    CosmosBridge public cosmosBridge;\n    Valset public valset;\n    address public operator;\n    uint256 public consensusThreshold; // e.g. 75 = 75%\n\n    // Tracks the number of OracleClaims made on an individual BridgeClaim\n    mapping(uint256 => address[]) public oracleClaimValidators;\n    mapping(uint256 => mapping(address => bool)) public hasMadeClaim;\n\n    /*\n     * @dev: Event declarations\n     */\n    event LogNewOracleClaim(\n        uint256 _prophecyID,\n        bytes32 _message,\n        address _validatorAddress,\n        bytes _signature\n    );\n\n    event LogProphecyProcessed(\n        uint256 _prophecyID,\n        uint256 _prophecyPowerCurrent,\n        uint256 _prophecyPowerThreshold,\n        address _submitter\n    );\n\n    /*\n     * @dev: Modifier to restrict access to the operator.\n     */\n    modifier onlyOperator() {\n        require(msg.sender == operator, \"Must be the operator.\");\n        _;\n    }\n\n    /*\n     * @dev: Modifier to restrict access to current ValSet validators\n     */\n    modifier onlyValidator() {\n        require(\n            valset.isActiveValidator(msg.sender),\n            \"Must be an active validator\"\n        );\n        _;\n    }\n\n    /*\n     * @dev: Modifier to restrict access to current ValSet validators\n     */\n    modifier isPending(uint256 _prophecyID) {\n        require(\n            cosmosBridge.isProphecyClaimActive(_prophecyID) == true,\n            \"The prophecy must be pending for this operation\"\n        );\n        _;\n    }\n\n    /*\n     * @dev: Constructor\n     */\n    constructor(\n        address _operator,\n        address _valset,\n        address _cosmosBridge,\n        uint256 _consensusThreshold\n    ) public {\n        require(\n            _consensusThreshold > 0,\n            \"Consensus threshold must be positive.\"\n        );\n        operator = _operator;\n        cosmosBridge = CosmosBridge(_cosmosBridge);\n        valset = Valset(_valset);\n        consensusThreshold = _consensusThreshold;\n    }\n\n    /*\n     * @dev: newOracleClaim\n     *       Allows validators to make new OracleClaims on an existing Prophecy\n     */\n    function newOracleClaim(\n        uint256 _prophecyID,\n        bytes32 _message,\n        bytes memory _signature\n    ) public onlyValidator isPending(_prophecyID) {\n        address validatorAddress = msg.sender;\n\n        // Validate the msg.sender's signature\n        require(\n            validatorAddress == valset.recover(_message, _signature),\n            \"Invalid message signature.\"\n        );\n\n        // Confirm that this address has not already made an oracle claim on this prophecy\n        require(\n            !hasMadeClaim[_prophecyID][validatorAddress],\n            \"Cannot make duplicate oracle claims from the same address.\"\n        );\n\n        hasMadeClaim[_prophecyID][validatorAddress] = true;\n        oracleClaimValidators[_prophecyID].push(validatorAddress);\n\n        emit LogNewOracleClaim(\n            _prophecyID,\n            _message,\n            validatorAddress,\n            _signature\n        );\n\n        // Process the prophecy\n        (\n            bool valid,\n            uint256 prophecyPowerCurrent,\n            uint256 prophecyPowerThreshold\n        ) = getProphecyThreshold(_prophecyID);\n\n        // if (valid) {\n        completeProphecy(_prophecyID);\n\n        emit LogProphecyProcessed(\n            _prophecyID,\n            prophecyPowerCurrent,\n            prophecyPowerThreshold,\n            msg.sender\n        );\n        // }\n    }\n\n    /*\n     * @dev: processBridgeProphecy\n     *       Pubically available method which attempts to process a bridge prophecy\n     */\n    function processBridgeProphecy(uint256 _prophecyID)\n        public\n        isPending(_prophecyID)\n    {\n        // Process the prophecy\n        (\n            bool valid,\n            uint256 prophecyPowerCurrent,\n            uint256 prophecyPowerThreshold\n        ) = getProphecyThreshold(_prophecyID);\n\n        // require(\n        //     valid,\n        //     \"The cumulative power of signatory validators does not meet the threshold\"\n        // );\n\n        // Update the BridgeClaim's status\n        completeProphecy(_prophecyID);\n\n        emit LogProphecyProcessed(\n            _prophecyID,\n            prophecyPowerCurrent,\n            prophecyPowerThreshold,\n            msg.sender\n        );\n    }\n\n    /*\n     * @dev: checkBridgeProphecy\n     *       Operator accessor method which checks if a prophecy has passed\n     *       the validity threshold, without actually completing the prophecy.\n     */\n    function checkBridgeProphecy(uint256 _prophecyID)\n        public\n        view\n        onlyOperator\n        isPending(_prophecyID)\n        returns (\n            bool,\n            uint256,\n            uint256\n        )\n    {\n        require(\n            cosmosBridge.isProphecyClaimActive(_prophecyID) == true,\n            \"Can only check active prophecies\"\n        );\n        return getProphecyThreshold(_prophecyID);\n    }\n\n    /*\n     * @dev: processProphecy\n     *       Calculates the status of a prophecy. The claim is considered valid if the\n     *       combined active signatory validator powers pass the consensus threshold.\n     *       The threshold is x% of Total power, where x is the consensusThreshold param.\n     */\n    function getProphecyThreshold(uint256 _prophecyID)\n        internal\n        view\n        returns (\n            bool,\n            uint256,\n            uint256\n        )\n    {\n        uint256 signedPower = 0;\n        uint256 totalPower = valset.totalPower();\n\n        // Iterate over the signatory addresses\n        for (\n            uint256 i = 0;\n            i < oracleClaimValidators[_prophecyID].length;\n            i = i.add(1)\n        ) {\n            address signer = oracleClaimValidators[_prophecyID][i];\n\n            // Only add the power of active validators\n            if (valset.isActiveValidator(signer)) {\n                signedPower = signedPower.add(valset.getValidatorPower(signer));\n            }\n        }\n\n        // Prophecy must reach total signed power % threshold in order to pass consensus\n        uint256 prophecyPowerThreshold = totalPower.mul(consensusThreshold);\n        // consensusThreshold is a decimal multiplied by 100, so signedPower must also be multiplied by 100\n        uint256 prophecyPowerCurrent = signedPower.mul(100);\n        bool hasReachedThreshold = prophecyPowerCurrent >=\n            prophecyPowerThreshold;\n\n        return (\n            hasReachedThreshold,\n            prophecyPowerCurrent,\n            prophecyPowerThreshold\n        );\n    }\n\n    /*\n     * @dev: completeProphecy\n     *       Completes a prophecy by completing the corresponding BridgeClaim\n     *       on the CosmosBridge.\n     */\n    function completeProphecy(uint256 _prophecyID) internal {\n        cosmosBridge.completeProphecyClaim(_prophecyID);\n    }\n}\n",
  "sourcePath": "/Users/chientm/go/src/github.com/cosmos/peggy/testnet-contracts/contracts/Oracle.sol",
  "compiler": {
    "name": "solc",
    "version": "0.5.16+commit.9c3226ce.Emscripten.clang"
  },
  "schemaVersion": "3.1.0",
  "updatedAt": "2020-10-22T08:10:08.399Z",
  "networkType": "ethereum",
  "devdoc": {
    "methods": {}
  },
  "userdoc": {
    "methods": {}
  }
}