{
  "contractName": "Valset",
  "abi": [
    {
      "inputs": [
        {
          "internalType": "address",
          "name": "_operator",
          "type": "address"
        },
        {
          "internalType": "address[]",
          "name": "_initValidators",
          "type": "address[]"
        },
        {
          "internalType": "uint256[]",
          "name": "_initPowers",
          "type": "uint256[]"
        }
      ],
      "payable": false,
      "stateMutability": "nonpayable",
      "type": "constructor"
    },
    {
      "anonymous": false,
      "inputs": [
        {
          "indexed": false,
          "internalType": "address",
          "name": "_validator",
          "type": "address"
        },
        {
          "indexed": false,
          "internalType": "uint256",
          "name": "_power",
          "type": "uint256"
        },
        {
          "indexed": false,
          "internalType": "uint256",
          "name": "_currentValsetVersion",
          "type": "uint256"
        },
        {
          "indexed": false,
          "internalType": "uint256",
          "name": "_validatorCount",
          "type": "uint256"
        },
        {
          "indexed": false,
          "internalType": "uint256",
          "name": "_totalPower",
          "type": "uint256"
        }
      ],
      "name": "LogValidatorAdded",
      "type": "event"
    },
    {
      "anonymous": false,
      "inputs": [
        {
          "indexed": false,
          "internalType": "address",
          "name": "_validator",
          "type": "address"
        },
        {
          "indexed": false,
          "internalType": "uint256",
          "name": "_power",
          "type": "uint256"
        },
        {
          "indexed": false,
          "internalType": "uint256",
          "name": "_currentValsetVersion",
          "type": "uint256"
        },
        {
          "indexed": false,
          "internalType": "uint256",
          "name": "_validatorCount",
          "type": "uint256"
        },
        {
          "indexed": false,
          "internalType": "uint256",
          "name": "_totalPower",
          "type": "uint256"
        }
      ],
      "name": "LogValidatorPowerUpdated",
      "type": "event"
    },
    {
      "anonymous": false,
      "inputs": [
        {
          "indexed": false,
          "internalType": "address",
          "name": "_validator",
          "type": "address"
        },
        {
          "indexed": false,
          "internalType": "uint256",
          "name": "_power",
          "type": "uint256"
        },
        {
          "indexed": false,
          "internalType": "uint256",
          "name": "_currentValsetVersion",
          "type": "uint256"
        },
        {
          "indexed": false,
          "internalType": "uint256",
          "name": "_validatorCount",
          "type": "uint256"
        },
        {
          "indexed": false,
          "internalType": "uint256",
          "name": "_totalPower",
          "type": "uint256"
        }
      ],
      "name": "LogValidatorRemoved",
      "type": "event"
    },
    {
      "anonymous": false,
      "inputs": [
        {
          "indexed": false,
          "internalType": "uint256",
          "name": "_newValsetVersion",
          "type": "uint256"
        },
        {
          "indexed": false,
          "internalType": "uint256",
          "name": "_validatorCount",
          "type": "uint256"
        },
        {
          "indexed": false,
          "internalType": "uint256",
          "name": "_totalPower",
          "type": "uint256"
        }
      ],
      "name": "LogValsetReset",
      "type": "event"
    },
    {
      "anonymous": false,
      "inputs": [
        {
          "indexed": false,
          "internalType": "uint256",
          "name": "_newValsetVersion",
          "type": "uint256"
        },
        {
          "indexed": false,
          "internalType": "uint256",
          "name": "_validatorCount",
          "type": "uint256"
        },
        {
          "indexed": false,
          "internalType": "uint256",
          "name": "_totalPower",
          "type": "uint256"
        }
      ],
      "name": "LogValsetUpdated",
      "type": "event"
    },
    {
      "constant": true,
      "inputs": [],
      "name": "currentValsetVersion",
      "outputs": [
        {
          "internalType": "uint256",
          "name": "",
          "type": "uint256"
        }
      ],
      "payable": false,
      "stateMutability": "view",
      "type": "function"
    },
    {
      "constant": true,
      "inputs": [],
      "name": "operator",
      "outputs": [
        {
          "internalType": "address",
          "name": "",
          "type": "address"
        }
      ],
      "payable": false,
      "stateMutability": "view",
      "type": "function"
    },
    {
      "constant": true,
      "inputs": [
        {
          "internalType": "bytes32",
          "name": "",
          "type": "bytes32"
        }
      ],
      "name": "powers",
      "outputs": [
        {
          "internalType": "uint256",
          "name": "",
          "type": "uint256"
        }
      ],
      "payable": false,
      "stateMutability": "view",
      "type": "function"
    },
    {
      "constant": true,
      "inputs": [],
      "name": "totalPower",
      "outputs": [
        {
          "internalType": "uint256",
          "name": "",
          "type": "uint256"
        }
      ],
      "payable": false,
      "stateMutability": "view",
      "type": "function"
    },
    {
      "constant": true,
      "inputs": [],
      "name": "validatorCount",
      "outputs": [
        {
          "internalType": "uint256",
          "name": "",
          "type": "uint256"
        }
      ],
      "payable": false,
      "stateMutability": "view",
      "type": "function"
    },
    {
      "constant": true,
      "inputs": [
        {
          "internalType": "bytes32",
          "name": "",
          "type": "bytes32"
        }
      ],
      "name": "validators",
      "outputs": [
        {
          "internalType": "bool",
          "name": "",
          "type": "bool"
        }
      ],
      "payable": false,
      "stateMutability": "view",
      "type": "function"
    },
    {
      "constant": true,
      "inputs": [
        {
          "internalType": "bytes32",
          "name": "_message",
          "type": "bytes32"
        },
        {
          "internalType": "bytes",
          "name": "_signature",
          "type": "bytes"
        }
      ],
      "name": "recover",
      "outputs": [
        {
          "internalType": "address",
          "name": "",
          "type": "address"
        }
      ],
      "payable": false,
      "stateMutability": "pure",
      "type": "function"
    },
    {
      "constant": false,
      "inputs": [
        {
          "internalType": "address",
          "name": "_validatorAddress",
          "type": "address"
        },
        {
          "internalType": "uint256",
          "name": "_validatorPower",
          "type": "uint256"
        }
      ],
      "name": "addValidator",
      "outputs": [],
      "payable": false,
      "stateMutability": "nonpayable",
      "type": "function"
    },
    {
      "constant": false,
      "inputs": [
        {
          "internalType": "address",
          "name": "_validatorAddress",
          "type": "address"
        },
        {
          "internalType": "uint256",
          "name": "_newValidatorPower",
          "type": "uint256"
        }
      ],
      "name": "updateValidatorPower",
      "outputs": [],
      "payable": false,
      "stateMutability": "nonpayable",
      "type": "function"
    },
    {
      "constant": false,
      "inputs": [
        {
          "internalType": "address",
          "name": "_validatorAddress",
          "type": "address"
        }
      ],
      "name": "removeValidator",
      "outputs": [],
      "payable": false,
      "stateMutability": "nonpayable",
      "type": "function"
    },
    {
      "constant": false,
      "inputs": [
        {
          "internalType": "address[]",
          "name": "_validators",
          "type": "address[]"
        },
        {
          "internalType": "uint256[]",
          "name": "_powers",
          "type": "uint256[]"
        }
      ],
      "name": "updateValset",
      "outputs": [],
      "payable": false,
      "stateMutability": "nonpayable",
      "type": "function"
    },
    {
      "constant": true,
      "inputs": [
        {
          "internalType": "address",
          "name": "_validatorAddress",
          "type": "address"
        }
      ],
      "name": "isActiveValidator",
      "outputs": [
        {
          "internalType": "bool",
          "name": "",
          "type": "bool"
        }
      ],
      "payable": false,
      "stateMutability": "view",
      "type": "function"
    },
    {
      "constant": true,
      "inputs": [
        {
          "internalType": "address",
          "name": "_validatorAddress",
          "type": "address"
        }
      ],
      "name": "getValidatorPower",
      "outputs": [
        {
          "internalType": "uint256",
          "name": "",
          "type": "uint256"
        }
      ],
      "payable": false,
      "stateMutability": "view",
      "type": "function"
    },
    {
      "constant": false,
      "inputs": [
        {
          "internalType": "uint256",
          "name": "_valsetVersion",
          "type": "uint256"
        },
        {
          "internalType": "address",
          "name": "_validatorAddress",
          "type": "address"
        }
      ],
      "name": "recoverGas",
      "outputs": [],
      "payable": false,
      "stateMutability": "nonpayable",
      "type": "function"
    }
  ],
  "bytecode": "0x60806040523480156200001157600080fd5b5060405162001dab38038062001dab833981810160405260608110156200003757600080fd5b8101908080519060200190929190805160405193929190846401000000008211156200006257600080fd5b838201915060208201858111156200007957600080fd5b82518660208202830111640100000000821117156200009757600080fd5b8083526020830192505050908051906020019060200280838360005b83811015620000d0578082015181840152602081019050620000b3565b5050505090500160405260200180516040519392919084640100000000821115620000fa57600080fd5b838201915060208201858111156200011157600080fd5b82518660208202830111640100000000821117156200012f57600080fd5b8083526020830192505050908051906020019060200280838360005b83811015620001685780820151818401526020810190506200014b565b50505050905001604052505050826000806101000a81548173ffffffffffffffffffffffffffffffffffffffff021916908373ffffffffffffffffffffffffffffffffffffffff1602179055506000600281905550620001cf8282620001d860201b60201c565b5050506200064c565b6000809054906101000a900473ffffffffffffffffffffffffffffffffffffffff1673ffffffffffffffffffffffffffffffffffffffff163373ffffffffffffffffffffffffffffffffffffffff16146200029b576040517f08c379a00000000000000000000000000000000000000000000000000000000081526004018080602001828103825260158152602001807f4d75737420626520746865206f70657261746f722e000000000000000000000081525060200191505060405180910390fd5b8051825114620002f7576040517f08c379a000000000000000000000000000000000000000000000000000000000815260040180806020018281038252602f81526020018062001d7c602f913960400191505060405180910390fd5b62000307620003c660201b60201c565b60008090505b82518110156200037457620003518382815181106200032857fe5b60200260200101518383815181106200033d57fe5b60200260200101516200044860201b60201c565b6200036c600182620005c360201b620013081790919060201c565b90506200030d565b507f3a7ef0da3179668af8114719645585b5a37092ef2d66f187dcf63d83a221eaa660025460035460015460405180848152602001838152602001828152602001935050505060405180910390a15050565b620003e36001600254620005c360201b620013081790919060201c565b600281905550600060038190555060006001819055507fd870653e19f161500290fd0c4ca41bf5cf2bcb1ba66448f41c66c512dabd65f260025460035460015460405180848152602001838152602001828152602001935050505060405180910390a1565b600060025483604051602001808381526020018273ffffffffffffffffffffffffffffffffffffffff1673ffffffffffffffffffffffffffffffffffffffff1660601b815260140192505050604051602081830303815290604052805190602001209050620004c96001600354620005c360201b620013081790919060201c565b600381905550620004eb82600154620005c360201b620013081790919060201c565b60018190555060016004600083815260200190815260200160002060006101000a81548160ff0219169083151502179055508160056000838152602001908152602001600020819055507f1a396bcf647502e902dce665d58a0c1b25f982f193ab9a1d0f1500d8d927bf2a8383600254600354600154604051808673ffffffffffffffffffffffffffffffffffffffff1673ffffffffffffffffffffffffffffffffffffffff1681526020018581526020018481526020018381526020018281526020019550505050505060405180910390a1505050565b60008082840190508381101562000642576040517f08c379a000000000000000000000000000000000000000000000000000000000815260040180806020018281038252601b8152602001807f536166654d6174683a206164646974696f6e206f766572666c6f77000000000081525060200191505060405180910390fd5b8091505092915050565b611720806200065c6000396000f3fe608060405234801561001057600080fd5b50600436106100ea5760003560e01c8063788cf92f1161008c578063b5672be311610066578063b5672be314610552578063b872c523146105a0578063db3ad22c146105e2578063fc6c1f0214610600576100ea565b8063788cf92f146103a25780638d56c37d146104ee5780639bdafcb31461050c576100ea565b806340550a1c116100c857806340550a1c1461026057806340a141ff146102bc578063473691a414610300578063570ca73514610358576100ea565b80630f43a677146100ef57806319045a251461010d5780632e75293b14610212575b600080fd5b6100f761064e565b6040518082815260200191505060405180910390f35b6101d06004803603604081101561012357600080fd5b81019080803590602001909291908035906020019064010000000081111561014a57600080fd5b82018360208201111561015c57600080fd5b8035906020019184600183028401116401000000008311171561017e57600080fd5b91908080601f016020809104026020016040519081016040528093929190818152602001838380828437600081840152601f19601f820116905080830192505050505050509192919290505050610654565b604051808273ffffffffffffffffffffffffffffffffffffffff1673ffffffffffffffffffffffffffffffffffffffff16815260200191505060405180910390f35b61025e6004803603604081101561022857600080fd5b81019080803573ffffffffffffffffffffffffffffffffffffffff16906020019092919080359060200190929190505050610670565b005b6102a26004803603602081101561027657600080fd5b81019080803573ffffffffffffffffffffffffffffffffffffffff169060200190929190505050610901565b604051808215151515815260200191505060405180910390f35b6102fe600480360360208110156102d257600080fd5b81019080803573ffffffffffffffffffffffffffffffffffffffff16906020019092919050505061098f565b005b6103426004803603602081101561031657600080fd5b81019080803573ffffffffffffffffffffffffffffffffffffffff169060200190929190505050610c3d565b6040518082815260200191505060405180910390f35b610360610cbe565b604051808273ffffffffffffffffffffffffffffffffffffffff1673ffffffffffffffffffffffffffffffffffffffff16815260200191505060405180910390f35b6104ec600480360360408110156103b857600080fd5b81019080803590602001906401000000008111156103d557600080fd5b8201836020820111156103e757600080fd5b8035906020019184602083028401116401000000008311171561040957600080fd5b919080806020026020016040519081016040528093929190818152602001838360200280828437600081840152601f19601f8201169050808301925050505050505091929192908035906020019064010000000081111561046957600080fd5b82018360208201111561047b57600080fd5b8035906020019184602083028401116401000000008311171561049d57600080fd5b919080806020026020016040519081016040528093929190818152602001838360200280828437600081840152601f19601f820116905080830192505050505050509192919290505050610ce3565b005b6104f6610eb3565b6040518082815260200191505060405180910390f35b6105386004803603602081101561052257600080fd5b8101908080359060200190929190505050610eb9565b604051808215151515815260200191505060405180910390f35b61059e6004803603604081101561056857600080fd5b8101908080359060200190929190803573ffffffffffffffffffffffffffffffffffffffff169060200190929190505050610ed9565b005b6105cc600480360360208110156105b657600080fd5b8101908080359060200190929190505050611096565b6040518082815260200191505060405180910390f35b6105ea6110ae565b6040518082815260200191505060405180910390f35b61064c6004803603604081101561061657600080fd5b81019080803573ffffffffffffffffffffffffffffffffffffffff169060200190929190803590602001909291905050506110b4565b005b60035481565b600061066861066284611184565b836111dc565b905092915050565b6000809054906101000a900473ffffffffffffffffffffffffffffffffffffffff1673ffffffffffffffffffffffffffffffffffffffff163373ffffffffffffffffffffffffffffffffffffffff1614610732576040517f08c379a00000000000000000000000000000000000000000000000000000000081526004018080602001828103825260158152602001807f4d75737420626520746865206f70657261746f722e000000000000000000000081525060200191505060405180910390fd5b600060025483604051602001808381526020018273ffffffffffffffffffffffffffffffffffffffff1673ffffffffffffffffffffffffffffffffffffffff1660601b8152601401925050506040516020818303038152906040528051906020012090506004600082815260200190815260200160002060009054906101000a900460ff1661080c576040517f08c379a000000000000000000000000000000000000000000000000000000000815260040180806020018281038252602e81526020018061168f602e913960400191505060405180910390fd5b600060056000838152602001908152602001600020549050610839816001546112be90919063ffffffff16565b6001819055506108548360015461130890919063ffffffff16565b6001819055508260056000848152602001908152602001600020819055507f335940ce4119f8aae891d73dba74510a3d51f6210134d058237f26e6a31d53408484600254600354600154604051808673ffffffffffffffffffffffffffffffffffffffff1673ffffffffffffffffffffffffffffffffffffffff1681526020018581526020018481526020018381526020018281526020019550505050505060405180910390a150505050565b60008060025483604051602001808381526020018273ffffffffffffffffffffffffffffffffffffffff1673ffffffffffffffffffffffffffffffffffffffff1660601b8152601401925050506040516020818303038152906040528051906020012090506004600082815260200190815260200160002060009054906101000a900460ff16915050919050565b6000809054906101000a900473ffffffffffffffffffffffffffffffffffffffff1673ffffffffffffffffffffffffffffffffffffffff163373ffffffffffffffffffffffffffffffffffffffff1614610a51576040517f08c379a00000000000000000000000000000000000000000000000000000000081526004018080602001828103825260158152602001807f4d75737420626520746865206f70657261746f722e000000000000000000000081525060200191505060405180910390fd5b600060025482604051602001808381526020018273ffffffffffffffffffffffffffffffffffffffff1673ffffffffffffffffffffffffffffffffffffffff1660601b8152601401925050506040516020818303038152906040528051906020012090506004600082815260200190815260200160002060009054906101000a900460ff16610b2b576040517f08c379a00000000000000000000000000000000000000000000000000000000081526004018080602001828103825260218152602001806116396021913960400191505060405180910390fd5b610b4160016003546112be90919063ffffffff16565b600381905550610b6f60056000838152602001908152602001600020546001546112be90919063ffffffff16565b6001819055506004600082815260200190815260200160002060006101000a81549060ff021916905560056000828152602001908152602001600020600090557f1241fb43a101ff98ab819a1882097d4ccada51ba60f326c1981cc48840f55b8c826000600254600354600154604051808673ffffffffffffffffffffffffffffffffffffffff1673ffffffffffffffffffffffffffffffffffffffff1681526020018581526020018481526020018381526020018281526020019550505050505060405180910390a15050565b60008060025483604051602001808381526020018273ffffffffffffffffffffffffffffffffffffffff1673ffffffffffffffffffffffffffffffffffffffff1660601b8152601401925050506040516020818303038152906040528051906020012090506005600082815260200190815260200160002054915050919050565b6000809054906101000a900473ffffffffffffffffffffffffffffffffffffffff1681565b6000809054906101000a900473ffffffffffffffffffffffffffffffffffffffff1673ffffffffffffffffffffffffffffffffffffffff163373ffffffffffffffffffffffffffffffffffffffff1614610da5576040517f08c379a00000000000000000000000000000000000000000000000000000000081526004018080602001828103825260158152602001807f4d75737420626520746865206f70657261746f722e000000000000000000000081525060200191505060405180910390fd5b8051825114610dff576040517f08c379a000000000000000000000000000000000000000000000000000000000815260040180806020018281038252602f8152602001806116bd602f913960400191505060405180910390fd5b610e07611390565b60008090505b8251811015610e6157610e46838281518110610e2557fe5b6020026020010151838381518110610e3957fe5b602002602001015161140b565b610e5a60018261130890919063ffffffff16565b9050610e0d565b507f3a7ef0da3179668af8114719645585b5a37092ef2d66f187dcf63d83a221eaa660025460035460015460405180848152602001838152602001828152602001935050505060405180910390a15050565b60025481565b60046020528060005260406000206000915054906101000a900460ff1681565b6000809054906101000a900473ffffffffffffffffffffffffffffffffffffffff1673ffffffffffffffffffffffffffffffffffffffff163373ffffffffffffffffffffffffffffffffffffffff1614610f9b576040517f08c379a00000000000000000000000000000000000000000000000000000000081526004018080602001828103825260158152602001807f4d75737420626520746865206f70657261746f722e000000000000000000000081525060200191505060405180910390fd5b6002548210610ff5576040517f08c379a000000000000000000000000000000000000000000000000000000000815260040180806020018281038252603581526020018061165a6035913960400191505060405180910390fd5b60008282604051602001808381526020018273ffffffffffffffffffffffffffffffffffffffff1673ffffffffffffffffffffffffffffffffffffffff1660601b8152601401925050506040516020818303038152906040528051906020012090506004600082815260200190815260200160002060006101000a81549060ff02191690556005600082815260200190815260200160002060009055505050565b60056020528060005260406000206000915090505481565b60015481565b6000809054906101000a900473ffffffffffffffffffffffffffffffffffffffff1673ffffffffffffffffffffffffffffffffffffffff163373ffffffffffffffffffffffffffffffffffffffff1614611176576040517f08c379a00000000000000000000000000000000000000000000000000000000081526004018080602001828103825260158152602001807f4d75737420626520746865206f70657261746f722e000000000000000000000081525060200191505060405180910390fd5b611180828261140b565b5050565b60008160405160200180807f19457468657265756d205369676e6564204d6573736167653a0a333200000000815250601c01828152602001915050604051602081830303815290604052805190602001209050919050565b60008060008060418551146111f757600093505050506112b8565b6020850151925060408501519150606085015160001a9050601b8160ff16101561122257601b810190505b601b8160ff161415801561123a5750601c8160ff1614155b1561124b57600093505050506112b8565b60018682858560405160008152602001604052604051808581526020018460ff1660ff1681526020018381526020018281526020019450505050506020604051602081039080840390855afa1580156112a8573d6000803e3d6000fd5b5050506020604051035193505050505b92915050565b600061130083836040518060400160405280601e81526020017f536166654d6174683a207375627472616374696f6e206f766572666c6f770000815250611578565b905092915050565b600080828401905083811015611386576040517f08c379a000000000000000000000000000000000000000000000000000000000815260040180806020018281038252601b8152602001807f536166654d6174683a206164646974696f6e206f766572666c6f77000000000081525060200191505060405180910390fd5b8091505092915050565b6113a6600160025461130890919063ffffffff16565b600281905550600060038190555060006001819055507fd870653e19f161500290fd0c4ca41bf5cf2bcb1ba66448f41c66c512dabd65f260025460035460015460405180848152602001838152602001828152602001935050505060405180910390a1565b600060025483604051602001808381526020018273ffffffffffffffffffffffffffffffffffffffff1673ffffffffffffffffffffffffffffffffffffffff1660601b815260140192505050604051602081830303815290604052805190602001209050611485600160035461130890919063ffffffff16565b6003819055506114a08260015461130890919063ffffffff16565b60018190555060016004600083815260200190815260200160002060006101000a81548160ff0219169083151502179055508160056000838152602001908152602001600020819055507f1a396bcf647502e902dce665d58a0c1b25f982f193ab9a1d0f1500d8d927bf2a8383600254600354600154604051808673ffffffffffffffffffffffffffffffffffffffff1673ffffffffffffffffffffffffffffffffffffffff1681526020018581526020018481526020018381526020018281526020019550505050505060405180910390a1505050565b6000838311158290611625576040517f08c379a00000000000000000000000000000000000000000000000000000000081526004018080602001828103825283818151815260200191508051906020019080838360005b838110156115ea5780820151818401526020810190506115cf565b50505050905090810190601f1680156116175780820380516001836020036101000a031916815260200191505b509250505060405180910390fd5b506000838503905080915050939250505056fe43616e206f6e6c792072656d6f7665206163746976652076616c646961746f7273476173207265636f76657279206f6e6c7920616c6c6f77656420666f722070726576696f75732076616c696461746f72207365747343616e206f6e6c79207570646174652074686520706f776572206f66206163746976652076616c646961746f727345766572792076616c696461746f72206d7573742068617665206120636f72726573706f6e64696e6720706f776572a265627a7a72315820b670a8ac9583397c13601b7a01846d8cce79dcccbd4a8d97533262bf50adb19f64736f6c6343000510003245766572792076616c696461746f72206d7573742068617665206120636f72726573706f6e64696e6720706f776572",
  "source": "pragma solidity ^0.5.0;\n\nimport \"../../node_modules/openzeppelin-solidity/contracts/math/SafeMath.sol\";\n\n\ncontract Valset {\n    using SafeMath for uint256;\n\n    /*\n     * @dev: Variable declarations\n     */\n    address public operator;\n    uint256 public totalPower;\n    uint256 public currentValsetVersion;\n    uint256 public validatorCount;\n    mapping(bytes32 => bool) public validators;\n    mapping(bytes32 => uint256) public powers;\n\n    /*\n     * @dev: Event declarations\n     */\n    event LogValidatorAdded(\n        address _validator,\n        uint256 _power,\n        uint256 _currentValsetVersion,\n        uint256 _validatorCount,\n        uint256 _totalPower\n    );\n\n    event LogValidatorPowerUpdated(\n        address _validator,\n        uint256 _power,\n        uint256 _currentValsetVersion,\n        uint256 _validatorCount,\n        uint256 _totalPower\n    );\n\n    event LogValidatorRemoved(\n        address _validator,\n        uint256 _power,\n        uint256 _currentValsetVersion,\n        uint256 _validatorCount,\n        uint256 _totalPower\n    );\n\n    event LogValsetReset(\n        uint256 _newValsetVersion,\n        uint256 _validatorCount,\n        uint256 _totalPower\n    );\n\n    event LogValsetUpdated(\n        uint256 _newValsetVersion,\n        uint256 _validatorCount,\n        uint256 _totalPower\n    );\n\n    /*\n     * @dev: Modifier which restricts access to the operator.\n     */\n    modifier onlyOperator() {\n        require(msg.sender == operator, \"Must be the operator.\");\n        _;\n    }\n\n    /*\n     * @dev: Constructor\n     */\n    constructor(\n        address _operator,\n        address[] memory _initValidators,\n        uint256[] memory _initPowers\n    ) public {\n        operator = _operator;\n        currentValsetVersion = 0;\n\n        updateValset(_initValidators, _initPowers);\n    }\n\n    function recover(bytes32 _message, bytes memory _signature)\n        public\n        pure\n        returns (address)\n    {\n        return verify(ethMessageHash(_message), _signature);\n    }\n\n    /*\n     * @dev: addValidator\n     */\n    function addValidator(address _validatorAddress, uint256 _validatorPower)\n        public\n        onlyOperator\n    {\n        addValidatorInternal(_validatorAddress, _validatorPower);\n    }\n\n    /*\n     * @dev: updateValidatorPower\n     */\n    function updateValidatorPower(\n        address _validatorAddress,\n        uint256 _newValidatorPower\n    ) public onlyOperator {\n        // Create a unique key which for this validator's position in the current version of the mapping\n        bytes32 key = keccak256(\n            abi.encodePacked(currentValsetVersion, _validatorAddress)\n        );\n\n        require(\n            validators[key],\n            \"Can only update the power of active valdiators\"\n        );\n\n        // Adjust total power by new validator power\n        uint256 priorPower = powers[key];\n        totalPower = totalPower.sub(priorPower);\n        totalPower = totalPower.add(_newValidatorPower);\n\n        // Set validator's new power\n        powers[key] = _newValidatorPower;\n\n        emit LogValidatorPowerUpdated(\n            _validatorAddress,\n            _newValidatorPower,\n            currentValsetVersion,\n            validatorCount,\n            totalPower\n        );\n    }\n\n    /*\n     * @dev: removeValidator\n     */\n    function removeValidator(address _validatorAddress) public onlyOperator {\n        // Create a unique key which for this validator's position in the current version of the mapping\n        bytes32 key = keccak256(\n            abi.encodePacked(currentValsetVersion, _validatorAddress)\n        );\n\n        require(validators[key], \"Can only remove active valdiators\");\n\n        // Update validator count and total power\n        validatorCount = validatorCount.sub(1);\n        totalPower = totalPower.sub(powers[key]);\n\n        // Delete validator and power\n        delete validators[key];\n        delete powers[key];\n\n        emit LogValidatorRemoved(\n            _validatorAddress,\n            0,\n            currentValsetVersion,\n            validatorCount,\n            totalPower\n        );\n    }\n\n    /*\n     * @dev: updateValset\n     */\n    function updateValset(\n        address[] memory _validators,\n        uint256[] memory _powers\n    ) public onlyOperator {\n        require(\n            _validators.length == _powers.length,\n            \"Every validator must have a corresponding power\"\n        );\n\n        resetValset();\n\n        for (uint256 i = 0; i < _validators.length; i = i.add(1)) {\n            addValidatorInternal(_validators[i], _powers[i]);\n        }\n\n        emit LogValsetUpdated(currentValsetVersion, validatorCount, totalPower);\n    }\n\n    /*\n     * @dev: isActiveValidator\n     */\n    function isActiveValidator(address _validatorAddress)\n        public\n        view\n        returns (bool)\n    {\n        // Recreate the unique key for this address given the current mapping version\n        bytes32 key = keccak256(\n            abi.encodePacked(currentValsetVersion, _validatorAddress)\n        );\n\n        // Return bool indicating if this address is an active validator\n        return validators[key];\n    }\n\n    /*\n     * @dev: getValidatorPower\n     */\n    function getValidatorPower(address _validatorAddress)\n        external\n        view\n        returns (uint256)\n    {\n        // Recreate the unique key for this address given the current mapping version\n        bytes32 key = keccak256(\n            abi.encodePacked(currentValsetVersion, _validatorAddress)\n        );\n\n        return powers[key];\n    }\n\n    /*\n     * @dev: recoverGas\n     */\n    function recoverGas(uint256 _valsetVersion, address _validatorAddress)\n        external\n        onlyOperator\n    {\n        require(\n            _valsetVersion < currentValsetVersion,\n            \"Gas recovery only allowed for previous validator sets\"\n        );\n\n        // Recreate the unique key used to identify this validator in the given version\n        bytes32 key = keccak256(\n            abi.encodePacked(_valsetVersion, _validatorAddress)\n        );\n\n        // Delete from mappings and recover gas\n        delete (validators[key]);\n        delete (powers[key]);\n    }\n\n    /*\n     * @dev: addValidatorInternal\n     */\n    function addValidatorInternal(\n        address _validatorAddress,\n        uint256 _validatorPower\n    ) internal {\n        // Create a unique key which for this validator's position in the current version of the mapping\n        bytes32 key = keccak256(\n            abi.encodePacked(currentValsetVersion, _validatorAddress)\n        );\n\n        validatorCount = validatorCount.add(1);\n        totalPower = totalPower.add(_validatorPower);\n\n        // Set validator as active and set their power\n        validators[key] = true;\n        powers[key] = _validatorPower;\n\n        emit LogValidatorAdded(\n            _validatorAddress,\n            _validatorPower,\n            currentValsetVersion,\n            validatorCount,\n            totalPower\n        );\n    }\n\n    /*\n     * @dev: resetValset\n     */\n    function resetValset() internal {\n        currentValsetVersion = currentValsetVersion.add(1);\n        validatorCount = 0;\n        totalPower = 0;\n\n        emit LogValsetReset(currentValsetVersion, validatorCount, totalPower);\n    }\n\n    /**\n     * @dev Recover signer address from a message by using their signature\n     * @param h bytes32 message, the hash is the signed message. What is recovered is the signer address.\n     * @param signature bytes signature, the signature is generated using web3.eth.sign()\n     */\n    function verify(bytes32 h, bytes memory signature)\n        internal\n        pure\n        returns (address)\n    {\n        bytes32 r;\n        bytes32 s;\n        uint8 v;\n\n        // Check the signature length\n        if (signature.length != 65) {\n            return (address(0));\n        }\n\n        // Divide the signature in r, s and v variables\n        // ecrecover takes the signature parameters, and the only way to get them\n        // currently is to use assembly.\n        // solium-disable-next-line security/no-inline-assembly\n        assembly {\n            r := mload(add(signature, 32))\n            s := mload(add(signature, 64))\n            v := byte(0, mload(add(signature, 96)))\n        }\n\n        // Version of signature should be 27 or 28, but 0 and 1 are also possible versions\n        if (v < 27) {\n            v += 27;\n        }\n\n        // If the version is correct return the signer address\n        if (v != 27 && v != 28) {\n            return (address(0));\n        } else {\n            // solium-disable-next-line arg-overflow\n            return ecrecover(h, v, r, s);\n        }\n    }\n\n    /**\n     * toEthSignedMessageHash\n     * @dev prefix a bytes32 value with \"\\x19Ethereum Signed Message:\"\n     * and hash the result\n     */\n    function ethMessageHash(bytes32 message) internal pure returns (bytes32) {\n        return\n            keccak256(\n                abi.encodePacked(\"\\x19Ethereum Signed Message:\\n32\", message)\n            );\n    }\n}\n",
  "sourcePath": "/Users/chientm/go/src/github.com/cosmos/peggy/testnet-contracts/contracts/Valset.sol",
  "compiler": {
    "name": "solc",
    "version": "0.5.16+commit.9c3226ce.Emscripten.clang"
  },
  "schemaVersion": "3.1.0",
  "updatedAt": "2020-10-22T08:10:08.379Z",
  "networkType": "ethereum",
  "devdoc": {
    "methods": {}
  },
  "userdoc": {
    "methods": {}
  }
}